:020000040000FA
:1000000080313128080055347E1480314E01161E8F
:100010000A280B2813280C1E0E280F2813288A31B3
:10002000202280312F280B1F162817282F28191C53
:100030001A281B2823280F1C1E281F2823288C3130
:100040003B2480312F28171C262827282F280D1CF9
:100050002A282B282F2889316F2180312F287E10C4
:10006000090080313328803103208031FD003D308C
:1000700084008930850054308600013087000A30C2
:10008000893107218031FC01423084000030850035
:1000900019308931012180314101ED01EE015E30DD
:1000A0008400013085000830893101218031A03081
:1000B00084000130850040308931012180317E107B
:1000C00040018331A72B41014808CE004908CF00E9
:1000D0004A08D00003104F0D500DD1005108D40034
:1000E0004B08CE004C08CF004D08D00003104F0D38
:1000F000500DD1005108D3005408031980288128DD
:1001000091285308540203188628872898285308F2
:10011000CE005408CE0219304E02031C90289128BC
:1001200098284B08C8004C08C9004D08CA0082290D
:10013000530803199C289D28AD285408530203181E
:10014000A228A328AE285408CE005308CE021930A6
:100150004E02031CAC28AD28AE2882290630CE0002
:100160004E08D200CA1FB528B628B728D217CD1F0F
:10017000BA28BB28BC285217C917FF30C805FF3062
:10018000C9050030CA05CC17FF30CB05FF30CC05C0
:100190000030CD05530854020318CF28D028F82882
:1001A0000130CB35CC0DCD0D890BD1280130D302D8
:1001B000530854060319DD28DE28F1280130D20245
:1001C00052080739031DE528E628D028F128013018
:1001D000CA36C90CC80C890BE8280130CE004E087D
:1001E000D40754085306031DF628F728E7282529C5
:1001F000540853020318FD28FE2825290130C8356C
:10020000C90DCA0D890BFF280130D40253085406CA
:1002100003190B290C291F290130D2025208073972
:10022000031D13291429FE281F290130CD36CC0CBB
:10023000CB0C890B16290130CE004E08D307540889
:100240005306031D242925291529D21F28292929C8
:100250003929FF30C806FF30C906FF30CA06013011
:10026000C807003003180130C907003003180130F7
:10027000CA07521F3C293D294D29FF30CB06FF30CC
:10028000CC06FF30CD060130CB070030031801301B
:10029000CC07003003180130CD07D2014808CB0746
:1002A0004908CC3D4A08CD3DCD1F572958296A2918
:1002B000FF30CB06FF30CC06FF30CD060130CB0738
:1002C000003003180130CC07003003180130CD078F
:1002D000D201D20A4B08A0004C08A1004D08A20090
:1002E0005408CE004E08A3005208CF004F08A400C7
:1002F0008F318B27803141012008C8002108C900B7
:100300002208CA00080040013008B6003108B700D2
:100310003208B8000310370D380DB9003908BC0099
:100320003308B6003408B7003508B8000310370D9D
:10033000380DB9003908BB003C080319A029A129D0
:10034000B1293B083C020318A629A729B8293B0874
:10035000B6003C08B60219303602031CB029B12998
:10036000B8293308B0003408B1003508B200A22A19
:100370003B080319BC29BD29CD293C083B020318C1
:10038000C229C329CE293C08B6003B08B602193061
:100390003602031CCC29CD29CE29A22A0630B6006C
:1003A0003608BA00B21FD529D629D729BA17B51FE2
:1003B000DA29DB29DC293A17B117FF30B005FF3005
:1003C000B1050030B205B417FF30B305FF30B405F6
:1003D0000030B5053B083C020318EF29F029182A24
:1003E0000130B335B40DB50D890BF1290130BB02D5
:1003F0003B083C060319FD29FE29112A0130BA02E7
:100400003A080739031D052A062AF029112A013066
:10041000B236B10CB00C890B082A0130B600360890
:10042000BC073C083B06031D162A172A072A452A43
:100430003C083B0203181D2A1E2A452A0130B0350C
:10044000B10DB20D890B1F2A0130BC023B083C06DE
:1004500003192B2A2C2A3F2A0130BA023A080739FD
:10046000031D332A342A1E2A3F2A0130B536B40C24
:10047000B30C890B362A0130B6003608BB073C089E
:100480003B06031D442A452A352ABA1F482A492A11
:10049000592AFF30B006FF30B106FF30B2060130F6
:1004A000B007003003180130B107003003180130E5
:1004B000B2073A1F5C2A5D2A6D2AFF30B306FF306F
:1004C000B406FF30B5060130B30700300318013021
:1004D000B407003003180130B507BA013008B3077C
:1004E0003108B43D3208B53DB51F772A782A8A2AEB
:1004F000FF30B306FF30B406FF30B5060130B30756
:10050000003003180130B407003003180130B5077C
:10051000BA01BA0A3308F0003408F1003508F200D5
:100520003C08B6003608F3003A08B7003708F40074
:100530008F311727813170084001B0007108B10078
:100540007208B200080000304101A800C830A900BC
:100550004330AA0042015E084101AB0042015F083E
:100560004101AC00420160084101AD008631BA266C
:100570008231410128084201A700410129084201B6
:10058000A80041012A084201A900E7304101A80062
:10059000DB30A9002F30AA00420127084101AB003F
:1005A000420128084101AC00420129084101AD0087
:1005B0008631BA26823141012808E5002908E60083
:1005C0002A08E7008A31D2228231410165084201BE
:1005D000AA00410166084201AB00410167084201DF
:1005E000AC0000304101B8002030B9004130BA0001
:1005F00042012A084101BB0042012B084101BC0015
:1006000042012C084101BD00843183248231410123
:1006100038084201B000410139084201B1004101EE
:100620003A084201B20000304101A000D430A100DC
:100630004230A200420130084101A30042013108CA
:100640004101A400420132084101A5008B318923F8
:10065000823103182C2B2D2B342B00304201B0009B
:10066000D430B1004230B200420130084101BB0039
:10067000420131084101BC00420132084101BD0084
:100680000030B8001630B9004430BA0084318324F9
:100690008231410138084201A0004101390842017C
:1006A000A10041013A084201A2008E31A526823103
:1006B00042012008AD002108AE002208AF002D083D
:1006C0004101C80042012E084101C90042012F0822
:1006D0004101CA0087316C2782314101490842013A
:1006E000B400410148084201B3003408A6002608BE
:1006F0004001C70042013308A60026084001C80097
:1007000041016D080319852B862B8A2B89316121C4
:100710008231A32B420134086702031D912B330859
:1007200066020318942B952BA02B6108031D992BAF
:100730009A2BA12BE101E10A893161218231A12BA0
:10074000E10150010C148031022082310800543044
:100750008931AB2183318B170B17420155088A0071
:1007600054080A0083310430543E8600013087006B
:10077000413F8A00403F0A00833163304201B800A4
:1007800038084101A00065304201B9003908410133
:10079000A1000630543E860001308700413F8A00A8
:1007A000403F0A00833142016508B8003808410122
:1007B000A00063308B31252383318831E5208331DC
:1007C000003A0319E42BE52BB32B52308931472132
:1007D0008331682CAA30B8003808CF004101A0014D
:1007E000A00A4F308B3125238331B32BD001D00A9F
:1007F0004101A001A00A50308B3125238331B32B56
:10080000D101D10A4101A001A00A51308B31252329
:100810008331B32B0230543E860001308700413FC4
:100820008A00403F0A008431B32B1430B8003808E6
:10083000CE00232C0B304201B8006230890B1E2CF5
:10084000B80B1E2C000089312B218331003A031D87
:100850002A2C2B2C802C01304201CE024E0A031D83
:10086000322C332C1A2CB32B893154218331B32BE6
:1008700015304201B800C630890B3C2CB80B3C2C1B
:10088000000053304201B80038084101A0003A305E
:100890008A3162228331063042015306031D512CF6
:1008A000522C802C3A08B80038084101A0003B3097
:1008B0004201B90039084101A1000830543E8600C8
:1008C00001308700413F8A00403F0A008431B32B4A
:1008D00042015208103A0319EA2B013A0319F62B88
:1008E000023A03190A2C073A0319152C013A031985
:1008F000342C363A0319002C073A0319382C802C73
:10090000B32B8031312841013808BE003908BF00BF
:100910003A08C00003103F0D400DC1004108C2005D
:100920004208031D942C952C9C2C0030B8000030FC
:10093000B9000030BA00432D3B08BE003C08BF00A0
:100940003D08C00003103F0D400DC1004108C70025
:100950004708031DAC2CAD2CB42C0030B80000307F
:10096000B9000030BA00432D47087B3EBE003E0868
:10097000C2073808BE003908BF003A08C00010306E
:10098000C036BF0CBE0C890BC02C3E08C10041080C
:10099000C7003B08BE003C08BF003D08C000103047
:1009A000C036BF0CBE0C890BD02C3E08C1004108DC
:1009B000C7068030BE003E08C705B917BC17FF3018
:1009C000BB05FF30BC050030BD050030C300003062
:1009D000C4000030C5000730BE003E08C600381C09
:1009E000F22CF32CF92C3B08C3073C08C43D3D080E
:1009F000C53D0130BA36B90CB80C890BFA2C013060
:100A0000BB35BC0DBD0D890B002D0130C602031D89
:100A10000A2D0B2DEF2C0930BE003E08C600381CF5
:100A2000122D132D192D3B08C3073C08C43D3D086A
:100A3000C53D0130BA36B90CB80C890B1A2D0130FE
:100A4000C536C40CC30C890B202D0130C602031D12
:100A50002A2D2B2D0F2D4308A0004408A100450886
:100A6000A2004208BE003E08A3004708BF003F089E
:100A7000A4008F318B27843141012008B800210860
:100A8000B9002208BA00080040012008A600210889
:100A9000A7002208A8000310270D280DA900290887
:100AA000AA002A08031D552D562D5D2D0030A000EB
:100AB0000030A1000030A200042E2308A600240864
:100AC000A7002508A8000310270D280DA900290854
:100AD000AF002F08031D6D2D6E2D752D0030A00069
:100AE0000030A1000030A200042E2F087B3EA6009B
:100AF0002608AA072008A6002108A7002208A800A7
:100B00001030A836A70CA60C890B812D2608A90049
:100B10002908AF002308A6002408A7002508A8007C
:100B20001030A836A70CA60C890B912D2608A90019
:100B30002908AF068030A6002608AF05A117A41724
:100B4000FF30A305FF30A4050030A5050030AB0041
:100B50000030AC000030AD000730A6002608AE0023
:100B6000201CB32DB42DBA2D2308AB072408AC3DAF
:100B70002508AD3D0130A236A10CA00C890BBB2D80
:100B80000130A335A40DA50D890BC12D0130AE0296
:100B9000031DCB2DCC2DB02D0930A6002608AE00AC
:100BA000201CD32DD42DDA2D2308AB072408AC3D0F
:100BB0002508AD3D0130A236A10CA00C890BDB2D20
:100BC0000130AD36AC0CAB0C890BE12D0130AE021F
:100BD000031DEB2DEC2DD02D2B08F0002C08F1007F
:100BE0002D08F2002A08A6002608F3002F08A70007
:100BF0002708F4008F311727853170084001A000C5
:100C00007108A1007208A200080041015F08A0005D
:100C10006008A1006108A2000030A3000030A40019
:100C20000030A5008B31892386310318182E192E28
:100C3000262E21304001C5000030C60000304101A1
:100C4000DF000030E0000030E100B92E4101610812
:100C500060045F04031D2D2E2E2E3B2E22304001FA
:100C6000C5000030C60000304101DF000030E00068
:100C70000030E100B92E0030C8008030C900BF301C
:100C8000CA000030B8000030B9004030BA00E3308C
:100C9000E2006208A3005F08A0006008A1006108EC
:100CA000A2008B31FD23863141012008BB002108C1
:100CB000BC002208BD0084318324863141013808FC
:100CC000CB003908CC003A08CD0080316320863152
:100CD00041014808DF004908E0004A08E100FF3010
:100CE000E307FF30E43D5F08D5006008D6006108E7
:100CF000D7000030D8009030D9000830DA0000303A
:100D0000DB008D31DA25863141015508DF005608B8
:100D1000E0005708E1005F08C8006008C9006108EA
:100D2000CA007230B8003130B9003F30BA006408F0
:100D3000A9006308A8008A3185228631410128086C
:100D4000BB002908BC002A08BD00843183248631F9
:100D500041013808CB003908CC003A08CD00803179
:100D60006320863141014808DF004908E0004A0855
:100D7000E100080041012B08AE002C08AF002D084F
:100D8000B00003102F0D300DB1003108B600360849
:100D9000031DCB2ECC2ED32E0030A8000030A9008E
:100DA0000030AA006B2F2808AE002908AF002A08DF
:100DB000B00003102F0D300DB1003108B700370817
:100DC000031DE32EE42EEB2E0030A8000030A90016
:100DD0000030AA006B2F0030B3000030B4000030A8
:100DE000B50089303707AE002E08B6022B08AE00DA
:100DF0002C08AF002D08B0001030B036AF0CAE0C90
:100E0000890BFD2E2E08B1003108B7002808AE006E
:100E10002908AF002A08B0001030B036AF0CAE0C75
:100E2000890B0D2F2E08B1003108B7068030AE00B7
:100E30002E08B705AC17FF30AB05FF30AC0500300E
:100E4000AD05A917FF30A805FF30A9050030AA0598
:100E50001830AE002E08B2000130B335B40DB50D18
:100E6000890B2D2F2A082D02031D3C2F29082C0247
:100E7000031D3C2F28082B02031C3F2F402F472F18
:100E80002808AB022908AC3B2A08AD3B33140130DB
:100E9000AB35AC0DAD0D890B482F0130B202031DEF
:100EA000522F532F2C2F3308A0003408A1003508EF
:100EB000A2003608AE002E08A3003708AF002F08A6
:100EC000A4008F318B27863141012008A80021081A
:100ED000A9002208AA00080041014808CC004908DE
:100EE000CD004A08CE0003104D0D4E0DCF004F0827
:100EF000D5005508031D7D2F7E2F872F0030CB0096
:100F00000030CA000030C9000030C800F02F480887
:100F1000CC004908CD004A08CE001730CE36CD0CA3
:100F2000CC0C890B8E2F4C08CF004F08D000C9176E
:100F3000FF30C805FF30C9050030CA054808D10098
:100F40004908D2004A08D300D4018E30D502D51FFB
:100F5000AA2FAB2FC32F5508803A8F3E0318B12F0D
:100F6000B22FB32F7E2F0130D436D30CD20CD10C3C
:100F7000890BB42F0130CC004C08D507031DC12FBD
:100F8000C22FB32FD82F18305502031CC82FC92FDA
:100F9000D32F7E2F0130D135D20DD30DD40D890B37
:100FA000CB2F0130D5025508031DD72FD82FCA2FBC
:100FB00050080319DC2FDD2FE82FD109D209D309FE
:100FC000D409D10A0319D20A0319D30A0319D40A7E
:100FD0005408CB005308CA005208C9005108C80081
:100FE000080040014D084E040319F72FF82FFD2F7C
:100FF0004E088A004D080A0087317E01551308000B
:1011BC0008000800080008000800080008004001AA
:1011CC005A080800420111170800420111130800C7
:1011DC004201111008004101ED01ED0A0800410126
:1011EC001E08F1001D08F0000800603051018D0050
:1011FC00063093000800640080010131890B02293C
:10120C000034FE0012001E00FE0B082900345101B0
:10121C008C13000063000000000008008831EE20F1
:10122C0089318831EB20893108004101A000200868
:10123C009F0042019117111408008831E820893170
:10124C00113089311B218931080040015708031DD9
:10125C00302932290130332900300800410121089E
:10126C004001CC00410120084001CB0008007A3439
:10127C000C34F1340834C2340B34E23409345634AF
:10128C000B344101A1007C08A0002108860001302C
:10129C008700200881004001DA010800031040019A
:1012AC009A1F031403185B295E2940019A176029C1
:1012BC0040019A13080040019A1334304101A000F8
:1012CC00F130890B6729A00B6729003240019A176E
:1012DC0008004E010D1040014B084C0403197729EE
:1012EC0078297D294C088A004B080A0089310800AE
:1012FC004001530854040319842985298A29540868
:10130C008A0053080A0089317E01551008004001FB
:10131C0051085204031993299429992952088A00D7
:10132C0051080A0089317E015511080040014F080F
:10133C0050040319A229A329A82950088A004F0890
:10134C000A0089317E01551208004101A100893142
:10135C00BB2189318831FB20893150019214410124
:10136C0021088A31FA2289310800FF304F0196009A
:10137C009613FF309700FF309800FF309900FF3034
:10138C009A00FF309B00FF309C00FF309D0008004E
:10139C007808F0007908F100F2018E30FB007B0830
:1013AC00F300F4018F31172789317008F8007108A8
:1013BC00F9007208FA00080002304101A20021086D
:1013CC008600013087002208810040014708410156
:1013DC00A20020088600013087002208810040010D
:1013EC0048084101A200200A86000130870022082B
:1013FC00810008004101A401A501201C062A072A2E
:10140C000B2A2208A4072308A53D0130A235A30D01
:10141C00890B0C2A0130A136A00C890B112A20084B
:10142C002104031D1A2A1B2A032A2508A1002408BB
:10143C00A00008007E01551C242A252A282A89315F
:10144C007E218A317E01551D2C2A2D2A302A893184
:10145C008D218A317E01551E342A352A382A89314C
:10146C009C218A317E01551F3C2A3D2A402A873116
:10147C00F1278A31080041016908680467040319DF
:10148C00482A492A4B2A8030E9066A08C8006B08AA
:10149C00C9006C08CA006708CB006808CC00690852
:1014AC00CD00803163208A3141014808E7004908AA
:1014BC00E8004A08E90008004101A2002208860061
:1014CC0001308700792AC03084000130850040014A
:1014DC0059084101A100210803197A2A12001E00A3
:1014EC00A10B742A7A2A692A400159084101A100EA
:1014FC002008860001308700210881000800410186
:10150C00AD01A91F8A2A8B2A922AA809A909A80A1F
:10151C000319A90AAD01AD0A2808A0002908A100E9
:10152C00A2018E30AB002B08A3002D08AC002C08B8
:10153C00A4008F318B278A3141012008A800210893
:10154C00A9002208AA0008004F01991241018C0140
:10155C008D018E018F019201930198019A019F01D7
:10156C0042018C018D018E018F019001920193013A
:10157C0094019501960197013F30980084309100B9
:10158C004E010D101714DE304101A0000830A100EF
:10159C00893134218A31080041016508DF00660871
:1015AC00E0006708E100863105268A3141015F08B9
:1015BC00E8006008E9006108EA005C30B800DE3041
:1015CC00B9003E30BA006808BB006908BC006A0864
:1015DC00BD00843183248A3141013808E500390883
:1015EC00E6003A08E70008004101A0004F011C107A
:1015FC007E01C312C3134001931693170F307D0164
:10160C00C50013307E019F0014309D000D307D010C
:10161C00C60043018F0126309000013091009201E9
:10162C001214FE308E004101203543018D004E0115
:10163C000F1019144001D701D901DA01080041013A
:10164C00A300402B570841012307A1002108860065
:10165C00013087000108A20040015708A03E860017
:10166C00013087004101220881000130A1002108CE
:10167C004001D70741012008400157020318472BAE
:10168C00482B4E2B20305702031C4D2B4E2B282B56
:10169C0057084101A10021084001D800D7010800DA
:1016AC0041012008031D5B2B5C2B882B2108860035
:1016BC00013087000108A2002208EF002108043E37
:1016CC008600013087000108A200A3012108033E17
:1016DC008600013087000108A400A5012408A5009C
:1016EC00A401220824044201E60041012308250438
:1016FC004201E70041016F080319852B862B882BCB
:10170C0050010C1408004101A21F8D2B8E2B9B2B1A
:10171C002008003CA0002108031C210F003CA10064
:10172C002208031C220F803CA200A51F9E2B9F2B7E
:10173C00AC2B2308003CA3002408031C240F003C02
:10174C00A4002508031C250F803CA5008030A206B0
:10175C008030A50625082202031DBA2B240821027D
:10176C00031DBA2B230820020318BD2BBE2BC02B44
:10177C000310C12B031408004201B7014001031AE6
:10178C00C82BC92BD92B50010C1441016E08031D19
:10179C00D02BD12BD92B6F080319D52BD62BD92BAA
:1017AC004201B701B70A41016F08031DDE2BDF2B85
:1017BC00E12B40011A10640042013708031DE72B8E
:1017CC00E82BEE2B41016D080319ED2BEE2BF92BB9
:1017DC004101EE01EE0A8C31FD248B314101ED010A
:1017EC00EE016400FC2B89310D218B310800410185
:1017FC00220821042004031D042C052C122C230880
:10180C00860087010030C03FC13F0030A00000308F
:10181C00A1000030A2003A2C22087F39A400A501B7
:10182C00A435A50D2308860087012408C03F250890
:10183C00C13F210D210D0139A400A501230886000B
:10184C00870124088104413125088104230886007E
:10185C008701823081074131FF30813D7F31220881
:10186C0080393F38A200A11308004E0119100F1047
:10187C0043010C08F2007208F3000F1D462C472C94
:10188C005B2C8F1E4A2C4B2C542C111F4E2C4F2C86
:10189C00542C03308D3186258C31732C01308D31D5
:1018AC0086258C3143011016732C8F1A5E2C5F2CFD
:1018BC00642C00308D3186258C31732C7308F2002A
:1018CC007208FD0002308D3186258C3143011016D3
:1018DC004E010F1C722C732C6E2C4E010F104301F9
:1018EC0010164E01191408008831E3208C314F0179
:1018FC0016107E01CE114E104001941114101A14C2
:10190C0068304101A200E430890B8A2CA20B8A2C8E
:10191C00000040019A1105304101A3000F30A200D4
:10192C00F130890B972CA20B972CA30B972C400111
:10193C0094139A171A10AF30C200BE30C3003A305D
:10194C00C4008A31AA228C313D304101A0000E30F6
:10195C00A100893134218C31143050018C000730B6
:10196C008D00640050010C1408004101DD018E3023
:10197C00DA005A08DC00D91FC42CC52CDE2CD60981
:10198C00D709D809D909D60A0319D70A0319D80ACD
:10199C000319D90ADD01DD0ADE2C0130D936D80C49
:1019AC00D70CD60C890BD42C0130DA005A08DC0782
:1019BC00FF305905031DE32CE42CD32C5608A00052
:1019CC005708A1005808A2005C08DA005A08A300C6
:1019DC005D08DB005B08A4008F318B278C31410143
:1019EC002008D6002108D7002208D800080064007F
:1019FC008831E4208C314201E201E20A4001C90144
:101A0C00CA0100304201DE000030DF000030E0008F
:101A1C0041016F08031D132D142D232D40011A14A1
:101A2C0005304201B6000F30B500F130890B1C2D8A
:101A3C00B50B1C2DB60B1C2D252D40011A1489310C
:101A4C0023218C312A2D640042016208031D2F2DA5
:101A5C00302D292D893114218C3141016F08031D42
:101A6C00382D392D3B2D40011A108231A3228C3197
:101A7C00080041015E08A0005F08A1006008A200F8
:101A8C00E530E1006108A3008B31FD238D3141016C
:101A9C00E61F512D522D592D0030DE000030DF0095
:101AAC000030E000852D0030660215300319650208
:101ABC00031C612D622D632D852D5E08C8005F0807
:101ACC00C9006008CA0087316C278D3141014B0871
:101ADC00D9004A08D8004908D7004808D6008C31EC
:101AEC00BB248D3141015608E2005708E300580829
:101AFC00E4006208DE006308DF006408E000080010
:101B0C00F100CB2D4001D601D60AD92D7D08F0006D
:101B1C007008FC00D901DA01DA0AB12D2130590222
:101B2C000318992D9A2DB12D7D08F0005908C03E4F
:101B3C00860001308700700881000130F0007008C9
:101B4C00D907B12D40015608003A0319942D013ADA
:101B5C0003198C2D942DD601D92D4001580857020C
:101B6C000318B92DBA2DC82D5708A03E8600013098
:101B7C008700010843018C000130F000700840011F
:101B8C00D707D92D43018C01D92D7108003A0319BF
:101B9C00882D013A0319B32D033A0319A82D013AE4
:101BAC000319D92DD92D080041015B08A1005A0851
:101BBC00A0000330A2000030A3008A3100228D3136
:101BCC0041015808200784005908213D8500003F39
:101BDC00DC00013FDD00023FDE00302EFF30DA0773
:101BEC00FF30DB3D5B08A1005A08A0000330A200C7
:101BFC000030A3008A3100228D31410158082007A2
:101C0C0084005908213D8500003FC800013FC900F0
:101C1C00023FCA005C08B8005D08B9005E08BA0053
:101C2C005508BB005608BC005708BD0084318324FE
:101C3C008D3141013808CB003908CC003A08CD0071
:101C4C00803163208D3141014808DC004908DD00FA
:101C5C004A08DE005A085B04031D352E362EF42D7F
:101C6C005C08D5005D08D6005E08D70008008831F6
:101C7C00F5208E3171084001BE007008BD0042088D
:101C8C00A0004308A1004408A2003E08F9003D084A
:101C9C00F8008931CE218E3178084001A3007908F3
:101CAC00A4007A08A500853144258E314001200816
:101CBC00BF002108C0002208C10042015E0840019B
:101CCC00B00042015F084001B100420160084001D0
:101CDC00B2003F08A0004008A1004108A2003F0844
:101CEC00A3004008A4004108A500853144258E318D
:101CFC0040012008B3002108B4002208B50081314E
:101D0C0083218E31400130084201DE004001310850
:101D1C004201DF00400132084201E0000130400185
:101D2C00C9070030CA3D01304A02903003194902FC
:101D3C00031CA12EA22EA42E4201E2010800420196
:101D4C0020084101DE00420121084101DF0042016F
:101D5C0022084101E0008D313F258E3141015E08A2
:101D6C00E7005F08E8006008E90042012008410133
:101D7C00EA00420121084101EB0042012208410125
:101D8C00EC008A3141228E31410167084201A300E7
:101D9C00410168084201A400410169084201A50003
:101DAC0023084101C800420124084101C900420135
:101DBC0025084101CA00420120084101CB00420123
:101DCC0021084101CC00420122084101CD008031A3
:101DDC0063208E31410148084201A00041014908AD
:101DEC004201A10041014A084201A2002008410120
:101DFC00DE00420121084101DF00420122084101BD
:101E0C00E0008D313F258E3141015E084201A0007A
:101E1C0041015F084201A100410160084201A2009A
:101E2C000800730803191B2F1C2F232F7208710431
:101E3C007004031D222F232F342F0030F0000030AC
:101E4C00F1000030F2008A2F0130F5007508F3071D
:101E5C000130F236F10CF00C890B2F2FFE3072058D
:101E6C00031D392F3A2F2A2F4F2F0130F5007508FB
:101E7C00F3070130F007003003180130F107003090
:101E8C0003180130F2070130F236F10CF00C890B1B
:101E9C004A2FFF307205031D542F552F3B2F5E2FF9
:101EAC000130F3020130F035F10DF20D890B592F91
:101EBC00F11B612F622F682F023073020318672FFA
:101ECC00682F562F73186B2F6C2F722FFF30F00565
:101EDC007F30F105FF30F2050310F30C7308F500A9
:101EEC00F601F7011030F535F60DF70D890B792F4A
:101EFC007508F0047608F1047708F20474080319E5
:101F0C00882F892F8A2FF217080041012308031903
:101F1C00902F912F982F220821042004031D972F16
:101F2C00982FA92F0030A0000030A1000030A20093
:101F3C00FF2F0130A5002508A3070130A236A10C04
:101F4C00A00C890BA42FFE302205031DAE2FAF2F42
:101F5C009F2FC42F0130A5002508A3070130A0072F
:101F6C00003003180130A107003003180130A2071C
:101F7C000130A236A10CA00C890BBF2FFF3022051B
:101F8C00031DC92FCA2FB02FD32F0130A30201304C
:101F9C00A035A10DA20D890BCE2FA11BD62FD72FAB
:101FAC00DD2F023023020318DC2FDD2FCB2F23185B
:101FBC00E02FE12FE72FFF30A0057F30A105FF3088
:101FCC00A2050310A30C2308A500A601A70110303D
:101FDC00A535A60DA70D890BEE2F2508A004260804
:101FEC00A1042708A20424080319FD2FFE2FFF2F9C
:101FFC00A2170800003400340034003480343F341D
:10200C00F034FF34BE34E234A9343E3483347634B5
:10201C00BE34AE342B343E343C34C334BD34D234B1
:0A202C0013343D347834D334BB3450
:020000040001F9
:0A000E00EC3F3F3FAA3FFF3FFF3FDA
:00000001FF
