:020000040000FA
:1000000080313128080055347E1480314E01161E8F
:100010000A280B2813280C1E0E280F2813288931B4
:100020003C2180312F280B1F162817282F28191C38
:100030001A281B2823280F1C1E281F2823288B3131
:100040007F2380312F28171C262827282F280D1CB6
:100050002A282B282F288831C82080312F287E106D
:10006000090080313328803103208031FD00803049
:100070008400883085005F308600013087000A30B8
:10008000883137208031FC01423084000030850007
:1000900017308831312080314101EE01EF015430B9
:1000A0008400013085000B30883131208031A03050
:1000B00084000130850040308831312080317E104D
:1000C00040018331A92B41014808CE004908CF00E7
:1000D0004A08D00003104F0D500DD1005108D40034
:1000E0004B08CE004C08CF004D08D00003104F0D38
:1000F000500DD1005108D3005408031980288128DD
:1001000091285308540203188628872898285308F2
:10011000CE005408CE0219304E02031C90289128BC
:1001200098284B08C8004C08C9004D08CA0082290D
:10013000530803199C289D28AD285408530203181E
:10014000A228A328AE285408CE005308CE021930A6
:100150004E02031CAC28AD28AE2882290630CE0002
:100160004E08D200CA1FB528B628B728D217CD1F0F
:10017000BA28BB28BC285217C917FF30C805FF3062
:10018000C9050030CA05CC17FF30CB05FF30CC05C0
:100190000030CD05530854020318CF28D028F82882
:1001A0000130CB35CC0DCD0D890BD1280130D302D8
:1001B000530854060319DD28DE28F1280130D20245
:1001C00052080739031DE528E628D028F128013018
:1001D000CA36C90CC80C890BE8280130CE004E087D
:1001E000D40754085306031DF628F728E7282529C5
:1001F000540853020318FD28FE2825290130C8356C
:10020000C90DCA0D890BFF280130D40253085406CA
:1002100003190B290C291F290130D2025208073972
:10022000031D13291429FE281F290130CD36CC0CBB
:10023000CB0C890B16290130CE004E08D307540889
:100240005306031D242925291529D21F28292929C8
:100250003929FF30C806FF30C906FF30CA06013011
:10026000C807003003180130C907003003180130F7
:10027000CA07521F3C293D294D29FF30CB06FF30CC
:10028000CC06FF30CD060130CB070030031801301B
:10029000CC07003003180130CD07D2014808CB0746
:1002A0004908CC3D4A08CD3DCD1F572958296A2918
:1002B000FF30CB06FF30CC06FF30CD060130CB0738
:1002C000003003180130CC07003003180130CD078F
:1002D000D201D20A4B08A0004C08A1004D08A20090
:1002E0005408CE004E08A3005208CF004F08A400C7
:1002F0008F310927803141012008C8002108C90039
:100300002208CA00080040013008B6003108B700D2
:100310003208B8000310370D380DB9003908BC0099
:100320003308B6003408B7003508B8000310370D9D
:10033000380DB9003908BB003C080319A029A129D0
:10034000B1293B083C020318A629A729B8293B0874
:10035000B6003C08B60219303602031CB029B12998
:10036000B8293308B0003408B1003508B200A22A19
:100370003B080319BC29BD29CD293C083B020318C1
:10038000C229C329CE293C08B6003B08B602193061
:100390003602031CCC29CD29CE29A22A0630B6006C
:1003A0003608BA00B21FD529D629D729BA17B51FE2
:1003B000DA29DB29DC293A17B117FF30B005FF3005
:1003C000B1050030B205B417FF30B305FF30B405F6
:1003D0000030B5053B083C020318EF29F029182A24
:1003E0000130B335B40DB50D890BF1290130BB02D5
:1003F0003B083C060319FD29FE29112A0130BA02E7
:100400003A080739031D052A062AF029112A013066
:10041000B236B10CB00C890B082A0130B600360890
:10042000BC073C083B06031D162A172A072A452A43
:100430003C083B0203181D2A1E2A452A0130B0350C
:10044000B10DB20D890B1F2A0130BC023B083C06DE
:1004500003192B2A2C2A3F2A0130BA023A080739FD
:10046000031D332A342A1E2A3F2A0130B536B40C24
:10047000B30C890B362A0130B6003608BB073C089E
:100480003B06031D442A452A352ABA1F482A492A11
:10049000592AFF30B006FF30B106FF30B2060130F6
:1004A000B007003003180130B107003003180130E5
:1004B000B2073A1F5C2A5D2A6D2AFF30B306FF306F
:1004C000B406FF30B5060130B30700300318013021
:1004D000B407003003180130B507BA013008B3077C
:1004E0003108B43D3208B53DB51F772A782A8A2AEB
:1004F000FF30B306FF30B406FF30B5060130B30756
:10050000003003180130B407003003180130B5077C
:10051000BA01BA0A3308F0003408F1003508F200D5
:100520003C08B6003608F3003A08B7003708F40074
:100530008E319526813170084001B0007108B100FC
:100540007208B200080000304101A800C830A900BC
:100550004330AA00420154084101AB004201550852
:100560004101AC00420156084101AD008631B72679
:100570008231410128084201A600410129084201B7
:10058000A70041012A084201A800E7304101A80064
:10059000DB30A9002F30AA00420126084101AB0040
:1005A000420127084101AC00420128084101AD0089
:1005B0008631B726823141012808E5002908E60086
:1005C0002A08E7008A315722823141016508420139
:1005D000A900410166084201AA00410167084201E1
:1005E000AB0000304101B8002030B9004130BA0002
:1005F000420129084101BB0042012A084101BC0017
:1006000042012B084101BD00843183248231410124
:1006100038084201AF00410139084201B0004101F0
:100620003A084201B10000304101A000D430A100DD
:100630004230A20042012F084101A30042013008CC
:100640004101A400420131084101A5008B3108237A
:10065000823103182C2B2D2B342B00304201AF009C
:10066000D430B0004230B10042012F084101BB003C
:10067000420130084101BC00420131084101BD0086
:100680000030B8001630B9004430BA0084318324F9
:100690008231410138084201A0004101390842017C
:1006A000A10041013A084201A2008E312326823185
:1006B00042012008AC002108AD002208AE002C0841
:1006C0004101C80042012D084101C90042012E0824
:1006D0004101CA008731692782314101490842013D
:1006E000B300410148084201B20033084101ED0066
:1006F0006D084001CF00420132084101ED006D0854
:100700004001D000420158080319872B882B8C2BFD
:100710008831BA2082319F2B33086A02031D922B45
:10072000320869020318952B962B9E2B5708031D40
:100730009A2B9B2B9F2BD701D70A882BD7014201DD
:100740005803031DA42BA52BA82B9731FD2782311D
:10075000080054308931C2218331420160088A0087
:100760005F080A00833104305F3E86000130870055
:10077000413F8A00403F0A0083315C304201B800AB
:1007800038084101A0005E304201B900390841013A
:10079000A10006305F3E860001308700413F8A009D
:1007A000403F0A00833142015E08B8003808410129
:1007B000A0005C308A31D72283319731F72783310B
:1007C000003A0319E42BE52BB32B52308831A020DB
:1007D0008331682CAA30B8003808CF004101A0014D
:1007E000A00A4F308A31D7228331B32BD001D00AEF
:1007F0004101A001A00A50308A31D7228331B32BA6
:10080000D101D10A4101A001A00A51308A31D72279
:100810008331B32B02305F3E860001308700413FB9
:100820008A00403F0A008431B32B1430B8003808E6
:10083000CE00232C0B304201B8006230890B1E2CF5
:10084000B80B1E2C000088315B208331003A031D59
:100850002A2C2B2C802C01304201CE024E0A031D83
:10086000322C332C1A2CB32B8831AD208331B32B8F
:1008700015304201B800C630890B3C2CB80B3C2C1B
:10088000000053304201B80038084101A0003A305E
:1008900089319F218331063042015306031D512CBB
:1008A000522C802C3A08B80038084101A0003B3097
:1008B0004201B90039084101A10008305F3E8600BD
:1008C00001308700413F8A00403F0A008431B32B4A
:1008D00042015208103A0319EA2B013A0319F62B88
:1008E000023A03190A2C073A0319152C013A031985
:1008F000342C363A0319002C073A0319382C802C73
:10090000B32B8031312841013808BE003908BF00BF
:100910003A08C00003103F0D400DC1004108C2005D
:100920004208031D942C952C9C2C0030B8000030FC
:10093000B9000030BA00432D3B08BE003C08BF00A0
:100940003D08C00003103F0D400DC1004108C70025
:100950004708031DAC2CAD2CB42C0030B80000307F
:10096000B9000030BA00432D47087B3EBE003E0868
:10097000C2073808BE003908BF003A08C00010306E
:10098000C036BF0CBE0C890BC02C3E08C10041080C
:10099000C7003B08BE003C08BF003D08C000103047
:1009A000C036BF0CBE0C890BD02C3E08C1004108DC
:1009B000C7068030BE003E08C705B917BC17FF3018
:1009C000BB05FF30BC050030BD050030C300003062
:1009D000C4000030C5000730BE003E08C600381C09
:1009E000F22CF32CF92C3B08C3073C08C43D3D080E
:1009F000C53D0130BA36B90CB80C890BFA2C013060
:100A0000BB35BC0DBD0D890B002D0130C602031D89
:100A10000A2D0B2DEF2C0930BE003E08C600381CF5
:100A2000122D132D192D3B08C3073C08C43D3D086A
:100A3000C53D0130BA36B90CB80C890B1A2D0130FE
:100A4000C536C40CC30C890B202D0130C602031D12
:100A50002A2D2B2D0F2D4308A0004408A100450886
:100A6000A2004208BE003E08A3004708BF003F089E
:100A7000A4008F310927843141012008B8002108E2
:100A8000B9002208BA00080040012008A600210889
:100A9000A7002208A8000310270D280DA900290887
:100AA000AA002A08031D552D562D5D2D0030A000EB
:100AB0000030A1000030A200042E2308A600240864
:100AC000A7002508A8000310270D280DA900290854
:100AD000AF002F08031D6D2D6E2D752D0030A00069
:100AE0000030A1000030A200042E2F087B3EA6009B
:100AF0002608AA072008A6002108A7002208A800A7
:100B00001030A836A70CA60C890B812D2608A90049
:100B10002908AF002308A6002408A7002508A8007C
:100B20001030A836A70CA60C890B912D2608A90019
:100B30002908AF068030A6002608AF05A117A41724
:100B4000FF30A305FF30A4050030A5050030AB0041
:100B50000030AC000030AD000730A6002608AE0023
:100B6000201CB32DB42DBA2D2308AB072408AC3DAF
:100B70002508AD3D0130A236A10CA00C890BBB2D80
:100B80000130A335A40DA50D890BC12D0130AE0296
:100B9000031DCB2DCC2DB02D0930A6002608AE00AC
:100BA000201CD32DD42DDA2D2308AB072408AC3D0F
:100BB0002508AD3D0130A236A10CA00C890BDB2D20
:100BC0000130AD36AC0CAB0C890BE12D0130AE021F
:100BD000031DEB2DEC2DD02D2B08F0002C08F1007F
:100BE0002D08F2002A08A6002608F3002F08A70007
:100BF0002708F4008E319526853170084001A00049
:100C00007108A1007208A200080041015F08A0005D
:100C10006008A1006108A2000030A3000030A40019
:100C20000030A5008B31082386310318182E192EA9
:100C3000252E21304101EE000030EF000030DF00B2
:100C40000030E0000030E100B62E41016108600490
:100C50005F04031D2C2E2D2E382E2230EE00003086
:100C6000EF000030DF000030E0000030E100B62E81
:100C70000030C8008030C900BF30CA000030B80062
:100C80000030B9004030BA00E330E2006208A3004F
:100C90005F08A0006008A1006108A2008B31412319
:100CA000863141012008BB002108BC002208BD009C
:100CB00084318324863141013808CB003908CC00C7
:100CC0003A08CD0080316320863141014808DF00B9
:100CD0004908E0004A08E100FF30E307FF30E43D47
:100CE0005F08D5006008D6006108D7000030D80042
:100CF0009030D9000830DA000030DB008C31EA2473
:100D0000863141015508DF005608E0005708E10030
:100D10005F08C8006008C9006108CA007230B800E6
:100D20003130B9003F30BA006408A9006308A80058
:100D30008931E521863141012808BB002908BC0022
:100D40002A08BD0084318324863141013808CB0054
:100D50003908CC003A08CD0080316320863141014A
:100D60004808DF004908E0004A08E10008004101A6
:100D70002B08AE002C08AF002D08B00003102F0D7B
:100D8000300DB1003108B6003608031DC82EC92E3B
:100D9000D02E0030A8000030A9000030AA00682F33
:100DA0002808AE002908AF002A08B00003102F0D54
:100DB000300DB1003108B7003708031DE02EE12ED9
:100DC000E82E0030A8000030A9000030AA00682FEB
:100DD0000030B3000030B4000030B5008930370770
:100DE000AE002E08B6022B08AE002C08AF002D086E
:100DF000B0001030B036AF0CAE0C890BFA2E2E08B6
:100E0000B1003108B7002808AE002908AF002A0851
:100E1000B0001030B036AF0CAE0C890B0A2F2E0884
:100E2000B1003108B7068030AE002E08B705AC1708
:100E3000FF30AB05FF30AC050030AD05A917FF3022
:100E4000A805FF30A9050030AA051830AE002E080D
:100E5000B2000130B335B40DB50D890B2A2F2A0825
:100E60002D02031D392F29082C02031D392F2808B4
:100E70002B02031C3C2F3D2F442F2808AB022908CE
:100E8000AC3B2A08AD3B33140130AB35AC0DAD0D96
:100E9000890B452F0130B202031D4F2F502F292FF0
:100EA0003308A0003408A1003508A2003608AE00BF
:100EB0002E08A3003708AF002F08A4008F310927A0
:100EC000863141012008A8002108A9002208AA00B3
:100ED000080041014808CC004908CD004A08CE006E
:100EE00003104D0D4E0DCF004F08D5005508031DC2
:100EF0007A2F7B2F842F0030CB000030CA000030C7
:100F0000C9000030C800ED2F4808CC004908CD00CA
:100F10004A08CE001730CE36CD0CCC0C890B8B2F67
:100F20004C08CF004F08D000C917FF30C805FF306C
:100F3000C9050030CA054808D1004908D2004A084E
:100F4000D300D4018E30D502D51FA72FA82FC02FD4
:100F50005508803A8F3E0318AE2FAF2FB02F7B2F4E
:100F60000130D436D30CD20CD10C890BB12F013007
:100F7000CC004C08D507031DBE2FBF2FB02FD52F97
:100F800018305502031CC52FC62FD02F7B2F0130E0
:100F9000D135D20DD30DD40D890BC82F0130D50218
:100FA0005508031DD42FD52FC72F50080319D92F4B
:100FB000DA2FE52FD109D209D309D409D10A0319AF
:100FC000D20A0319D30A0319D40A5408CB005308D0
:100FD000CA005208C9005108C8000800400145086D
:100FE00046040319F42FF52FFA2F46088A00450806
:100FF0000A0087317E0155130800420111100800D4
:101004004001191708004201111708004201111389
:101014000800400194139A1708004201D801D80A25
:10102400080041011E08F1001D08F00008006030AE
:1010340051018D000630930008007E014E124001DC
:1010440014121A1208007E01CE11400194119A1153
:1010540008007E014E10400114101A1008006400AC
:1010640080010131890B32280034FE0012001E0079
:10107400FE0B3828003451018C130000630000007B
:10108400000008008731FD27883188310820883125
:1010940008004101A00020089F004201911711148B
:1010A4000800883105208831113088314B2088317F
:1010B400080040015408031D602862280130632899
:1010C40000300800410121084001CE004101200800
:1010D4004001CD000800410121084001C600410142
:1010E40020084001C5000800000042015A08031D01
:1010F4007C287D287F28DB01DB0A08007E340F343E
:101104000F3408340A340A34FE340834AA340A3456
:101114007E014313400113139731FD2788318D312C
:10112400B525883108007E014E11400114111A11B1
:101134007E01431240011312191208004101A1005B
:101144007C08A00021088600013087002008810067
:101154004001D7010800031040019A1F031403182B
:10116400B428B72840019A17B92840019A130800F7
:1011740040019A1334304101A000F130890BC0289A
:10118400A00BC028003240019A1708004E010D1030
:1011940040014D084E040319D028D128D6284E0802
:1011A4008A004D080A0088310800FF304F0196007C
:1011B4009613FF309700FF309800FF309900FF30FE
:1011C4009A00FF309B00FF309C00FF309D00080018
:1011D4007808F0007908F100F2018E30FB007B08FA
:1011E400F300F4018E31952688317008F8007108F7
:1011F400F9007208FA00080002304101A200210837
:101204008600013087002208810040014F08410117
:10121400A2002008860001308700220881004001D6
:1012240050084101A200200A8600013087002208EC
:10123400810008004101A401A501201C22292329C1
:1012440027292208A4072308A53D0130A235A30DB0
:10125400890B28290130A136A00C890B2D292008DF
:101264002104031D362937291F292508A100240834
:10127400A00008007E01551C4029412944299731CA
:10128400EE2789317E01551D482949294C2997317A
:10129400F12789317E01551E50295129542997314E
:1012A400F42789317E01551F582959295C29873132
:1012B400EE27893108004101A200752940019A11E5
:1012C4007D2905304101A1000F30A000F130890BC8
:1012D4006929A00B6929A10B692940019A157D2967
:1012E40040019A117D292208013A03196029033A21
:1012F4000319632972290800410169086804670415
:1013040003198529862988298030E9066A08C800D6
:101314006B08C9006C08CA006708CB006808CC00D9
:101324006908CD0080316320893141014808E70014
:101334004908E8004A08E90008004101A20022081F
:10134400860001308700B629C03084000130850052
:10135400400156084101A10021080319B7291200D0
:101364001E00A10BB129B729A62940015608410145
:10137400A1002008860001308700210881000800B0
:101384004101A1008831D720893188311920893160
:10139400500192147E01B801C301CE01CE14400164
:1013A4009201930194019414FF309800FF30990046
:1013B400FF309A009A10410121088A317F22893135
:1013C4008B170B1708004101AD01A91FEA29EB296E
:1013D400F229A809A909A80A0319A90AAD01AD0AA5
:1013E4002808A0002908A100A2018E30AB002B0818
:1013F400A3002D08AC002C08A4008F3109278931E3
:1014040041012008A8002108A9002208AA00080018
:1014140042015808031D0F2A102A152A5B080319D4
:10142400142A152A2B2ADA01DA0A8C3147248A3144
:101434004201D801DA01DB0105304201B7000F3067
:10144400B600F130890B242AB60B242AB70B242AC0
:101454002E2A88313D208A3108004F01991241011A
:101464008C018D018E018F019201930198019A01E3
:101474009F0142018C018D018E018F019001920127
:10148400930194019501960197013F3098008430AF
:1014940091004E010D10171402304101A0000030DC
:1014A400A100883164208A31080041016508DF0009
:1014B4006608E0006708E100863105268A314101AB
:1014C4005F08E8006008E9006108EA005C30B800E1
:1014D400DE30B9003E30BA006808BB006908BC00C1
:1014E4006A08BD00843183248A3141013808E5004B
:1014F4003908E6003A08E70008004101A0004F015E
:101504001C107E01C312C3134001931693170F30AE
:101514007D01C50013307E019F0014309D000D3005
:101524007D01C60043018F012630900001309100F7
:1015340092011214FE308E004101203543018D00CA
:101544004E010F1019144001D401D601D70108002F
:1015540041012008031DAF2AB02AD62A210886009B
:10156400013087000108A20022084001D90041018E
:101574002108043E8600013087000108A200A3016F
:101584002108033E8600013087000108A400A5015C
:101594002408A500A401220824044201E900410111
:1015A400230825044201EA0008004101A300F22AAD
:1015B400540841012307A100210886000130870057
:1015C4000108A20040015408A03E860001308700B3
:1015D4004101220881000130A10021084001D40703
:1015E40041012008400154020318F92AFA2A002B69
:1015F40020305402031CFF2A002BDA2A540841012C
:10160400A10021084001D500D40108004101A21F16
:101614000C2B0D2B1A2B2008003CA0002108031CC6
:10162400210F003CA1002208031C220F803CA200D1
:10163400A51F1D2B1E2B2B2B2308003CA3002408C5
:10164400031C240F003CA4002508031C250F803C28
:10165400A5008030A2068030A50625082202031DBD
:10166400392B24082102031D392B230820020318D7
:101674003C2B3D2B3F2B0310402B0314080041014E
:10168400220821042004031D482B492B562B230830
:10169400860087010030C03FC13F0030A000003009
:1016A400A1000030A2007E2B22087F39A400A501EE
:1016B400A435A50D2308860087012408C03F25080A
:1016C400C13F210D210D0139A400A5012308860085
:1016D40087012408810441312508810423088600F8
:1016E4008701823081074131FF30813D7F312208FB
:1016F40080393F38A200A11308004E0119100F10C1
:1017040043010C08F2007208F3000F1D8A2B8B2B87
:101714009F2B8F1E8E2B8F2B982B111F922B932B6D
:10172400982B03308C3196248B31B72B01308C31BC
:1017340096248B3143011016B72B8F1AA22BA32B9F
:10174400A82B00308C3196248B31B72B7308F20010
:101754007208FD0002308C3196248B31430110163F
:101764004E010F1CB62BB72BB22B4E010F104301A9
:1017740010164E01191408004101DD018E30DA0003
:101784005A08DC00D91FC72BC82BE12BD609D7096F
:10179400D809D909D60A0319D70A0319D80A03198B
:1017A400D90ADD01DD0AE12B0130D936D80CD70C7A
:1017B400D60C890BD72B0130DA005A08DC07FF302E
:1017C4005905031DE62BE72BD62B5608A000570816
:1017D400A1005808A2005C08DA005A08A3005D08BA
:1017E400DB005B08A4008F3109278B3141012008FD
:1017F400D6002108D7002208D800080041015E085D
:10180400A0005F08A1006008A200E530E1006108C3
:10181400A3008B3141238C314101E61F122C132C80
:101824001A2C0030DE000030DF000030E000462CCF
:1018340000306602153003196502031C222C232C88
:10184400242C462C5E08C8005F08C9006008CA0042
:10185400873169278C3141014B08D9004A08D800E7
:101864004908D7004808D6008B31BE238C3141018A
:101874005608E2005708E3005808E4006208DE0056
:101884006308DF006408E0000800883102208C311E
:1018940005304201B5000F30B400F130890B502CF3
:1018A400B40B502CB50B502C013089315D218C3197
:1018B40040011A16191605304201B5000F30B40064
:1018C400F130890B632CB40B632CB50B632C4201F0
:1018D400D901D90A4001D101D20100304201D4001A
:1018E4000030D5000030D600883153208C314201BD
:1018F4005908031D7E2C7F2C792C883144208C318F
:101904008231A3228C3142015B0803198A2C8B2C6F
:10191400922C40011A121912023089315D218C3146
:101924009731FD278C310800F100DB2C4001D301F5
:10193400D30AE92C7D08F0007008FC00D601D70119
:10194400D70AC12C213056020318A92CAA2CC12C69
:101954007D08F0005608C03E8600013087007008FC
:1019640081000130F0007008D607C12C40015308F3
:10197400003A0319A42C013A03199C2CA42CD3017A
:10198400E92C4001550854020318C92CCA2CD82C40
:101994005408A03E860001308700010843018C00F2
:1019A4000130F00070084001D407E92C43018C0198
:1019B400E92C7108003A0319982C013A0319C32C35
:1019C400033A0319B82C013A0319E92CE92C08004D
:1019D40041015B08A1005A08A0000330A2000030B6
:1019E400A30089311C218C3141015808200784004F
:1019F4005908213D8500003FDC00013FDD00023F26
:101A0400DE00402DFF30DA07FF30DB3D5B08A1002C
:101A14005A08A0000330A2000030A30089311C2121
:101A24008C3141015808200784005908213D850064
:101A3400003FC800013FC900023FCA005C08B8006B
:101A44005D08B9005E08BA005508BB005608BC0022
:101A54005708BD00843183248C3141013808CB0000
:101A64003908CC003A08CD00803163208C31410123
:101A74004808DC004908DD004A08DE005A085B0417
:101A8400031D452D462D042D5C08D5005D08D600A8
:101A94005E08D7000800883113208D317108400199
:101AA400BE007008BD004208A0004308A10044081D
:101AB400A2003E08F9003D08F8008831EA208D3183
:101AC40078084001A3007908A4007A08A5008531AC
:101AD40044258D3140012008BF002108C0002208A0
:101AE400C100420154084001B000420155084001C0
:101AF400B100420156084001B2003F08A00040086E
:101B0400A1004108A2003F08A3004008A400410826
:101B1400A500853144258D3140012008B3002108FA
:101B2400B4002208B500813183218D314001300891
:101B34004201D400400131084201D500400132087D
:101B44004201D60001304001D1070030D23D0130BE
:101B54005202903003195102031CB12DB22DB42D41
:101B64004201D9010800883102208D31053041013C
:101B7400A1000F30A000F130890BBE2DA00BBE2DAB
:101B8400A10BBE2D9731FD278D3105304101A100F8
:101B94000F30A000F130890BCD2DA00BCD2DA10B62
:101BA400CD2D883102208D3105304101A1000F3047
:101BB400A000F130890BDC2DA00BDC2DA10BDC2D5A
:101BC4009731FD278D3115304101A1004B30A00024
:101BD400BE30890BEB2DA00BEB2DA10BEB2D0000E0
:101BE400883102208D3105304101A1000F30A00061
:101BF400F130890BFB2DA00BFB2DA10BFB2D973195
:101C0400FD278D3105304101A1000F30A000F130D6
:101C1400890B0A2EA00B0A2EA10B0A2E8831022052
:101C24008D3105304101A1000F30A000F130890B46
:101C3400192EA00B192EA10B192E9731FD278D31CA
:101C44000800420120084101DE004201210841014F
:101C5400DF00420122084101E0008C3100248E3172
:101C640041015E08E7005F08E8006008E9004201FE
:101C740020084101EA00420121084101EB00420130
:101C840022084101EC0089317E218E31410167082F
:101C94004201A300410168084201A400410169080E
:101CA4004201A50023084101C80042012408410162
:101CB400C900420125084101CA004201200841012E
:101CC400CB00420121084101CC004201220841011C
:101CD400CD00803163208E31410148084201A000CB
:101CE400410149084201A10041014A084201A20000
:101CF40020084101DE00420121084101DF004201C8
:101D040022084101E0008C3100248E3141015E083B
:101D14004201A00041015F084201A10041016008A5
:101D24004201A200080073080319992E9A2EA12ECD
:101D3400720871047004031DA02EA12EB22E00306F
:101D4400F0000030F1000030F200082F0130F500FF
:101D54007508F3070130F236F10CF00C890BAD2E47
:101D6400FE307205031DB72EB82EA82ECD2E0130DD
:101D7400F5007508F3070130F0070030031801304F
:101D8400F107003003180130F2070130F236F10C8C
:101D9400F00C890BC82EFF307205031DD22ED32EF2
:101DA400B92EDC2E0130F3020130F035F10DF20DC5
:101DB400890BD72EF11BDF2EE02EE62E02307302A4
:101DC4000318E52EE62ED42E7318E92EEA2EF02EF3
:101DD400FF30F0057F30F105FF30F2050310F30CFE
:101DE4007308F500F601F7011030F535F60DF70D1F
:101DF400890BF72E7508F0047608F1047708F204CD
:101E040074080319062F072F082FF2170800410141
:101E1400230803190E2F0F2F162F22082104200444
:101E2400031D152F162F272F0030A0000030A1000E
:101E34000030A2007D2F0130A5002508A307013042
:101E4400A236A10CA00C890B222FFE302205031D03
:101E54002C2F2D2F1D2F422F0130A5002508A3075D
:101E64000130A007003003180130A1070030031827
:101E74000130A2070130A236A10CA00C890B3D2F22
:101E8400FF302205031D472F482F2E2F512F0130DD
:101E9400A3020130A035A10DA20D890B4C2FA11B6B
:101EA400542F552F5B2F0230230203185A2F5B2F18
:101EB400492F23185E2F5F2F652FFF30A0057F3039
:101EC400A105FF30A2050310A30C2308A500A60159
:101ED400A7011030A535A60DA70D890B6C2F250879
:101EE400A0042608A1042708A204240803197B2FB0
:101EF4007C2F7D2FA217080088318A208F314F0153
:101F0400161088312B208F3140011A1405304101FD
:101F1400A4000F30A300F130890B8E2FA30B8E2F5A
:101F2400A40B8E2F05304101A4000F30A300F13023
:101F3400890B9A2FA30B9A2FA40B9A2F8831252053
:101F44008F3105304101A4000F30A300F130890B1B
:101F5400A92FA30BA92FA40BA92F88310B208F31F4
:101F64009731FA278F3188311F208F31883195209E
:101F74008F3129304101A4009630A3007F30890BB2
:101F8400C12FA30BC12FA40BC12F023089315D21B6
:101F94008F3129304101A4009630A3007F30890B92
:101FA400D12FA30BD12FA40BD12F4E0116167E01D6
:101FB40055135413531776304101A0000830A10083
:101FC40088316D208F31AF304001C200BE30C30074
:101FD4003A30C4008A312F228F314D304101A000A4
:101FE4000D30A100883164208F314001D901D90A14
:101FF400C0304201E9005D30EA00080000340034DA
:102004000034003480343F34F034FF34BE34E234DE
:10201400A9343E3483347634BE34AE342B343E3467
:102024003C34C334BD34D23413343D347834D334E3
:02203400BB34BB
:102FDC007E01551008007E01551108007E01551226
:102FEC000800400157080800400114170800400170
:042FFC00191308009D
:020000040001F9
:0A000E00EC3F3F3FAA3FFF3FFF3FDA
:00000001FF
