:020000040000FA
:1000000080313128790808007E1480314E01161E97
:100010000A280B2813280C1E0E280F2813288A31B3
:100020003C2280312F280B1F162817282F28191C37
:100030001A281B2823280F1C1E281F2823288C3130
:10004000832480312F28171C262827282F280D1CB1
:100050002A282B282F288931A82180312F287E108B
:100060000900803133288831C2208031FB004930BB
:100070008400893085004B308600013087000030D5
:10008000FF000A30893181218031D0308400243052
:1000900085002030FE000330FF008931752180315A
:1000A000F601F701F801F901FA01C23084000030CD
:1000B00085001530FE000030FF0089317521803148
:1000C00020308400013085002B30FE000030FF001E
:1000D000893175218031A0308400013085002030C5
:1000E000FE000030FF008931752180317E10400113
:1000F0008331DC2B00304101A7000030A600003026
:10010000A5000030A4000030BD000030BE0000306B
:10011000BF00B901BA0141013A08A1003908A000A5
:10012000A035A10DD030A2002430A3002008220762
:1001300086002108233D8700403F4001A800413F41
:10014000A9008931EB21803140012808AE0029083F
:10015000AF002A08B00041013D084001B100410153
:100160003E084001B20041013F084001B300823126
:10017000BC22803140012E084101BD0040012F0802
:100180004101BE00400130084101BF000130B90704
:100190000030BA3D3A08803AA00081302002031DA9
:1001A000D32890303902031CD628D7288B2800305A
:1001B0004001A800C830A9004330AA0041013D0811
:1001C0004001AB0041013E084001AC0041013F0845
:1001D0004001AD00873100278031400128084101EE
:1001E000BD00400129084101BE0040012A0841012B
:1001F000BF00BB01BC01420120084001C500420113
:1002000021084001C600420122084001C700410107
:100210003D084001BF0041013E084001C0004101CE
:100220003F084001C10041013C08A1003B08A0007B
:10023000A035A10DD030A2002430A3002008220751
:1002400086002108233D8700403F4001A800413F30
:10025000A9008931EB21803140012808C20029081A
:10026000C3002A08C4008A317E22803140013F0841
:10027000C8004008C9004108CA0085318A2580317C
:10028000400145084101B600400146084101B70060
:10029000400147084101B80036084001C50041014E
:1002A00037084001C600410138084001C70041013C
:1002B00036084001C800410137084001C90041012A
:1002C00038084001CA0085318A258031400145083F
:1002D0004101B600400146084101B700400147080E
:1002E0004101B80036084001AE0041013708400125
:1002F000AF00410138084001B0004101420840010F
:10030000B100410143084001B200410144084001ED
:10031000B3008231BC22803140012E084101C2006D
:1003200040012F084101C300400130084101C400D1
:100330000130BB070030BC3D3C08803AA000813052
:100340002002031DA52990303B02031CA829A929DE
:10035000FB2800304001A800C830A9004330AA00A3
:10036000410142084001AB00410143084001AC009B
:10037000410144084001AD00873100278031400130
:1003800028084101AE00400129084101AF004001A9
:100390002A084101B000E7304001A800DB30A90085
:1003A0002F30AA0041012E084001AB0041012F0867
:1003B0004001AC00410130084001AD008731002709
:1003C000803140012A08290428040319E829E92971
:1003D000372AE730A800DB30A9002F30AA004101FE
:1003E0002E084001AB0041012F084001AC00410143
:1003F00030084001AD0087310027803140012808D6
:10040000E5002908E6002A08E7008B313223803115
:10041000400165084101A800400166084101A900AA
:10042000400167084101AA0000304001C5002030AA
:10043000C6004130C700410128084001C800410101
:1004400029084001C90041012A084001CA0085313C
:100450008A258031400145084101B300400146082A
:100460004101B400400147084101B5003E2A003077
:100470004101B3000030B4000030B500003040014D
:10048000A000D430A1004230A20041013308400155
:10049000A300410134084001A40041013508400196
:1004A000A5008C310C2480310318572A582A5F2A62
:1004B00000304101B300D430B4004230B5004101F6
:1004C00033084001C800410134084001C90041011E
:1004D00035084001CA000030C5001630C60044305F
:1004E000C70085318A25803140014508D50046087E
:1004F000D6004708D7008731B22780314001550820
:100500004101AB00400156084101AC0040015708D1
:100510004101AD002B084001A00041012C08400121
:10052000A10041012D084001A2008F317B278031BD
:10053000400121084101B200400120084101B10001
:100540003208A0002008C9003108A0002008CA0015
:10055000320842015602031DB12A4101310842010D
:1005600055020318B42AB52AB92A4101CE01CE0A90
:10057000BB2A4101CE01080040012E08B4002F081B
:10058000B5003008B6000310350D360DB70037083A
:10059000BA003108B4003208B5003308B6000310C1
:1005A000350D360DB7003708B9003A080319D92AB6
:1005B000DA2AEA2A39083A020318DF2AE02AF12A5D
:1005C0003908B4003A08B40219303402031CE92A8D
:1005D000EA2AF12A3108AE003208AF003308B00031
:1005E000DB2B39080319F52AF62A062B3A083902BB
:1005F0000318FB2AFC2A072B3A08B4003908B40276
:1006000019303402031C052B062B072BDB2B06307D
:10061000B4003408B800B01F0E2B0F2B102BB817E6
:10062000B31F132B142B152B3817AF17FF30AE0544
:10063000FF30AF050030B005B217FF30B105FF3015
:10064000B2050030B30539083A020318282B292BCC
:10065000512B0130B135B20DB30D890B2A2B01306E
:10066000B90239083A060319362B372B4A2B0130C9
:10067000B80238080739031D3E2B3F2B292B4A2B84
:100680000130B036AF0CAE0C890B412B0130B400F9
:100690003408BA073A083906031D4F2B502B402B5C
:1006A0007E2B3A0839020318562B572B7E2B01302C
:1006B000AE35AF0DB00D890B582B0130BA02390899
:1006C0003A060319642B652B782B0130B8023808E1
:1006D0000739031D6C2B6D2B572B782B0130B3364C
:1006E000B20CB10C890B6F2B0130B4003408B90780
:1006F0003A083906031D7D2B7E2B6E2BB81F812BEC
:10070000822B922BFF30AE06FF30AF06FF30B006D3
:100710000130AE07003003180130AF070030031876
:100720000130B007381F952B962BA62BFF30B10652
:10073000FF30B206FF30B3060130B10700300318B6
:100740000130B207003003180130B307B8012E089A
:10075000B1072F08B23D3008B33DB31FB02BB12B0A
:10076000C32BFF30B106FF30B206FF30B3060130B5
:10077000B107003003180130B20700300318013010
:10078000B307B801B80A3108A0003208A100330845
:10079000A2003A08B4003408A3003808B5003508B0
:1007A000A4008F310627823140012008AE002108C5
:1007B000AF002208B000080054308A319F228331F4
:1007C00042014C088A004B080A00833104304B3E3A
:1007D000860001308700413F8A00403F0A00833194
:1007E000D4304101C00040084001A000D630410192
:1007F000C10041084001A10006304B3E8600013097
:100800008700413F8A00403F0A008431D4304001D4
:10081000A0000030A10041015608C000400840017E
:10082000A2008B315A238331803102208331003A78
:1008300003191B2C1C2CE62BD830893169218331FC
:10084000AD2CAA304101C00040084301D500D5308D
:100850004001A0000130A100A201A20A8B315A235D
:100860008331E62BD601D60AD6304001A0000130F4
:10087000A100A201A20A8B315A238331E62BD701B2
:10088000D70AD7304001A0000130A100A201A20A7E
:100890008B315A238331E62B02304B3E86000130E8
:1008A0008700413F8A00403F0A008431E62B143024
:1008B0004101C00040084301D400672C0B304101C6
:1008C000C0006230890B622CC00B622C00008931A1
:1008D00014218331003A031D6E2C6F2CC52C01307E
:1008E0004301D402540A031D762C772C5E2CE62B90
:1008F00089318D218331E62B15304101C000C6308E
:10090000890B802CC00B802C0000D9304101C00025
:1009100040084001A000C0308A315D22833106309A
:1009200043015906031D952C962CC52C4008410106
:10093000C00040084001A100C1304101C100410890
:100940004001A20008304B3E860001308700413F45
:100950008A00403F0A008431E62B43015808103AD0
:100960000319212C013A0319322C023A03194C2C99
:10097000073A0319572C013A0319782C363A031910
:100980003F2C073A03197C2CC52CE62B80313128EB
:1009900041014F080319CD2CCE2C152D50010C18F8
:1009A000D22CD32C152D410157080319D82CD92C42
:1009B000EA2CD201D20A8B31D92384314101D201F0
:1009C00089319A21843102308931C6218431410133
:1009D000CF01892D5708031DEE2CEF2C892D4001E6
:1009E0001A140B304001EC006230890BF52CEC0B33
:1009F000F52C00004101D201D20A8B31D923843178
:100A00004101D20189319A21843140011A100B3001
:100A10004001EC006230890B0B2DEC0B0B2D00001C
:100A200001308931C6218431E72C41014F08031977
:100A30001A2D1B2D3D2D50010C1C1F2D202D3D2D41
:100A400040011A140B304001EC006230890B262D56
:100A5000EC0B262D00004101D201D20A8B31D923A3
:100A600084314101D20189319A21843102308931A6
:100A7000C621843150010C10E72C410153080319A1
:100A8000422D432D702DD201D20A8B31D9238431CE
:100A90004101D2014E0803194E2D4F2D5C2D6400EB
:100AA00050010C1489319A21843140011A1001300F
:100AB0008931C62184316D2D01308931C6218431BF
:100AC00068304001EC00E430890B642DEC0B642DA0
:100AD000000002308931C62184314101D301892DC2
:100AE0004001031A742D752D862D50010C10400104
:100AF0001A140B304001EC006230890B7D2DEC0B99
:100B00007D2D000002308931C621843189310D21CB
:100B10008431080040014508CB004608CC00470856
:100B2000CD0003104C0D4D0DCE004E08CF004F08E8
:100B3000031D9B2D9C2DA32D0030C5000030C60049
:100B40000030C7004A2E4808CB004908CC004A08AC
:100B5000CD0003104C0D4D0DCE004E08D4005408AE
:100B6000031DB32DB42DBB2D0030C5000030C600D1
:100B70000030C7004A2E54087B3ECB004B08CF07FD
:100B80004508CB004608CC004708CD001030CD36D4
:100B9000CC0CCB0C890BC72D4B08CE004E08D400D3
:100BA0004808CB004908CC004A08CD001030CD36AB
:100BB000CC0CCB0C890BD72D4B08CE004E08D4069D
:100BC0008030CB004B08D405C617C917FF30C805C5
:100BD000FF30C9050030CA050030D0000030D10018
:100BE0000030D2000730CB004B08D300451CF92D54
:100BF000FA2D002E4808D0074908D13D4A08D23DB9
:100C00000130C736C60CC50C890B012E0130C83522
:100C1000C90DCA0D890B072E0130D302031D112EF9
:100C2000122EF62D0930CB004B08D300451C192E8F
:100C30001A2E202E4808D0074908D13D4A08D23D37
:100C40000130C736C60CC50C890B212E0130D236B7
:100C5000D10CD00C890B272E0130D302031D312E6D
:100C6000322E162E5008A0005108A1005208A200F2
:100C70004F08CB004B08A3005408CC004C08A4003C
:100C80008F310627853140012008C5002108C600A4
:100C90002208C700080040015F08A0006008A1000A
:100CA0006108A2000030A3000030A4000030A500BD
:100CB0008C310C24863103185E2E5F2E6C2E213071
:100CC0004201A3000030A40000304001DF000030EA
:100CD000E0000030E100FF2E4001610860045F0485
:100CE000031D732E742E812E22304201A30000308A
:100CF000A40000304001DF000030E0000030E100DF
:100D0000FF2E0030AE008030AF00BF30B0000030AA
:100D1000C5000030C6004030C7006330E200620802
:100D2000A3005F08A0006008A1006108A2008C3148
:100D30004524863140012008C8002108C900220846
:100D4000CA0085318A25863140014508B100460830
:100D5000B2004708B3008231BC22863140012E0820
:100D6000DF002F08E0003008E100FF30E307FF302C
:100D7000E43D5F08D5006008D6006108D700003068
:100D8000D8009030D9000830DA000030DB008E3116
:100D90003526863140015508DF005608E000570827
:100DA000E1005F08AE006008AF006108B00072307B
:100DB000C5003130C6003F30C7006408A900630891
:100DC000A8008A31E522863140012808C800290898
:100DD000C9002A08CA0085318A25863140014508A4
:100DE000B1004608B2004708B3008231BC22863108
:100DF00040012E08DF002F08E0003008E100080065
:100E000040012B08AE002C08AF002D08B0000310E5
:100E10002F0D300DB1003108B3003308031D112F21
:100E2000122F192F0030A8000030A9000030AA00AE
:100E3000B12F2808AE002908AF002A08B00003101F
:100E40002F0D300DB1003108B7003708031D292FD1
:100E50002A2F312F0030A8000030A9000030AA004E
:100E6000B12F0030B4000030B5000030B60089303A
:100E70003707AE002E08B3022B08AE002C08AF00D7
:100E80002D08B0001030B036AF0CAE0C890B432FDC
:100E90002E08B1003108B7002808AE002908AF00BD
:100EA0002A08B0001030B036AF0CAE0C890B532FAF
:100EB0002E08B1003108B7068030AE002E08B70505
:100EC000AC17FF30AB05FF30AC050030AD05A917FE
:100ED000FF30A805FF30A9050030AA051830AE0084
:100EE0002E08B2000130B435B50DB60D890B732F45
:100EF0002A082D02031D822F29082C02031D822F90
:100F000028082B02031C852F862F8D2F2808AB0263
:100F10002908AC3B2A08AD3B34140130AB35AC0D8D
:100F2000AD0D890B8E2F0130B202031D982F992F22
:100F3000722F3408A0003508A1003608A20033083B
:100F4000AE002E08A3003708AF002F08A4008F3191
:100F50000627873140012008A8002108A90022089F
:100F6000AA00080040015508B6005608B700570807
:100F7000B8008D314625873140013608BF0037085B
:100F8000C0003808C1005508C2005608C300570801
:100F9000C4008A317E22873140013F08D8004008D2
:100FA000D9004108DA005808AE005908AF005A08C5
:100FB000B0005508B1005608B2005708B30082319E
:100FC000BC22873140012E08D5002F08D6003008FA
:100FD000D7005508B6005608B7005708B8008D313D
:100FE0004625873140013608D5003708D600380835
:100FF000D70008007E014E10400114101A1008009E
:1011820008005534420111130800420111100800F1
:101192007E01551008007E01551108007E0155128E
:1011A2000800400119130800400119170800420104
:1011B20011170800400194139A1708004101CF014A
:1011C200CF0A08007E014E134001141708004101A6
:1011D2001E08F1001D08F0000800603051018D006A
:1011E2000630930008007E014E12400114121A12BA
:1011F2000800203050018C0007308D0008007E016D
:10120200CE11400194119A1108008831C62089310B
:101212008831C3208931080051018C13000063001A
:101222000000000008007608031D18291A29013061
:101232001B29003008008831D820893111308931CA
:10124200362189310800400121084101C8004001CE
:1012520020084101C7000800400121084101C600E1
:10126200400120084101C50008004001A0002008FB
:1012720041019F0042019117111408000000410131
:101282005208031D452946294829D301D30A0800DB
:10129200DF340D34DF340834C834043401340A3402
:1012A20004340D347E014313400113138831D220DC
:1012B20089318E319826893108007E014E11400114
:1012C20014111A117E01431240011312191208005F
:1012D2004001A1007A08A0002108860001308700A1
:1012E20020088100F9010800640080010131013009
:1012F200FE020030FF3B7F087E04031D7629003486
:10130200FE0012001E000130FE020030FF3B7F088B
:101312007E04031D82290034031040019A1F031426
:1013220003189429972940019A17992940019A1381
:10133200080040019A1334304001A000F130890BBB
:10134200A029A00BA029003240019A1708004E01E3
:101352000D104101470848040319B029B129B629E3
:1013620048088A0047080A008931080041014508F7
:1013720046040319BD29BE29C32946088A00450827
:101382000A0089317E01551308004001A000CF29CF
:101392009A11D7299A15D7299A11D7292008013AE3
:1013A2000319C929033A0319CB29CD290800FF30B3
:1013B2004F0196009613FF309700FF309800FF30E0
:1013C2009900FF309A00FF309B00FF309C00FF30F5
:1013D2009D00080040012808A0002908A100A201E0
:1013E2008E30AB002B08A300A4018F310627893170
:1013F20040012008A8002108A9002208AA0008002C
:1014020002304001A20021088600870122088100E3
:10141200410149084001A2002008860087012208F4
:10142200810041014A084001A200200A860087018A
:101432002208810008004001A401A501201C222AE3
:10144200232A272A2208A4072308A53D0130A23512
:10145200A30D890B282A0130A136A00C890B2D2A55
:1014620020082104031D362A372A1F2A2508A10035
:101472002408A00008007E01551C402A412A442A63
:101482008831C9208A317E01551D482A492A4C2AB1
:101492008831CC208A317E01551E502A512A542A85
:1014A2008831CF208A317E01551F582A592A5C2A59
:1014B2008931B7218A3108004001A2002208860042
:1014C20001308700732A2B308400013085007808B0
:1014D2004001A10021080319742A12001E00A10B69
:1014E2006E2A742A642A78084001A1002008860026
:1014F20001308700210881000800400141084004B2
:101502003F040319852A862A882A8030C1064208A8
:10151200AE004308AF004408B0003F08B1004008E5
:10152200B2004108B3008231BC228A3140012E0848
:10153200BF002F08C0003008C10008004001A10010
:101542008931D8218A318831EE208A3150019214B2
:101552007E01B801C301CE01CE1440019201930174
:1015620094019414FF309800FF309900FF309A00E4
:101572009A1021088B3184238A318B170B170800AC
:101582004001A200DC2A19161A151A16053040016C
:10159200A1000F30A000F130890BCD2AA00BCD2A7B
:1015A200A10BCD2AE42A19121A111A12E42A1912CD
:1015B2001A111A12E42A2208003A0319D42A013A0B
:1015C2000319C42AD82A08004001AD01A91FEA2A3A
:1015D200EB2AF22AA809A909A80A0319A90AAD0146
:1015E200AD0A2808A0002908A100A2018E30AB0094
:1015F2002B08A3002D08AC002C08A4008F3106276D
:101602008A3140012008A8002108A9002208AA0066
:1016120008004F01991241018C018D018E018F0149
:101622009201930198019A019F0142018C018D015F
:101632008E018F019001920193019401950196010F
:1016420097013F309800843091004E010D1017141D
:10165200C1304001A0000830A100893124218B3122
:10166200080040016508DF006608E0006708E10045
:1016720086314B268B3140015F08E8006008E900A3
:101682006108EA005C30C500DE30C6003E30C700AB
:101692006808C8006908C9006A08CA0085318A2535
:1016A2008B3140014508E5004608E6004708E7009F
:1016B2000800712B7608A300A401230820078600E6
:1016C2002408213D87000108A5007608A03E860077
:1016D20001308700250881000130A3002308F607A6
:1016E2004001220876020318772B782B7E2B2030BC
:1016F2007602031C7D2B7E2B5B2B7608A30023082E
:10170200F700F60108004001A0004F011C107E0105
:10171200C312C3134001931693170F307D01C50006
:1017220013307E019F0014309D000D307D01C600F4
:1017320043018F0126309000013091009201121472
:10174200FE308E004001203543018D004E010F1006
:101752001914F601F801F90108008831E8208B31EB
:1017620041014C08F3004B08F200F235F30DD03082
:10177200F4002430F5007208740786007308753D82
:1017820087007008C03F7108C13F0130CB070030AD
:10179200CC3D01304C02903003194B02031CD22B7A
:1017A200D32BD82B893106218B314101D10108007D
:1017B2008831D5208B3101308931C6218B31683097
:1017C2004001EB00E430890BE42BEB0BE42B00002F
:1017D20001308A31C1228B314101D101D10ACB01C1
:1017E200CC010030C2000030C3000030C400893197
:1017F2001C218B3141015108031D002C012CFB2BB4
:1018020000308A31C1228B3180317A208B3188318C
:10181200D2208B3108004001A21F102C112C1E2C4B
:101822002008003CA0002108031C210F003CA1005D
:101832002208031C220F803CA200A51F212C222C6F
:101842002F2C2308003CA3002408031C240F003C77
:10185200A4002508031C250F803CA5008030A206A9
:101862008030A50625082202031D3D2C24082102F2
:10187200031D3D2C230820020318402C412C432C2D
:101882000310442C03140800400122082104200400
:10189200031D4C2C4D2C5A2C230886008701003046
:1018A200C03FC13F0030A0000030A1000030A200C4
:1018B200822C22087F39A400A501A435A50D230896
:1018C200860087012408C03F2508C13F210D210D54
:1018D2000139A400A5012308860087012408810498
:1018E200413125088104230886008701823081075F
:1018F2004131FF30813D7F31220880393F38A200DB
:10190200A11308004E0119100F1043010C08F20038
:101912007208F3000F1D8E2C8F2CA32C8F1E922C7D
:10192200932C9C2C111F962C972C9C2C03308D31C0
:101932008D258C31BB2C01308D318D258C314301AD
:101942001016BB2C8F1AA62CA72CAC2C00308D3174
:101952008D258C31BB2C7308F2007208FB0002301B
:101962008D318D258C31430110164E010F1CBA2C7E
:10197200BB2CB62C4E010F10430110164E01191448
:1019820008004001B5018E30B2003208B400B11F28
:10199200CB2CCC2CE52CAE09AF09B009B109AE0AAB
:1019A2000319AF0A0319B00A0319B10AB501B50A3E
:1019B200E52C0130B136B00CAF0CAE0C890BDB2C30
:1019C2000130B2003208B407FF303105031DEA2CA2
:1019D200EB2CDA2C2E08A0002F08A1003008A20060
:1019E2003408B2003208A3003508B3003308A4005B
:1019F2008F3106278C3140012008AE002108AF004C
:101A02002208B000080040012108031D092D0A2DFB
:101A1200452D22088600013087000108A300230813
:101A22004101D70040012208043E860001308700B0
:101A32000108A300A4012208033E860001308700AA
:101A42000108A500A6012508A600A5012308250472
:101A52004201D5004001240826044201D60041017A
:101A620057080319352D362D452D40011A140B3018
:101A72004001A3006230890B3C2DA30B3C2D0000DA
:101A820002308931C6218D31080040013608A0009C
:101A92003708A1003808A2003D30B9003908A30078
:101AA2008C3145248D314001BE1F582D592D602D9A
:101AB2000030B6000030B7000030B8008C2D003086
:101AC2003E02153003193D02031C682D692D6A2D53
:101AD2008C2D3608A0003708A1003808A2008F31EB
:101AE2007B278D3140012308B1002208B000210874
:101AF200AF002008AE008C31C2248D3140012E0887
:101B0200BA002F08BB003008BC003A08B6003B08F8
:101B1200B7003C08B8000800F100D02D4101CD010A
:101B2200CD0ADE2D7B08F0007008FA00F801F901F9
:101B3200F90AB82D213078020318A02DA12DB82D55
:101B42007B08F00078082B3E860001308700700881
:101B520081000130F0007008F807B82D41014D08EE
:101B6200003A03199B2D013A0319932D9B2DCD01A8
:101B7200DE2D770876020318BF2DC02DCD2D7608F5
:101B8200A03E860001308700010843018C0001302D
:101B9200F0007008F607DE2D43018C01DE2D71087E
:101BA200003A03198F2D013A0319BA2D033A03198A
:101BB200AF2D013A0319DE2DDE2D080089315321A4
:101BC2008D314F0116108731FA278D310B304001CC
:101BD200A2006230890BEB2DA20BEB2D00008931A4
:101BE20000218D310B304001A2006230890BF72DAC
:101BF200A20BF72D00008831DB208D318831E320E4
:101C02008D318831F4208D3189315E218D310B3057
:101C12004001A2006230890B0C2EA20B0C2E000098
:101C22004E0116167E015513541353173F304001CF
:101C3200A0000930A10089312D218D31AF30420140
:101C4200A000BE30A1003A30A2008B310A238D31B0
:101C5200AE304001A0000B30A100893124218D312A
:101C62008831FA208D31080040015B08A1005A0832
:101C7200A0000330A2000030A3008A311C228E3162
:101C820040015808200784005908213D8500003F83
:101C9200DC00013FDD00023FDE008B2EFF30DA0761
:101CA200FF30DB3D5B08A1005A08A0000330A20010
:101CB2000030A3008A311C228E31400158082007CF
:101CC20084005908213D8500003FAE00013FAF006E
:101CD200023FB0005C08C5005D08C6005E08C70090
:101CE2005508C8005608C9005708CA0085318A2518
:101CF2008E3140014508B1004608B2004708B300E2
:101D02008231BC228E3140012E08DC002F08DD001A
:101D12003008DE005A085B04031D902E912E4F2ED0
:101D22005C08D5005D08D6005E08D700080088313F
:101D3200D5208E3105304001A1000F30A000F130D6
:101D4200890BA12EA00BA12EA10BA12E8831D2208E
:101D52008E3105304001A1000F30A000F130890B17
:101D6200B02EA00BB02EA10BB02E8831D5208E3113
:101D720005304001A1000F30A000F130890BBF2EC9
:101D8200A00BBF2EA10BBF2E8831D2208E31153071
:101D92004001A1004B30A000BE30890BCE2EA00B1B
:101DA200CE2EA10BCE2E00008831D5208E310530EB
:101DB2004001A1000F30A000F130890BDE2EA00BF4
:101DC200DE2EA10BDE2E8831D2208E31053040016D
:101DD200A1000F30A000F130890BED2EA00BED2EEB
:101DE200A10BED2E8831D5208E3105304001A100A6
:101DF2000F30A000F130890BFC2EA00BFC2EA10BA2
:101E0200FC2E8831D2208E310800400123080319AC
:101E12000B2F0C2F132F220821042004031D122F35
:101E2200132F242F0030A0000030A1000030A200A8
:101E32007A2F0130A5002508A3070130A236A10C94
:101E4200A00C890B1F2FFE302205031D292F2A2FDC
:101E52001A2F3F2F0130A5002508A3070130A00744
:101E6200003003180130A107003003180130A20727
:101E72000130A236A10CA00C890B3A2FFF302205AB
:101E8200031D442F452F2B2F4E2F0130A30201306B
:101E9200A035A10DA20D890B492FA11B512F522F45
:101EA200582F023023020318572F582F462F23187A
:101EB2005B2F5C2F622FFF30A0057F30A105FF3022
:101EC200A2050310A30C2308A500A601A701103048
:101ED200A535A60DA70D890B692F2508A004260894
:101EE200A1042708A20424080319782F792F7A2F36
:101EF200A217080040012008A4002108A50022081A
:101F0200A6000310250D260DA7002708AD002D08F9
:101F1200031D8C2F8D2F962F0030A3000030A200BE
:101F22000030A1000030A000FF2F2008A4002108EB
:101F3200A5002208A6001730A636A50CA40C890B12
:101F42009D2F2408A7002708A800A117FF30A0058D
:101F5200FF30A1050030A2052008A9002108AA002F
:101F62002208AB00AC018E30AD02AD1FB92FBA2FE3
:101F7200D22F2D08803A8F3E0318C02FC12FC22FB7
:101F82008D2F0130AC36AB0CAA0CA90C890BC32FD8
:101F92000130A4002408AD07031DD02FD12FC22F7A
:101FA200E72F18302D02031CD72FD82FE22F8D2FA9
:101FB2000130A935AA0DAB0DAC0D890BDA2F01301A
:101FC200AD022D08031DE62FE72FD92F280803198C
:101FD200EB2FEC2FF72FA909AA09AB09AC09A90A23
:101FE2000319AA0A0319AB0A0319AC0A2C08A300A5
:101FF2002B08A2002A08A1002908A000080000342A
:1020020000340034003480343F34F034FF34BE34C2
:10201200E234A9343E3483347634BE34AE342B34C5
:102022003E343C34C334BD34D23413343D3478347A
:04203200D334BB34B4
:020000040001F9
:0A000E00EC3F3F3FBF3FFF3FFF3FC5
:00000001FF
