:020000040000FA
:1000000080313128790808007E1480314E01161E97
:100010000A280B2813280C1E0E280F2813288A31B3
:100020003A2280312F280B1F162817282F28191C39
:100030001A281B2823280F1C1E281F2823288D312F
:10004000942580312F28171C262827282F280D1C9F
:100050002A282B282F288931A62180312F287E108D
:100060000900803133288831BB208031FB004730C4
:1000700084008930850061308600013087000030BF
:10008000FF000A3089317F218031D0308400243054
:1000900085002030FE000330FF008931732180315C
:1000A000F601F701F801F901FA01BE3084000030D1
:1000B00085001930FE000030FF0089317321803146
:1000C00020308400013085002730FE000030FF0022
:1000D000893173218031A0308400013085002030C7
:1000E000FE000030FF008931732180317E10400115
:1000F0008331D42B00304101B9000030BA00003008
:10010000BB00B501B60141013608A1003508A000C9
:10011000A035A10DD030A2002430A3002008220772
:1001200086002108233D8700403F4001A800413F51
:10013000A9008931E921803140012808AE00290851
:10014000AF002A08B000410139084001B100410167
:100150003A084001B20041013B084001B30082313E
:10016000B422803140012E084101B90040012F081E
:100170004101BA00400130084101BB000130B50720
:100180000030B63D3608803AA00081302002031DC1
:10019000CB2890303502031CCE28CF28832800308E
:1001A0004001A800C830A9004330AA004101390825
:1001B0004001AB0041013A084001AC0041013B085D
:1001C0004001AD008631F826803140012808410108
:1001D000B900400129084101BA0040012A08410143
:1001E000BB00B701B801420120084001C50042012F
:1001F00021084001C600420122084001C700410118
:1002000039084001BF0041013A084001C0004101E6
:100210003B084001C10041013808A1003708A00097
:10022000A035A10DD030A2002430A3002008220761
:1002300086002108233D8700403F4001A800413F40
:10024000A9008931E921803140012808C20029082C
:10025000C3002A08C4008A317C22803140013F0853
:10026000C8004008C9004108CA0085318225803194
:10027000400145084101B200400146084101B30078
:10028000400147084101B40032084001C500410166
:1002900033084001C600410134084001C700410154
:1002A00032084001C800410133084001C900410142
:1002B00034084001CA00853182258031400145085B
:1002C0004101B200400146084101B3004001470826
:1002D0004101B40032084001AE0041013308400141
:1002E000AF00410134084001B00041013E08400127
:1002F000B10041013F084001B20041014008400106
:10030000B3008231B422803140012E084101BE0089
:1003100040012F084101BF00400130084101C000E9
:100320000130B7070030B83D3808803AA00081306E
:100330002002031D9D2990303702031CA029A1290A
:10034000F32800304001A800C830A9004330AA00BB
:1003500041013E084001AB0041013F084001AC00B3
:10036000410140084001AD008631F826803140014E
:1003700028084101AA00400129084101AB004001C1
:100380002A084101AC00E7304001A800DB30A90099
:100390002F30AA0041012A084001AB0041012B087F
:1003A0004001AC0041012C084001AD008631F82627
:1003B000803140012A08290428040319E029E12991
:1003C0002F2AE730A800DB30A9002F30AA00410116
:1003D0002A084001AB0041012B084001AC0041015B
:1003E0002C084001AD008631F826803140012808F4
:1003F000E5002908E6002A08E7008B313023803128
:10040000400165084101A400400166084101A500C2
:10041000400167084101A60000304001C5002030BE
:10042000C6004130C700410124084001C800410115
:1004300025084001C900410126084001CA00853154
:1004400082258031400145084101AF004001460846
:100450004101B000400147084101B100362A003097
:100460004101AF000030B0000030B1000030400169
:10047000A000D430A1004230A20041012F08400169
:10048000A300410130084001A400410131084001AE
:10049000A5008C310A24803103184F2A502A572A8C
:1004A00000304101AF00D430B0004230B100410112
:1004B0002F084001C800410130084001C900410136
:1004C00031084001CA000030C5001630C600443073
:1004D000C70085318225803140014508D500460896
:1004E000D6004708D7008D314C2580314001550892
:1004F0004101A700400156084101A80040015708EA
:100500004101A90027084001A0004101280840013D
:10051000A100410129084001A2008F317B278031D1
:10052000400121084101AE00400120084101AD0019
:100530002E08A0002008C9002D08A0002008CA002D
:100540002E0842016C02031DA92A41012D08420117
:100550006B020318AC2AAD2AB12A4101CE01CE0AA2
:10056000B32A4101CE01080040012E08B4002F0833
:10057000B5003008B6000310350D360DB70037084A
:10058000BA003108B4003208B5003308B6000310D1
:10059000350D360DB7003708B9003A080319D12ACE
:1005A000D22AE22A39083A020318D72AD82AE92A95
:1005B0003908B4003A08B40219303402031CE12AA5
:1005C000E22AE92A3108AE003208AF003308B00051
:1005D000D32B39080319ED2AEE2AFE2A3A083902EC
:1005E0000318F32AF42AFF2A3A08B4003908B4029F
:1005F00019303402031CFD2AFE2AFF2AD32B0630B1
:10060000B4003408B800B01F062B072B082BB8170E
:10061000B31F0B2B0C2B0D2B3817AF17FF30AE056C
:10062000FF30AF050030B005B217FF30B105FF3025
:10063000B2050030B30539083A020318202B212BEC
:10064000492B0130B135B20DB30D890B222B01308E
:10065000B90239083A0603192E2B2F2B422B0130F1
:10066000B80238080739031D362B372B212B422BB4
:100670000130B036AF0CAE0C890B392B0130B40011
:100680003408BA073A083906031D472B482B382B84
:10069000762B3A08390203184E2B4F2B762B01305C
:1006A000AE35AF0DB00D890B502B0130BA023908B1
:1006B0003A0603195C2B5D2B702B0130B802380809
:1006C0000739031D642B652B4F2B702B0130B3367C
:1006D000B20CB10C890B672B0130B4003408B90798
:1006E0003A083906031D752B762B662BB81F792B1C
:1006F0007A2B8A2BFF30AE06FF30AF06FF30B006F4
:100700000130AE07003003180130AF070030031886
:100710000130B007381F8D2B8E2B9E2BFF30B1067A
:10072000FF30B206FF30B3060130B10700300318C6
:100730000130B207003003180130B307B8012E08AA
:10074000B1072F08B23D3008B33DB31FA82BA92B2A
:10075000BB2BFF30B106FF30B206FF30B3060130CD
:10076000B107003003180130B20700300318013020
:10077000B307B801B80A3108A0003208A100330855
:10078000A2003A08B4003408A3003808B5003508C0
:10079000A4008F310627823140012008AE002108D5
:1007A000AF002208B000080054308A319D22833106
:1007B000420162088A0061080A0083310430613E08
:1007C000860001308700413F8A00403F0A008331A4
:1007D000D4304101BC003C084001A000D6304101AA
:1007E000BD003D084001A1000630613E8600013099
:1007F0008700413F8A00403F0A008331D4304001E6
:10080000A0000030A10041015608BC003C08400196
:10081000A2008B3158238331803102208331003A8A
:100820000319132C142CDE2B5F308931672183319F
:10083000A52CAA304101BC003C084201DC005C3020
:100840004001A0000130A100A201A20A8B3158236F
:100850008331DE2BDD01DD0A5D304001A000013077
:10086000A100A201A20A8B3158238331DE2BDE01C5
:10087000DE0A5E304001A0000130A100A201A20A00
:100880008B3158238331DE2B0230613E86000130EC
:100890008700413F8A00403F0A008431DE2B14303C
:1008A0004101BC003C084201DB005F2C0B304101E0
:1008B000BC006230890B5A2CBC0B5A2C00008931C9
:1008C00013218331003A031D662C672CBD2C0130A7
:1008D0004201DB025B0A031D6E2C6F2C562CDE2BB3
:1008E00089318B218331DE2B15304101BC00C630AC
:1008F000890B782CBC0B782C000060304101BC00C7
:100900003C084001A00047308A315B228331063029
:1009100042016006031D8D2C8E2CBD2C4708410121
:10092000BC003C084001A10048304101BD003D0829
:100930004001A2000830613E860001308700413F3F
:100940008A00403F0A008431DE2B42015F08103AE2
:100950000319192C013A03192A2C023A0319442CC1
:10096000073A03194F2C013A0319702C363A031930
:10097000372C073A0319742CBD2CDE2B803131281B
:1009800041014F080319C52CC62C0D2D50010C1820
:10099000CA2CCB2C0D2D410157080319D02CD12C7A
:1009A000E22CD201D20A8B31D72384314101D2010A
:1009B00089319821843102308931C4218431410147
:1009C000CF01812D5708031DE62CE72C812D400116
:1009D0001A140B304001EC006230890BED2CEC0B4B
:1009E000ED2C00004101D201D20A8B31D723843192
:1009F0004101D20189319821843140011A100B3014
:100A00004001EC006230890B032DEC0B032D00003C
:100A100001308931C4218431DF2C41014F08031991
:100A2000122D132D352D50010C1C172D182D352D81
:100A300040011A140B304001EC006230890B1E2D6E
:100A4000EC0B1E2D00004101D201D20A8B31D723BD
:100A500084314101D20189319821843102308931B8
:100A6000C421843150010C10DF2C410153080319BB
:100A70003A2D3B2D682DD201D20A8B31D7238431F8
:100A80004101D2014E080319462D472D542D640013
:100A900050010C1489319821843140011A10013021
:100AA0008931C4218431652D01308931C4218431DB
:100AB00068304001EC00E430890B5C2DEC0B5C2DC0
:100AC000000002308931C42184314101D301812DDC
:100AD0004001031A6C2D6D2D7E2D50010C1040012C
:100AE0001A140B304001EC006230890B752DEC0BB1
:100AF000752D000002308931C421843189310C21E7
:100B00008431080040014508CB004608CC00470866
:100B1000CD0003104C0D4D0DCE004E08CF004F08F8
:100B2000031D932D942D9B2D0030C5000030C60071
:100B30000030C700422E4808CB004908CC004A08C4
:100B4000CD0003104C0D4D0DCE004E08D4005408BE
:100B5000031DAB2DAC2DB32D0030C5000030C600F9
:100B60000030C700422E54087B3ECB004B08CF0715
:100B70004508CB004608CC004708CD001030CD36E4
:100B8000CC0CCB0C890BBF2D4B08CE004E08D400EB
:100B90004808CB004908CC004A08CD001030CD36BB
:100BA000CC0CCB0C890BCF2D4B08CE004E08D406B5
:100BB0008030CB004B08D405C617C917FF30C805D5
:100BC000FF30C9050030CA050030D0000030D10028
:100BD0000030D2000730CB004B08D300451CF12D6C
:100BE000F22DF82D4808D0074908D13D4A08D23DDA
:100BF0000130C736C60CC50C890BF92D0130C8353C
:100C0000C90DCA0D890BFF2D0130D302031D092E1A
:100C10000A2EEE2D0930CB004B08D300451C112EB7
:100C2000122E182E4808D0074908D13D4A08D23D57
:100C30000130C736C60CC50C890B192E0130D236CF
:100C4000D10CD00C890B1F2E0130D302031D292E8D
:100C50002A2E0E2E5008A0005108A1005208A20012
:100C60004F08CB004B08A3005408CC004C08A4004C
:100C70008F310627853140012008C5002108C600B4
:100C80002208C700080040015F08A0006008A1001A
:100C90006108A2000030A3000030A4000030A500CD
:100CA0008C310A2486310318562E572E642E21309B
:100CB0004201A3000030A40000304001DF000030FA
:100CC000E0000030E100F72E4001610860045F049D
:100CD000031D6B2E6C2E792E22304201A3000030B2
:100CE000A40000304001DF000030E0000030E100EF
:100CF000F72E0030AE008030AF00BF30B0000030C3
:100D0000C5000030C6004030C7006330E200620812
:100D1000A3005F08A0006008A1006108A2008C3158
:100D20004324863140012008C8002108C900220858
:100D3000CA0085318225863140014508B100460848
:100D4000B2004708B3008231B422863140012E0838
:100D5000DF002F08E0003008E100FF30E307FF303C
:100D6000E43D5F08D5006008D6006108D700003078
:100D7000D8009030D9000830DA000030DB008E3126
:100D80003526863140015508DF005608E000570837
:100D9000E1005F08AE006008AF006108B00072308B
:100DA000C5003130C6003F30C7006408A9006308A1
:100DB000A8008A31E322863140012808C8002908AA
:100DC000C9002A08CA0085318225863140014508BC
:100DD000B1004608B2004708B3008231B422863120
:100DE00040012E08DF002F08E0003008E100080075
:100DF00040012B08AE002C08AF002D08B0000310F6
:100E00002F0D300DB1003108B3003308031D092F39
:100E10000A2F112F0030A8000030A9000030AA00CE
:100E2000A92F2808AE002908AF002A08B000031037
:100E30002F0D300DB1003108B7003708031D212FE9
:100E4000222F292F0030A8000030A9000030AA006E
:100E5000A92F0030B4000030B5000030B600893052
:100E60003707AE002E08B3022B08AE002C08AF00E7
:100E70002D08B0001030B036AF0CAE0C890B3B2FF4
:100E80002E08B1003108B7002808AE002908AF00CD
:100E90002A08B0001030B036AF0CAE0C890B4B2FC7
:100EA0002E08B1003108B7068030AE002E08B70515
:100EB000AC17FF30AB05FF30AC050030AD05A9170E
:100EC000FF30A805FF30A9050030AA051830AE0094
:100ED0002E08B2000130B435B50DB60D890B6B2F5D
:100EE0002A082D02031D7A2F29082C02031D7A2FB0
:100EF00028082B02031C7D2F7E2F852F2808AB028C
:100F00002908AC3B2A08AD3B34140130AB35AC0D9D
:100F1000AD0D890B862F0130B202031D902F912F4A
:100F20006A2F3408A0003508A1003608A200330853
:100F3000AE002E08A3003708AF002F08A4008F31A1
:100F40000627863140012008A8002108A9002208B0
:100F5000AA0008008931512187314F0116108831CC
:100F6000FF2087310B304001A2006230890BB62F81
:100F7000A20BB62F00008831F92087310B304001D9
:100F8000A2006230890BC22FA20BC22F0000883151
:100F9000D42087318831DC2087318831ED208731BA
:100FA00089315C2187310B304001A2006230890B0E
:100FB000D72FA20BD72F00004E0116167E01551316
:100FC0005413531723304001A0000930A100893188
:100FD00035218731AF304201A000BE30A1003A3048
:100FE000A2008B3108238731AC304001A0000B30C8
:100FF000A10089312C2187318831F3208731080005
:1011740008005534420111130800420111100800FF
:101184007E01551008007E01551108007E0155129C
:101194000800400119130800400119170800420112
:1011A40011170800400194139A1708004101CF0158
:1011B400CF0A08007E014E134001141708004101B4
:1011C4001E08F1001D08F0000800603051018D0078
:1011D4000630930008007E014E12400114121A12C8
:1011E4000800203050018C0007308D0008007E017B
:1011F400CE11400194119A1108007E014E10400155
:1012040014101A1008008831BF2089318831BC209D
:101214008931080051018C130000630000000000B4
:1012240008007608031D1729192901301A290030EE
:1012340008008831D1208931113089313E2189312A
:10124400080041015208031D282929292B29D3010B
:10125400D30A0800400121084101C80040012008C8
:101264004101C7000800400121084101C2004001BA
:1012740020084101C10008004001A00020084101EC
:101284009F004201911711140800AA340734D8347E
:101294000834C0340434FF340934C3340C347E01BC
:1012A4004313400113138831CB2089318E319826A2
:1012B400893108007E014E11400114111A117E017A
:1012C400431240011312191208004001A1007A08C8
:1012D400A000210886000130870020088100F90160
:1012E40008006400800101310130FE020030FF3B40
:1012F4007F087E04031D74290034FE0012001E00C2
:101304000130FE020030FF3B7F087E04031D80296C
:101314000034031040019A1F0314031892299529DD
:1013240040019A17972940019A13080040019A1323
:101334000B304001A0006230890B9E29A00B9E292E
:10134400000040019A1708004E010D1041014708A2
:1013540048040319AE29AF29B42948088A0047086C
:101364000A00893108004101410842040319BB29DC
:10137400BC29C12942088A0041080A0089317E013A
:10138400551308004001A000CD299A11D5299A15BA
:10139400D5299A11D5292008013A0319C729033AF6
:1013A4000319C929CB290800FF304F019600961371
:1013B400FF309700FF309800FF309900FF309A000B
:1013C400FF309B00FF309C00FF309D00080040016F
:1013D4002808A0002908A100A2018E30AB002B0828
:1013E400A300A4018F310627893140012008A800F9
:1013F4002108A9002208AA00080002304001A20026
:101404002108860087012208810041014908400122
:10141400A2002008860087012208810041014A08B1
:101424004001A200200A86008701220881000800EA
:101434004001A401A501201C202A212A252A2208D2
:10144400A4072308A53D0130A235A30D890B262A44
:101454000130A136A00C890B2B2A20082104031D7E
:10146400342A352A1D2A2508A1002408A0000800D2
:101474007E01551C3E2A3F2A422A8831C2208A31E5
:101484007E01551D462A472A4A2A8831C5208A31B9
:101494007E01551E4E2A4F2A522A8831C8208A318D
:1014A4007E01551F562A572A5A2A8931B5218A3175
:1014B40008004001A2002208860001308700712A3A
:1014C400273084000130850078084001A1002108FC
:1014D4000319722A12001E00A10B6C2A722A622AB6
:1014E40078084001A1002008860001308700210807
:1014F400810008004001410840043F040319832A85
:10150400842A862A8030C1064208AE004308AF0010
:101514004408B0003F08B1004008B2004108B300DD
:101524008231B4228A3140012E08BF002F08C00046
:101534003008C10008004001A1008931D6218A3158
:101544008831E7208A31500192147E01B801C30129
:10155400CE01CE1440019201930194019414FF3002
:101564009800FF309900FF309A009A1021088B31BF
:1015740082238A318B170B1708004001A200DA2A54
:1015840019161A151A1605304001A1000F30A000D3
:10159400F130890BCB2AA00BCB2AA10BCB2AE22A50
:1015A40019121A111A12E22A19121A111A12E22A1B
:1015B4002208003A0319D22A013A0319C22AD62A68
:1015C40008004001AD01A91FE82AE92AF02AA80968
:1015D400A909A80A0319A90AAD01AD0A2808A0009F
:1015E4002908A100A2018E30AB002B08A3002D080E
:1015F400AC002C08A4008F3106278A314001200852
:10160400A8002108A9002208AA0008004F01991285
:1016140041018C018D018E018F019201930198018A
:101624009A019F0142018C018D018E018F0190016D
:101634009201930194019501960197013F3098001E
:10164400843091004E010D101714BA304001A000EF
:101654000830A10089312C218B3108004001650834
:10166400DF006608E0006708E100863143268B311D
:1016740040015F08E8006008E9006108EA005C30A6
:10168400C500DE30C6003E30C7006808C8006908DF
:10169400C9006A08CA00853182258B31400145089A
:1016A400E5004608E6004708E70008006F2B7608C7
:1016B400A300A4012308200786002408213D8700F5
:1016C4000108A5007608A03E8600013087002508A1
:1016D40081000130A3002308F607400122087602A6
:1016E4000318752B762B7C2B20307602031C7B2B66
:1016F4007C2B592B7608A3002308F700F601080079
:101704004001A0004F011C107E01C312C31340010D
:10171400931693170F307D01C50013307E019F008F
:1017240014309D000D307D01C60043018F01263029
:1017340090000130910092011214FE308E0040019D
:10174400203543018D004E010F101914F601F801E4
:10175400F90108008831E1208B3141014C08F30084
:101764004B08F200F235F30DD030F4002430F500CC
:101774007208740786007308753D87007008C03FBF
:101784007108C13F0130CB070030CC3D01304C0221
:10179400903003194B02031CD02BD12BD62B89314B
:1017A40005218B314101D10108008831CE208B31D4
:1017B40001308931C4218B310B304001EB006230A0
:1017C400890BE22BEB0BE22B000001308A31BF22A4
:1017D4008B314101D101D10ACB01CC010030BE00D3
:1017E4000030BF000030C00089311B218B31410122
:1017F4005108031DFE2BFF2BF92B00308A31BF2229
:101804008B3180317A208B318831CB208B310800A9
:101814004001A21F0E2C0F2C1C2C2008003CA00001
:101824002108031C210F003CA1002208031C220FE5
:10183400803CA200A51F1F2C202C2D2C2308003C2B
:10184400A3002408031C240F003CA4002508031C47
:10185400250F803CA5008030A2068030A50625080F
:101864002202031D3B2C24082102031D3B2C2308C8
:10187400200203183E2C3F2C412C0310422C03144D
:1018840008004001220821042004031D4A2C4B2C8B
:10189400582C2308860087010030C03FC13F003028
:1018A400A0000030A1000030A200802C22087F3963
:1018B400A400A501A435A50D2308860087012408EA
:1018C400C03F2508C13F210D210D0139A400A50108
:1018D40023088600870124088104413125088104F6
:1018E400230886008701823081074131FF30813D22
:1018F4007F31220880393F38A200A113080040013B
:10190400B5018E30B2003208B400B11F8A2C8B2C82
:10191400A42CAE09AF09B009B109AE0A0319AF0A84
:101924000319B00A0319B10AB501B50AA42C013090
:10193400B136B00CAF0CAE0C890B9A2C0130B2004E
:101944003208B407FF303105031DA92CAA2C992CA9
:101954002E08A0002F08A1003008A2003408B2000D
:101964003208A3003508B3003308A4008F310627DA
:101974008C3140012008AE002108AF002208B000DD
:10198400080040012108031DC82CC92C042D22087D
:101994008600013087000108A30023084101D70015
:1019A40040012208043E8600013087000108A3009C
:1019B400A4012208033E8600013087000108A50027
:1019C400A6012508A600A501230825044201EB0071
:1019D4004001240826044201EC0041015708031980
:1019E400F42CF52C042D40011A140B304001A300F3
:1019F4006230890BFB2CA30BFB2C000002308931D5
:101A0400C4218C31080040013608A0003708A10029
:101A14003808A2003D30B9003908A3008C314324B2
:101A24008D314001BE1F172D182D1F2D0030B6001B
:101A34000030B7000030B8004B2D00303E021530A6
:101A440003193D02031C272D282D292D4B2D360863
:101A5400A0003708A1003808A2008F317B278D3100
:101A640040012308B1002208B0002108AF0020087B
:101A7400AE008C3181248D3140012E08BA002F082C
:101A8400BB003008BC003A08B6003B08B7003C086D
:101A9400B800080040015508B6005608B7005708BA
:101AA400B8008D3105258D3140013608BF00370857
:101AB400C0003808C1005508C2005608C3005708C2
:101AC400C4008A317C228D3140013F08D80040088F
:101AD400D9004108DA005808AE005908AF005A0886
:101AE400B0005508B1005608B2005708B30082315F
:101AF400B4228D3140012E08D5002F08D6003008BD
:101B0400D7005508B6005608B7005708B8008D31FD
:101B140005258D3140013608D5003708D600380830
:101B2400D70008004E0119100F1043010C08F200F1
:101B34007208F4000F1D9F2DA02DB42D8F1EA32D10
:101B4400A42DAD2D111FA72DA82DAD2D03308D3142
:101B5400E3258D31DC2D01308D31E3258D314301B9
:101B64001016DC2D8F1AB72DB82DBD2D00308D31F8
:101B7400E3258D31DC2D7408F2007208FB0002307D
:101B84008D31E3258D3143011016FF30F2007208C8
:101B9400F300D02D00320032003200324E010F1813
:101BA400D42DD52DDC2D0130F302730A031DDB2D5A
:101BB400DC2DCC2D4E010F10430110164E011914CB
:101BC4000800F100262E4101CD01CD0A342E7B08F8
:101BD400F0007008FA00F801F901F90A0E2E21301C
:101BE40078020318F62DF72D0E2E7B08F0007808E6
:101BF400273E860001308700700881000130F00024
:101C04007008F8070E2E41014D08003A0319F12D12
:101C1400013A0319E92DF12DCD01342E770876020E
:101C24000318152E162E232E7608A03E86000130AA
:101C34008700010843018C000130F0007008F607AA
:101C4400342E43018C01342E7108003A0319E52D1A
:101C5400013A0319102E033A0319052E013A031908
:101C6400342E342E080040015B08A1005A08A0005D
:101C74000330A2000030A3008A311A228E314001C1
:101C84005808200784005908213D8500003FDC00E6
:101C9400013FDD00023FDE008B2EFF30DA07FF300C
:101CA400DB3D5B08A1005A08A0000330A20000300D
:101CB400A3008A311A228E3140015808200784007B
:101CC4005908213D8500003FAE00013FAF00023FAF
:101CD400B0005C08C5005D08C6005E08C700550872
:101CE400C8005608C9005708CA00853182258E31BC
:101CF40040014508B1004608B2004708B3008231EC
:101D0400B4228E3140012E08DC002F08DD0030089B
:101D1400DE005A085B04031D902E912E4F2E5C08A2
:101D2400D5005D08D6005E08D70008008831CE20B3
:101D34008E3105304001A1000F30A000F130890B35
:101D4400A12EA00BA12EA10BA12E8831CB208E3168
:101D540005304001A1000F30A000F130890BB02EF6
:101D6400A00BB02EA10BB02E8831CE208E310530C1
:101D74004001A1000F30A000F130890BBF2EA00B51
:101D8400BF2EA10BBF2E8831CB208E3115304001E0
:101D9400A1004B30A000BE30890BCE2EA00BCE2E5E
:101DA400A10BCE2E00008831CE208E3105304001AB
:101DB400A1000F30A000F130890BDE2EA00BDE2E27
:101DC400A10BDE2E8831CB208E3105304001A100DD
:101DD4000F30A000F130890BED2EA00BED2EA10BDE
:101DE400ED2E8831CE208E3105304001A1000F3018
:101DF400A000F130890BFC2EA00BFC2EA10BFC2EB5
:101E04008831CB208E3108004001230803190B2FA1
:101E14000C2F132F220821042004031D122F132F2B
:101E2400242F0030A0000030A1000030A2007A2F3F
:101E34000130A5002508A3070130A236A10CA00C8F
:101E4400890B1F2FFE302205031D292F2A2F1A2F3D
:101E54003F2F0130A5002508A3070130A00700305B
:101E640003180130A107003003180130A207013024
:101E7400A236A10CA00C890B3A2FFF302205031DBA
:101E8400442F452F2B2F4E2F0130A3020130A035B4
:101E9400A10DA20D890B492FA11B512F522F582F91
:101EA400023023020318572F582F462F23185B2F75
:101EB4005C2F622FFF30A0057F30A105FF30A20503
:101EC4000310A30C2308A500A601A7011030A53513
:101ED400A60DA70D890B692F2508A0042608A104C7
:101EE4002708A20424080319782F792F7A2FA21720
:101EF400080040012008A4002108A5002208A6002B
:101F04000310250D260DA7002708AD002D08031D7D
:101F14008C2F8D2F962F0030A3000030A2000030AC
:101F2400A1000030A000FF2F2008A4002108A50074
:101F34002208A6001730A636A50CA40C890B9D2FE9
:101F44002408A7002708A800A117FF30A005FF3028
:101F5400A1050030A2052008A9002108AA00220832
:101F6400AB00AC018E30AD02AD1FB92FBA2FD22F0A
:101F74002D08803A8F3E0318C02FC12FC22F8D2FFA
:101F84000130AC36AB0CAA0CA90C890BC32F013061
:101F9400A4002408AD07031DD02FD12FC22FE72F93
:101FA40018302D02031CD72FD82FE22F8D2F01308C
:101FB400A935AA0DAB0DAC0D890BDA2F0130AD029A
:101FC4002D08031DE62FE72FD92F28080319EB2F1F
:101FD400EC2FF72FA909AA09AB09AC09A90A03191F
:101FE400AA0A0319AB0A0319AC0A2C08A3002B088C
:101FF400A2002A08A1002908A00008000034003427
:102004000034003480343F34F034FF34BE34E234DE
:10201400A9343E3483347634BE34AE342B343E3467
:102024003C34C334BD34D23413343D347834D334E3
:02203400BB34BB
:020000040001F9
:0A000E00EC3F3F3FBF3FFF3FFF3FC5
:00000001FF
