:020000040000FA
:1000000080313128080055347E1480314E01161E8F
:100010000A280B2813280C1E0E280F2813288931B4
:100020005F2180312F280B1F162817282F28191C15
:100030001A281B2823280F1C1E281F2823288B3131
:10004000512380312F28171C262827282F280D1CE4
:100050002A282B282F288831DC2080312F287E1059
:10006000090080313328803103208031FD00943035
:100070008400883085005E308600013087000A30B9
:100080008731FA278031FC0142308400003085003E
:10009000173088314B2080314101EE01EF015330A0
:1000A0008400013085000B3088314B208031A03036
:1000B000840001308500403088314B2080317E1033
:1000C00040018331A02B41014808CE004908CF00F0
:1000D0004A08D00003104F0D500DD1005108D40034
:1000E0004B08CE004C08CF004D08D00003104F0D38
:1000F000500DD1005108D3005408031980288128DD
:1001000091285308540203188628872898285308F2
:10011000CE005408CE0219304E02031C90289128BC
:1001200098284B08C8004C08C9004D08CA0082290D
:10013000530803199C289D28AD285408530203181E
:10014000A228A328AE285408CE005308CE021930A6
:100150004E02031CAC28AD28AE2882290630CE0002
:100160004E08D200CA1FB528B628B728D217CD1F0F
:10017000BA28BB28BC285217C917FF30C805FF3062
:10018000C9050030CA05CC17FF30CB05FF30CC05C0
:100190000030CD05530854020318CF28D028F82882
:1001A0000130CB35CC0DCD0D890BD1280130D302D8
:1001B000530854060319DD28DE28F1280130D20245
:1001C00052080739031DE528E628D028F128013018
:1001D000CA36C90CC80C890BE8280130CE004E087D
:1001E000D40754085306031DF628F728E7282529C5
:1001F000540853020318FD28FE2825290130C8356C
:10020000C90DCA0D890BFF280130D40253085406CA
:1002100003190B290C291F290130D2025208073972
:10022000031D13291429FE281F290130CD36CC0CBB
:10023000CB0C890B16290130CE004E08D307540889
:100240005306031D242925291529D21F28292929C8
:100250003929FF30C806FF30C906FF30CA06013011
:10026000C807003003180130C907003003180130F7
:10027000CA07521F3C293D294D29FF30CB06FF30CC
:10028000CC06FF30CD060130CB070030031801301B
:10029000CC07003003180130CD07D2014808CB0746
:1002A0004908CC3D4A08CD3DCD1F572958296A2918
:1002B000FF30CB06FF30CC06FF30CD060130CB0738
:1002C000003003180130CC07003003180130CD078F
:1002D000D201D20A4B08A0004C08A1004D08A20090
:1002E0005408CE004E08A3005208CF004F08A400C7
:1002F0008F318B27803141012008C8002108C900B7
:100300002208CA00080040013008B6003108B700D2
:100310003208B8000310370D380DB9003908BC0099
:100320003308B6003408B7003508B8000310370D9D
:10033000380DB9003908BB003C080319A029A129D0
:10034000B1293B083C020318A629A729B8293B0874
:10035000B6003C08B60219303602031CB029B12998
:10036000B8293308B0003408B1003508B200A22A19
:100370003B080319BC29BD29CD293C083B020318C1
:10038000C229C329CE293C08B6003B08B602193061
:100390003602031CCC29CD29CE29A22A0630B6006C
:1003A0003608BA00B21FD529D629D729BA17B51FE2
:1003B000DA29DB29DC293A17B117FF30B005FF3005
:1003C000B1050030B205B417FF30B305FF30B405F6
:1003D0000030B5053B083C020318EF29F029182A24
:1003E0000130B335B40DB50D890BF1290130BB02D5
:1003F0003B083C060319FD29FE29112A0130BA02E7
:100400003A080739031D052A062AF029112A013066
:10041000B236B10CB00C890B082A0130B600360890
:10042000BC073C083B06031D162A172A072A452A43
:100430003C083B0203181D2A1E2A452A0130B0350C
:10044000B10DB20D890B1F2A0130BC023B083C06DE
:1004500003192B2A2C2A3F2A0130BA023A080739FD
:10046000031D332A342A1E2A3F2A0130B536B40C24
:10047000B30C890B362A0130B6003608BB073C089E
:100480003B06031D442A452A352ABA1F482A492A11
:10049000592AFF30B006FF30B106FF30B2060130F6
:1004A000B007003003180130B107003003180130E5
:1004B000B2073A1F5C2A5D2A6D2AFF30B306FF306F
:1004C000B406FF30B5060130B30700300318013021
:1004D000B407003003180130B507BA013008B3077C
:1004E0003108B43D3208B53DB51F772A782A8A2AEB
:1004F000FF30B306FF30B406FF30B5060130B30756
:10050000003003180130B407003003180130B5077C
:10051000BA01BA0A3308F0003408F1003508F200D5
:100520003C08B6003608F3003A08B7003708F40074
:100530008F311727813170084001B0007108B10078
:100540007208B200080000304101A800C830A900BC
:100550004330AA00420153084101AB004201540854
:100560004101AC00420155084101AD008631AE2683
:100570008231410128084201A600410129084201B7
:10058000A70041012A084201A800E7304101A80064
:10059000DB30A9002F30AA00420126084101AB0040
:1005A000420127084101AC00420128084101AD0089
:1005B0008631AE26823141012808E5002908E6008F
:1005C0002A08E7008A31562282314101650842013A
:1005D000A900410166084201AA00410167084201E1
:1005E000AB0000304101B8002030B9004130BA0002
:1005F000420129084101BB0042012A084101BC0017
:1006000042012B084101BD0084317A24823141012D
:1006100038084201AF00410139084201B0004101F0
:100620003A084201B10000304101A000D430A100DD
:100630004230A20042012F084101A30042013008CC
:100640004101A400420131084101A5008A31DA22AA
:10065000823103182C2B2D2B342B00304201AF009C
:10066000D430B0004230B10042012F084101BB003C
:10067000420130084101BC00420131084101BD0086
:100680000030B8001630B9004430BA0084317A2402
:100690008231410138084201A0004101390842017C
:1006A000A10041013A084201A2008E31A526823103
:1006B00042012008AC002108AD002208AE002C0841
:1006C0004101C80042012D084101C90042012E0824
:1006D0004101CA0087316027823141014908420146
:1006E000B300410148084201B20033084101ED0066
:1006F0006D084001CF00420132084101ED006D0854
:100700004001D000420157080319872B882B8C2BFE
:100710008831CE2082319F2B33086902031D922B32
:10072000320868020318952B962B9E2B5608031D42
:100730009A2B9B2B9F2BD601D60A882BD60108001B
:1007400054308931E621833142015F088A005E0816
:100750000A00833104305E3E860001308700413F4D
:100760008A00403F0A0083315B304201B7003708FE
:100770004101A0005D304201B80038084101A100EC
:1007800006305E3E860001308700413F8A00403FD0
:100790000A00833142015D08B70037084101A0001B
:1007A0005B308A31A9228331883110208331003AAD
:1007B0000319DB2BDC2BAA2B51308831B420833179
:1007C0005F2CAA30B7003708CE004101A001A00A73
:1007D0004E308A31A9228331AA2BCF01CF0A4101A1
:1007E000A001A00A4F308A31A9228331AA2BD0015F
:1007F000D00A4101A001A00A50308A31A9228331D8
:10080000AA2B02305E3E860001308700413F8A00FD
:10081000403F0A008431AA2B1430B7003708CD00BE
:100820001A2C0B304201B7006230890B152CB70B24
:10083000152C000088316F208331003A031D212CD4
:10084000222C772C01304201CD024D0A031D292CA8
:100850002A2C112CAA2B8831C1208331AA2B1530C8
:100860004201B700C630890B332CB70B332C000084
:1008700052304201B70037084101A00039308931B8
:10088000C3218331063042015206031D482C492CF6
:10089000772C3908B70037084101A1003A304201EE
:1008A000B80038084101A20008305E3E86000130E1
:1008B0008700413F8A00403F0A008431AA2B420151
:1008C0005108103A0319E12B013A0319ED2B023AB2
:1008D0000319012C073A03190C2C013A03192B2C8C
:1008E000363A0319F72B073A03192F2C772CAA2B2A
:1008F0008031312841013808BE003908BF003A086C
:10090000C00003103F0D400DC1004108C200420865
:10091000031D8B2C8C2C932C0030B8000030B900B8
:100920000030BA003A2D3B08BE003C08BF003D082D
:10093000C00003103F0D400DC1004108C70047082B
:10094000031DA32CA42CAB2C0030B8000030B90040
:100950000030BA003A2D47087B3EBE003E08C20771
:100960003808BE003908BF003A08C0001030C03651
:10097000BF0CBE0C890BB72C3E08C1004108C70054
:100980003B08BE003C08BF003D08C0001030C03628
:10099000BF0CBE0C890BC72C3E08C1004108C7061E
:1009A0008030BE003E08C705B917BC17FF30BB0535
:1009B000FF30BC050030BD050030C3000030C4006E
:1009C0000030C5000730BE003E08C600381CE92CC8
:1009D000EA2CF02C3B08C3073C08C43D3D08C53D4C
:1009E0000130BA36B90CB80C890BF12C0130BB358B
:1009F000BC0DBD0D890BF72C0130C602031D012D66
:100A0000022DE62C0930BE003E08C600381C092D18
:100A10000A2D102D3B08C3073C08C43D3D08C53DC9
:100A20000130BA36B90CB80C890B112D0130C5361E
:100A3000C40CC30C890B172D0130C602031D212DD8
:100A4000222D062D4308A0004408A1004508A2005D
:100A50004208BE003E08A3004708BF003F08A400AC
:100A60008F318B27843141012008B8002108B9005B
:100A70002208BA00080040012008A6002108A700AB
:100A80002208A8000310270D280DA9002908AA0094
:100A90002A08031D4C2D4D2D542D0030A000003090
:100AA000A1000030A200FB2D2308A6002408A70007
:100AB0002508A8000310270D280DA9002908AF005C
:100AC0002F08031D642D652D6C2D0030A000003013
:100AD000A1000030A200FB2D2F087B3EA6002608B7
:100AE000AA072008A6002108A7002208A8001030A5
:100AF000A836A70CA60C890B782D2608A900290872
:100B0000AF002308A6002408A7002508A80010307D
:100B1000A836A70CA60C890B882D2608A900290841
:100B2000AF068030A6002608AF05A117A417FF3036
:100B3000A305FF30A4050030A5050030AB00003050
:100B4000AC000030AD000730A6002608AE00201C27
:100B5000AA2DAB2DB12D2308AB072408AC3D2508E9
:100B6000AD3D0130A236A10CA00C890BB22D013095
:100B7000A335A40DA50D890BB82D0130AE02031DC0
:100B8000C22DC32DA72D0930A6002608AE00201CBB
:100B9000CA2DCB2DD12D2308AB072408AC3D250849
:100BA000AD3D0130A236A10CA00C890BD22D013035
:100BB000AD36AC0CAB0C890BD82D0130AE02031D49
:100BC000E22DE32DC72D2B08F0002C08F1002D0895
:100BD000F2002A08A6002608F3002F08A70027081D
:100BE000F4008F311727853170084001A00071088B
:100BF000A1007208A200080041015F08A00060087F
:100C0000A1006108A2000030A3000030A400003061
:100C1000A5008A31DA22853103180F2E102E1C2EE2
:100C200021304101EE000030EF000030DF000030E5
:100C3000E0000030E100AD2E4101610860045F0476
:100C4000031D232E242E2F2E2230EE000030EF0025
:100C50000030DF000030E0000030E100AD2E003059
:100C6000C8008030C900BF30CA000030B800003072
:100C7000B9004030BA00E330E2006208A3005F0828
:100C8000A0006008A1006108A2008B311323853108
:100C900041012008BB002108BC002208BD008431AE
:100CA0007A24853141013808CB003908CC003A0854
:100CB000CD0080316320853141014808DF004908BB
:100CC000E0004A08E100FF30E307FF30E43D5F0841
:100CD000D5006008D6006108D7000030D8009030F9
:100CE000D9000830DA000030DB008D316C25853109
:100CF00041015508DF005608E0005708E1005F0891
:100D0000C8006008C9006108CA007230B8003130FC
:100D1000B9003F30BA006408A9006308A8008A310E
:100D20000922853141012808BB002908BC002A0896
:100D3000BD0084317A24853141013808CB0039085F
:100D4000CC003A08CD00803163208531410148084C
:100D5000DF004908E0004A08E100080041012B08D3
:100D6000AE002C08AF002D08B00003102F0D300D81
:100D7000B1003108B6003608031DBF2EC02EC72EA5
:100D80000030A8000030A9000030AA005F2F28081A
:100D9000AE002908AF002A08B00003102F0D300D57
:100DA000B1003108B7003708031DD72ED82EDF2E2B
:100DB0000030A8000030A9000030AA005F2F0030EA
:100DC000B3000030B4000030B50089303707AE0002
:100DD0002E08B6022B08AE002C08AF002D08B0007C
:100DE0001030B036AF0CAE0C890BF12E2E08B100CE
:100DF0003108B7002808AE002908AF002A08B00063
:100E00001030B036AF0CAE0C890B012F2E08B1009C
:100E10003108B7068030AE002E08B705AC17FF309A
:100E2000AB05FF30AC050030AD05A917FF30A805B4
:100E3000FF30A9050030AA051830AE002E08B20018
:100E40000130B335B40DB50D890B212F2A082D02C1
:100E5000031D302F29082C02031D302F28082B02D8
:100E6000031C332F342F3B2F2808AB022908AC3B3F
:100E70002A08AD3B33140130AB35AC0DAD0D890BF9
:100E80003C2F0130B202031D462F472F202F33087D
:100E9000A0003408A1003508A2003608AE002E08D4
:100EA000A3003708AF002F08A4008F318B278631AD
:100EB00041012008A8002108A9002208AA00080072
:100EC00041014808CC004908CD004A08CE00031073
:100ED0004D0D4E0DCF004F08D5005508031D712F45
:100EE000722F7B2F0030CB000030CA000030C900C9
:100EF0000030C800E42F4808CC004908CD004A085B
:100F0000CE001730CE36CD0CCC0C890B822F4C087E
:100F1000CF004F08D000C917FF30C805FF30C90502
:100F20000030CA054808D1004908D2004A08D30059
:100F3000D4018E30D502D51F9E2F9F2FB72F550875
:100F4000803A8F3E0318A52FA62FA72F722F0130AE
:100F5000D436D30CD20CD10C890BA82F0130CC0085
:100F60004C08D507031DB52FB62FA72FCC2F18304F
:100F70005502031CBC2FBD2FC72F722F0130D13556
:100F8000D20DD30DD40D890BBF2F0130D5025508DA
:100F9000031DCB2FCC2FBE2F50080319D02FD12FDC
:100FA000DC2FD109D209D309D409D10A0319D20AF5
:100FB0000319D30A0319D40A5408CB005308CA00F2
:100FC0005208C9005108C80008004101A000F12FD3
:100FD00040019A11F92F40019A15F92F40019A11F9
:100FE000F92F2008013A0319E82F033A0319EB2FD0
:100FF000EE2F0800FE0012001E00FE0BFB2F003437
:10100E007E01551008007E01551108007E01551213
:10101E00080040015708080040011417080040015D
:10102E001913080040011917080042011117080092
:10103E0042011113080042011110080040019413DF
:10104E009A1708004201D701D70A080041011E086D
:10105E00F1001D08F0000800603051018D000630CF
:10106E00930008007E014E12400114121A1208005D
:10107E007E01CE11400194119A1108007E014E108E
:10108E00400114101A100800640080010131890B10
:10109E004C28003451018C13000063000000000046
:1010AE00080088312220883188311F2088310800BD
:1010BE004101A00020089F00420191171114080061
:1010CE0088311C208831113088315F20883108002A
:1010DE0040015408031D742876280130772800300B
:1010EE000800410121084001CE00410120084001C5
:1010FE00CD000800410121084001C6004101200831
:10110E004001C5000800000042015908031D902847
:10111E0091289328DA01DA0A080010340D342934A4
:10112E000834A13409342134093419340C347E01C5
:10113E004313400113138831162088318E31372620
:10114E00883108007E014E11400114111A117E01E2
:10115E00431240011312191208004101A1007C082C
:10116E00A000210886000130870020088100400180
:10117E00D7010800031040019A1F03140318C82852
:10118E00CB2840019A17CD2840019A130800400140
:10119E009A1334304101A000F130890BD428A00BF2
:1011AE00D428003240019A1708004E010D1040015C
:1011BE004D084E040319E428E528EA284E088A0053
:1011CE004D080A00883108004001450846040319FD
:1011DE00F128F228F72846088A0045080A008831C7
:1011EE007E0155130800FF304F0196009613FF3015
:1011FE009700FF309800FF309900FF309A00FF30C3
:10120E009B00FF309C00FF309D0008007808F00026
:10121E007908F100F2018E30FB007B08F300F40137
:10122E008F31172789317008F8007108F90072089C
:10123E00FA00080002304101A200210886000130A8
:10124E0087002208810040014F084101A2002008BA
:10125E0086000130870022088100400150084101BC
:10126E00A200200A860001308700220881000800B3
:10127E004101A401A501201C452946294A2922081D
:10128E00A4072308A53D0130A235A30D890B4B29D8
:10129E000130A136A00C890B502920082104031D12
:1012AE0059295A2942292508A1002408A00008001E
:1012BE007E01551C632964296729883107208931ED
:1012CE007E01551D6B296C296F2988310A208931C1
:1012DE007E01551E73297429772988310D20893195
:1012EE007E01551F7B297C297F298831EB2089318E
:1012FE0008004101690868046704031987298829D1
:10130E008A298030E9066A08C8006B08C9006C0893
:10131E00CA006708CB006808CC006908CD00803190
:10132E006320893141014808E7004908E8004A086E
:10133E00E900080042015708031DA629A729AC2978
:10134E005A080319AB29AC29BF29D901D90A8C3106
:10135E00692489314201D701D901DA01683042018D
:10136E00B600E430890BB929B60BB9290000C229A1
:10137E0088315120893108004101A20022088600DF
:10138E0001308700DA29C030840001308500400129
:10139E0056084101A10021080319DB2912001E0085
:1013AE00A10BD529DB29CA29400156084101A1000C
:1013BE0020088600013087002108810008004101C5
:1013CE00A1008831FA2089318831332089315001CA
:1013DE0092147E01B801C301CE01CE1440019201D8
:1013EE00930194019414FF309800FF309900FF3060
:1013FE009A009A10410121088A317E2289318B1779
:10140E000B1708004101AD01A91F0E2A0F2A162A3B
:10141E00A809A909A80A0319A90AAD01AD0A280845
:10142E00A0002908A100A2018E30AB002B08A3005A
:10143E002D08AC002C08A4008F318B278A31410176
:10144E002008A8002108A9002208AA0008004F01C0
:10145E00991241018C018D018E018F019201930130
:10146E0098019A019F0142018C018D018E018F011D
:10147E0090019201930194019501960197013F30DD
:10148E009800843091004E010D1017140230410166
:10149E00A0000030A100883178208A310800410177
:1014AE006508DF006608E0006708E1008531FC256D
:1014BE008A3141015F08E8006008E9006108EA002E
:1014CE005C30B800DE30B9003E30BA006808BB00B0
:1014DE006908BC006A08BD0084317A248A31410152
:1014EE003808E5003908E6003A08E700080041012F
:1014FE00A0004F011C107E01C312C31340019316AE
:10150E0093170F307D01C50013307E019F001430FC
:10151E009D000D307D01C60043018F0126309000E5
:10152E000130910092011214FE308E0041012035DF
:10153E0043018D004E010F1019144001D401D60144
:10154E00D70108004101A300C42A54084101230712
:10155E00A10021088600013087000108A200400189
:10156E005408A03E86000130870041012208810008
:10157E000130A10021084001D4074101200840019B
:10158E0054020318CB2ACC2AD22A20305402031C30
:10159E00D12AD22AAC2A54084101A10021084001C7
:1015AE00D500D40108004101A21FDE2ADF2AEC2A51
:1015BE002008003CA0002108031C210F003CA100C4
:1015CE002208031C220F803CA200A51FEF2AF02A3E
:1015DE00FD2A2308003CA3002408031C240F003C12
:1015EE00A4002508031C250F803CA5008030A20610
:1015FE008030A50625082202031D0B2B240821028C
:10160E00031D0B2B2308200203180E2B0F2B112B5F
:10161E000310122B03140800410122082104200498
:10162E00031D1A2B1B2B282B230886008701003045
:10163E00C03FC13F0030A0000030A1000030A2002A
:10164E00502B22087F39A400A501A435A50D23082F
:10165E00860087012408C03F2508C13F210D210DBA
:10166E000139A400A50123088600870124088104FE
:10167E0041312508810423088600870182308107C5
:10168E004131FF30813D7F31220880393F38A20041
:10169E00A11308004E0119100F1043010C08F2009F
:1016AE007208F3000F1D5C2B5D2B712B8F1E602BB0
:1016BE00612B6A2B111F642B652B6A2B03308C3127
:1016CE00BC248B31892B01308C31BC248B314301EE
:1016DE001016892B8F1A742B752B7A2B00308C31A8
:1016EE00BC248B31892B7308F2007208FD00023086
:1016FE008C31BC248B31430110164E010F1C882BEC
:10170E00892B842B4E010F10430110164E01191414
:10171E0008004101DD018E30DA005A08DC00D91FC5
:10172E00992B9A2BB32BD609D709D809D909D60AE2
:10173E000319D70A0319D80A0319D90ADD01DD0ADC
:10174E00B32B0130D936D80CD70CD60C890BA92B5C
:10175E000130DA005A08DC07FF305905031DB82B9B
:10176E00B92BA82B5608A0005708A1005808A200B4
:10177E005C08DA005A08A3005D08DB005B08A400D1
:10178E008F318B278B3141012008D6002108D700DD
:10179E002208D800080041015E08A0005F08A100E1
:1017AE006008A200E530E1006108A3008B3113232D
:1017BE008B314101E61FE42BE52BEC2B0030DE00D4
:1017CE000030DF000030E000182C003066021530CB
:1017DE0003196502031CF42BF52BF62B182C5E084F
:1017EE00C8005F08C9006008CA00873160278B31C6
:1017FE0041014B08D9004A08D8004908D7004808CB
:10180E00D6008B3190238B3141015608E2005708E8
:10181E00E3005808E4006208DE006308DF00640895
:10182E00E000080041012108031D1E2C1F2C682C0E
:10183E0022088600013087000108A300230840011A
:10184E00D90041012208043E8600013087000108BC
:10185E00A300A4012208033E860001308700010880
:10186E00A500A6012508A600A5012308250442010E
:10187E00E8004101240826044201E900400159080C
:10188E0003194A2C4B2C682C1A1429304101A40040
:10189E009630A3007F30890B522CA30B522CA40B35
:1018AE00522C02308731E5278C3129304101A400BA
:1018BE009630A3007F30890B622CA30B622CA40BF5
:1018CE00622C0800883119208C3142015703031D08
:1018DE00712C722C742C40011A1401308731E527BB
:1018EE008C3140011A16191605304201B5000F3021
:1018FE00B400F130890B812CB40B812CB50B812CEB
:10190E004201D801D80A4001D101D2010030420172
:10191E00D3000030D4000030D500883167208C31E0
:10192E0042015808031D9C2C9D2C972C8831582061
:10193E008C318231A3228C3142015A080319A82C12
:10194E00A92CAD2C02308731E5278C3140011A12BB
:10195E00191242015703031DB52CB62CB82C4001A9
:10196E001A10883116208C310800F100012D40012B
:10197E00D301D30A0F2D7D08F0007008FC00D601AC
:10198E00D701D70AE72C213056020318CF2CD02CC2
:10199E00E72C7D08F0005608C03E86000130870017
:1019AE00700881000130F0007008D607E72C400166
:1019BE005308003A0319CA2C013A0319C22CCA2C37
:1019CE00D3010F2D4001550854020318EF2CF02CB3
:1019DE00FE2C5408A03E860001308700010843010A
:1019EE008C000130F00070084001D4070F2D430128
:1019FE008C010F2D7108003A0319BE2C013A031900
:101A0E00E92C033A0319DE2C013A03190F2D0F2D81
:101A1E00080088319E208D314F01161088314520E7
:101A2E008D3105304101A3000F30A200F130890B3A
:101A3E001E2DA20B1E2DA30B1E2D05304101A30042
:101A4E000F30A200F130890B2A2DA20B2A2DA30BE9
:101A5E002A2D88313F208D3105304101A3000F30F2
:101A6E00A200F130890B392DA20B392DA30B392D84
:101A7E00883125208D31883113208D3188313920E0
:101A8E008D318831A9208D314E0116167E015513E8
:101A9E00541353178A304101A0000830A100883139
:101AAE0081208D31AF304001C200BE30C3003A30CC
:101ABE00C4008A312E228D31CF304101A0000D306D
:101ACE00A100883178208D31080041015B08A1000A
:101ADE005A08A0000330A2000030A30089313F2134
:101AEE008D3141015808200784005908213D850099
:101AFE00003FDC00013FDD00023FDE00C22DFF3063
:101B0E00DA07FF30DB3D5B08A1005A08A000033066
:101B1E00A2000030A30089313F218D3141015808C8
:101B2E00200784005908213D8500003FC800013F71
:101B3E00C900023FCA005C08B8005D08B9005E0823
:101B4E00BA005508BB005608BC005708BD008431CA
:101B5E007A248D3141013808CB003908CC003A087F
:101B6E00CD00803163208D3141014808DC004908E9
:101B7E00DD004A08DE005A085B04031DC72DC82D80
:101B8E00862D5C08D5005D08D6005E08D7000800DB
:101B9E0088312D208D3171084001BE007008BD00C6
:101BAE004208A0004308A1004408A2003E08F90024
:101BBE003D08F80089310D218D3178084001A300D0
:101BCE007908A4007A08A50085313B258D314001A6
:101BDE002008BF002108C0002208C100420153089E
:101BEE004001B000420154084001B10042015508C5
:101BFE004001B2003F08A0004008A1004108A20029
:101C0E003F08A3004008A4004108A50085313B25EC
:101C1E008D3140012008B3002108B4002208B50020
:101C2E00813183218D31400130084201D3004001C2
:101C3E0031084201D400400132084201D500013082
:101C4E004001D1070030D23D0130520290300319CD
:101C5E005102031C332E342E362E4201D8010800B9
:101C6E00883119208E3105304101A1000F30A000BE
:101C7E00F130890B402EA00B402EA10B402E883147
:101C8E0016208E3105304101A1000F30A000F13039
:101C9E00890B4F2EA00B4F2EA10B4F2E88311920E2
:101CAE008E3105304101A1000F30A000F130890BBB
:101CBE005E2EA00B5E2EA10B5E2E883116208E316D
:101CCE0015304101A1004B30A000BE30890B6D2EA6
:101CDE00A00B6D2EA10B6D2E0000883119208E31B8
:101CEE0005304101A1000F30A000F130890B7D2E8F
:101CFE00A00B7D2EA10B7D2E883116208E31053046
:101D0E004101A1000F30A000F130890B8C2EA00BE9
:101D1E008C2EA10B8C2E883119208E31053041016D
:101D2E00A1000F30A000F130890B9B2EA00B9B2E33
:101D3E00A10B9B2E883116208E31080042012008FF
:101D4E004101DE00420121084101DF00420122086B
:101D5E004101E0008B31D2238E3141015E08E70054
:101D6E005F08E8006008E900420120084101EA002E
:101D7E00420121084101EB00420122084101EC0021
:101D8E00893180218E31410167084201A300410152
:101D9E0068084201A400410169084201A500230818
:101DAE004101C800420124084101C9004201250831
:101DBE004101CA00420120084101CB004201210825
:101DCE004101CC00420122084101CD008031632047
:101DDE008E31410148084201A000410149084201EB
:101DEE00A10041014A084201A20020084101DE0083
:101DFE00420121084101DF00420122084101E000B9
:101E0E008B31D2238E3141015E084201A000410187
:101E1E005F084201A100410160084201A2000800D2
:101E2E00730803191B2F1C2F232F720871047004C3
:101E3E00031D222F232F342F0030F0000030F1002D
:101E4E000030F2008A2F0130F5007508F3070130DB
:101E5E00F236F10CF00C890B2F2FFE307205031D9C
:101E6E00392F3A2F2A2F4F2F0130F5007508F3071F
:101E7E000130F007003003180130F107003003186D
:101E8E000130F2070130F236F10CF00C890B4A2FBB
:101E9E00FF307205031D542F552F3B2F5E2F01303F
:101EAE00F3020130F035F10DF20D890B592FF11BB4
:101EBE00612F622F682F023073020318672F682F6D
:101ECE00562F73186B2F6C2F722FFF30F0057F304B
:101EDE00F105FF30F2050310F30C7308F500F6015F
:101EEE00F7011030F535F60DF70D890B792F7508C2
:101EFE00F0047608F1047708F20474080319882FA9
:101F0E00892F8A2FF2170800410123080319902FF9
:101F1E00912F982F220821042004031D972F982F0C
:101F2E00A92F0030A0000030A1000030A200FF2F2A
:101F3E000130A5002508A3070130A236A10CA00C84
:101F4E00890BA42FFE302205031DAE2FAF2F9F2F1E
:101F5E00C42F0130A5002508A3070130A0070030CB
:101F6E0003180130A107003003180130A207013019
:101F7E00A236A10CA00C890BBF2FFF302205031D2A
:101F8E00C92FCA2FB02FD32F0130A3020130A03595
:101F9E00A10DA20D890BCE2FA11BD62FD72FDD2F72
:101FAE00023023020318DC2FDD2FCB2F2318E02F56
:101FBE00E12FE72FFF30A0057F30A105FF30A205EE
:101FCE000310A30C2308A500A601A7011030A53508
:101FDE00A60DA70D890BEE2F2508A0042608A10437
:101FEE002708A20424080319FD2FFE2FFF2FA21786
:101FFE000800003400340034003480343F34F034B0
:10200E00FF34BE34E234A9343E3483347634BE34E5
:10201E00AE342B343E343C34C334BD34D23413345A
:08202E003D347834D334BB3497
:020000040001F9
:0A000E00EC3F3F3F8A3FFF3FFF3FFA
:00000001FF
