:020000040800F2
:1000000000500020A5DE00083DDD00083FDD0008AF
:1000100000000000000000000000000000000000E0
:1000200000000000000000000000000041DD0008AA
:10003000000000000000000043DD000845DD00086E
:10004000F5DE0008F5DE0008F5DE0008F5DE000844
:10005000F5DE0008F5DE0008F5DE0008F5DE000834
:10006000F5DE0008F5DE0008F5DE0008F5DE000824
:10007000F5DE0008F5DE0008F5DE0008F5DE000814
:10008000F5DE0008F5DE0008F5DE000800000000DF
:10009000F5DE0008F5DE0008F5DE00084DDD00089D
:1000A000F5DE0008F5DE0008F5DE0008F5DE0008E4
:1000B000F5DE0008F5DE000800000000F5DE0008AF
:1000C00010B5064C2378002B07D1054B002B02D02E
:1000D000044800E000BF0123237010BD200200206F
:1000E00000000000F0380108044B10B5002B03D0CD
:1000F0000349044800E000BF10BDC04600000000F6
:1001000024020020F038010810B50100024800F078
:10011000BFFA002010BDC0466003002010B50248A1
:1001200000F0BEFA002010BD6003002010B50100F1
:10013000014800F0B9FA10BD6003002010B50F248B
:1001400084B06C44019200940A000100034800F05E
:1001500051FD0020205604B010BDC04660030020B1
:1001600010B50F2484B06C44019200940A00010081
:10017000034800F069F80020205604B010BDC046C6
:100180006003002000B583B0009313000A00010053
:10019000024800F091FC03B000BDC046600300209F
:1001A00000B583B0009313000A000100024800F07C
:1001B000D3FC03B000BDC0466003002030B587B05B
:1001C00005AC039413240A9D6C440093029413001D
:1001D00001950A000100054800F076F900200B9B0C
:1001E000059A20561A6007B030BDC0466003002053
:1001F00030B587B005AC039413240A9D6C4400937A
:100200000294130001950A000100054800F0D0F99E
:1002100000200B9B059A20561A6007B030BDC046DF
:100220006003002010B50F2484B06C440192009448
:1002300002000B00034800F04FFA0020205604B0E3
:1002400010BDC04660030020F0B5DE464E46454670
:1002500057469B460023E0B58BB01400149A050066
:1002600013705B461B788946002B1AD0AC460122DE
:1002700000260027002000215D46A046159C8C4BDF
:10028000D3181B01E318186059605E739F601E73DA
:100290009E7301322B78D2B29342F0D2AB464446E1
:1002A0006546002C73D04B465B7B5A1ED2B29846F3
:1002B000172A00D99DE07F4901230800104103421D
:1002C00000D196E09340002042464F46C8460126A2
:1002D000049102900592AA46A14615E0744BF718C6
:1002E0003F0147447A7B531EDBB2172B00D980E0D5
:1002F00004990120194108427BD0012199400B004B
:100300000299194200D0C2E00299194302916A4948
:10031000BB688C466244013A1478C122A50055445A
:100320009200A958181C039305F0BAF9002800D0D0
:100330009EE0C9229200A958039805F0C5F900284B
:1003400000D095E02E34E40054443B682268934288
:1003500000D193E00136F6B2B145BFD24C46C1465A
:10036000059B013C98464B46E4B2240110335546A8
:100370004E46E418414600E0717BB36828000093C4
:1003800032687368103602F0E5FAB442F4D12800FE
:1003900001F09CFD5B461B789846002B00D17CE069
:1003A00000239846454B01249946454B00260127DA
:1003B0009A464B4633411F420ED053469B5D5C33F9
:1003C000FF335B005A5B3F4B9A4205D02100280067
:1003D00002F0AAF900281BD10134E4B20136162C30
:1003E000E7D1A52300229B00EA50280000F0AAFED6
:1003F00004E0FF23149A1370002398465B4642469C
:100400001A700BB03CBC90469946A246AB46F0BD74
:1004100004AA94460B236344009307AA08AB210067
:10042000280002F05DF95B461B7843450AD8032398
:10043000149A28001370A52300229B00EA5000F0B4
:1004400081FEDBE743460133DBB29846159A184B31
:1004500094464344079A1B0163449A6004AAD27AE3
:100460005C739A731F730899099A19605A60B3E70D
:10047000FE23149A137000239846BFE77A686368D6
:100480009A4200D066E70422149B1A7062E7FA23AE
:10049000149A137000239846B0E70223149A280098
:1004A0001370A52300229B00EA5000F04BFEA5E745
:1004B000FFFFFF0F0F20E000004C0108EF79120052
:1004C000E84B0108FFFF0000F0B54E465746DE46F8
:1004D0004546E0B51E00DF2385B09246109A81465E
:1004E00013700023119A136010330393172E2CD925
:1004F00000292AD1109B012419702C4B0025984605
:10050000002301279B4604E00134E4B201350B2CA3
:1005100022D043462B411F42F6D05B460E9A0093F1
:1005200021000F9B484602F007F80028ECD00F9BF3
:1005300003AA01930E9B310000930300504600F084
:10054000DBFD109B18700028DED005B03CBC904647
:100550009946A246AB46F0BD109B1B785BB2002BC0
:10056000F3D10F9A0E99484600F08AFF00280ED169
:100570000024109B1C57002CE7D1119B039A1900F3
:100580001A60504600F02EFF109B1C70DDE70F9B99
:1005900003AA01930E9B310000930300504600F024
:1005A000ABFD109B04001870E5E7C0461703000080
:1005B000F0B54E465746DE464546E0B51E00DF2301
:1005C00085B09246109A814613700023119A1360E9
:1005D00010330393182E2CD900292AD1109B012403
:1005E00019702A4B00259846002301279B4604E0FA
:1005F0000134E4B201350B2C22D043462B411F427B
:10060000F6D05B460E9A009321000F9B484601F0FE
:10061000FDFF0028ECD00F9B03AA01930E9B310035
:1006200000930300504600F067FD109B18700028EF
:10063000DED005B03CBC90469946A246AB46F0BD24
:10064000109B1B785BB2002BF3D100F08BFF0028CE
:100650000ED10024109B1C57002CEAD1119B039A49
:1006600019001A60504600F0BDFE109B1C70E0E7B8
:100670000F9B03AA01930E9B310000930300504689
:1006800000F03AFD109B04001870E5E71703000026
:10069000012307220B7003334B708A70CB707047B5
:1006A00010B500F08DFC10BD013910B50400032910
:1006B0000DD8683003F06CFA0121200002F000FA36
:1006C000044B022123666366200002F0F9F9002042
:1006D00010BDC0460000C841F0B5DE4657464E4644
:1006E0004546E0B516001F00002389B0139D129AFD
:1006F00002960397AB60EB602B612B751370C84BB0
:100700000400C35A9B4600F01DFDBC239B009A4683
:10071000A24453461A685B681100194332D0B61AD6
:100720009F4104960597BF4B0022E65A0020BE4B1E
:10073000BE490DF00FFE04F04BFC05F07DF83200D1
:10074000002305F019F80B0702091A430B11904614
:100750009C4602000B0006000F0004980599121A2F
:100760008B41634500DD7AE100D175E1049805997C
:10077000801BB941614502DC04D1404502D96423A4
:10078000129A137000232B606B60AB60EB602B61DF
:100790002B7504AB9C460D260E2766446744330038
:1007A00000972A000121200000F0D6FC3B889946E2
:1007B0003378002B05D09E4BE35C6B749D4BE35C60
:1007C000AB7433002A0000970221200000F0C4FC23
:1007D0003B881A1C4B4500D9DDE093B2984633782C
:1007E000002B06D08B23DB00E35CEB74914BE35CC6
:1007F000AB7433002A0000970321200000F0ACFC0A
:100800003B881A1C434500D9BDE093B29946337822
:10081000002B02D0874BE35CAB74330004210097BC
:100820002A00200000F098FC3B88191C4B4500D999
:10083000A3E08BB25B4500D99DE0BE2292009146B9
:100840008BB298463378A144002B28D001232B7417
:10085000794B0021E65C363B7600A619F35AAB8152
:100860008B23DB00E35CEB74724BE35CAB74734B88
:100870005B7D89339B00185904F00CFF002800D1E0
:1008800091E06F4BE35C002B00D08CE08323DB0016
:10089000F35AEB814946029A039B0A604B60029A25
:1008A000039B51460A604B60664B41469B46E35AA8
:1008B00018009A4604F0B4FD43465E1A594BB6B28E
:1008C000E6520433E15A5346F018398080B204F0FE
:1008D000A7FD5B460022E1520020534B53490DF027
:1008E00039FD04F075FB04F0A7FF3200002304F08B
:1008F00043FF029E039F002236184F41504B2E604B
:100900006F603000E25439004B461A685B68801A09
:10091000994104F0CBFF4C4905F088FA4B49051C7E
:1009200004F0BEFE00281CD14949281C04F0CCFE6E
:10093000002816D1C023300039009B00E3181A6844
:100940005B68801A994104F0B1FF3F4905F06EFAE7
:100950003E4904F0A5FE3F4B002800D09AE0E05449
:1009600002E065223B4BE25409B03CBC90469946FC
:10097000A246AB46F0BD59465FE749468BB25B45A0
:1009800000D85AE7F7E7424693B299463378002BEE
:1009900000D142E73EE74A4693B298463378002BAF
:1009A00000D126E71EE7BE239B0099460833A144E9
:1009B000E6184B46716830681A685B68994229DD11
:1009C00002000B0002980399801A994104F06EFF0F
:1009D0001D4905F02BFA00F0C7FD194BE881E35CD7
:1009E000002B5AD0FE239B0500931621029A039BED
:1009F000200001F0AFFF8023AA689B031343AB6084
:100A00000F4BE35C002B00D144E7029A039B32605A
:100A1000736044E79942D5D19042D3D9D0E7C0461C
:100A20000E0400000C04000000001C4000002440E4
:100A3000590400005704000056040000004C01084F
:100A40005B04000054040000286B6E4E00007042EE
:100A5000000070435C040000424500D886E653461F
:100A60001E685F68114B0022E45A0020104B1149A8
:100A70000DF070FC04F0ACFA04F0DEFE220000235E
:100A800004F07AFE642336184F41129A2E606F608C
:100A9000137069E76622E25466E70023162100938B
:100AA0002000029A039B01F055FFA9E70C04000007
:100AB00000001C4000002440F0B5DE464E4657467C
:100AC00045461624E0B58946160089B06C441D00E1
:100AD00006AB009383469A4648462300129A31009B
:100AE00000F08CFF0020205600282AD108235B420A
:100AF0009846B044172607AF6E4407E01A00290055
:100B0000584600F0EFFF207000281AD1069B43459D
:100B10001ED24846029701960094129B2A00514625
:100B200000F06AFD0020205600280AD13178079B8A
:100B3000FE29E3D02A00584601F096F920700028DB
:100B4000E4D009B03CBC90469946A246AB46F0BD05
:100B500000202056F5E7C046F0B5DE464E46574623
:100B600045461624E0B58946160089B06C441D0040
:100B700006AB009383469A4648462300129A3100FA
:100B800000F03CFF00202056002829D108235B42BA
:100B90009846B044172607AF6E4406E019002800B7
:100BA00001F07EF8207000281AD1069B43451ED222
:100BB0004846029701960094129B2A00514600F085
:100BC0001BFD0020205600280AD13178079BFE2902
:100BD000E4D02A00584601F08BFE20700028E4D0B3
:100BE00009B03CBC90469946A246AB46F0BD0020F9
:100BF0002056F5E7F0B5DE46454657464E46E0B589
:100C00008FB0059300239346189A07AD1370B64A28
:100C1000030094466344039088461C221900280070
:100C200010F0DEFD5B46002B00D1A5E043461E79A7
:100C3000013EF3B2012B00D820E1002301249A46A3
:100C40005F463300464616E0A84A01211A41114288
:100C500014D0994053460B4200D1D2E0F323189AA6
:100C600013700134E4B2A7420FD3A14BE318DB00A9
:100C7000F3181B79013BDBB2142BE5D90A23189A30
:100C80000134E4B21370A742EFD2189B1B787F2B7C
:100C900075D9059B1B78072B00D8A2E00023019390
:100CA0000133029300230493924B01259B4609E0F4
:100CB000029B019A0133DBB2013202930192192B9C
:100CC00000D193E08C4B019A13411D42F0D0049B5C
:100CD000874F0133DBB29C460493199B67449C46C3
:100CE0006B46FF001B7A67443B71844B00243B60DA
:100CF0002B0093407D4E9A46B9460EE0804B9845B6
:100D000008D0404605F096FD011C7E4805F08EF89F
:100D10004B4618600134152CCAD0330023411D42C4
:100D2000F8D05A46A300D35852461342F2D04B464D
:100D3000754A1F689446754B039A1B5D6F4963445F
:100D400094465B0063445B88381C984604F0A2FC20
:100D50000028D3D1404605F06DFD011C694805F01F
:100D600065F88046011C381C04F09AFC0028D1D09C
:100D70004B4642461A60CDE70C23189A137029009F
:100D8000039800F01BFA189B002800D074E00020A4
:100D90001856002800DA7CE75C4B01249846039B38
:100DA00001269946514F3A00631E1A41E1B216429C
:100DB0000FD042465448D35C84465A1E63445B00BD
:100DC00052004B44AA5A5B88934202D0484600F036
:100DD00053FC0134162CE6D1059B1B78072B00D958
:100DE0005CE7F123189A1370002304936A46059B6D
:100DF000127C1A700FB03CBC90469946A246AB4696
:100E0000F0BD3B4BE318DB0098465346B0440B4320
:100E10009A4643461B680021181C994604F03AFC88
:100E2000002840D0F623189A13700021484604F099
:100E30004BFC002805D03149484604F031FC00281D
:100E400070D14846002104F025FC434258414042FD
:100E500083B29946189B1B785BB2002B00D000E749
:100E60002A4A434694464A461B796344013B1B7811
:100E7000013B5B00EA52F4E618708AE74346002122
:100E8000186804F007FC002800D1D6E6204B2A8819
:100E90009A421ED06A889A421BD00B23189A13706C
:100EA00000230493A2E71549484604F0F3FB002809
:100EB000C7D11849484604F007FC002805D1164957
:100EC000484604F0EDFB0028AFD0F223189A1370C7
:100ED000ABE7124B0399CB56002BDFD10122104B0D
:100EE000CA540023049381E72A040000EF7912001A
:100EF000FFFFFF1F944B01080F20E00000FF7F471A
:100F0000FFFF00000000C84213020000E84B010888
:100F100030750000000020410E74DA3A5C040000D5
:100F20005B0400004946224804F080FF0DF0B2F94E
:100F300004F04CFC83B2994632000023D3464E465F
:100F4000A24691461C0001971A4A434694461B79D3
:100F5000039A6344013B1B78E318A433FF335B001F
:100F60009F5A380007F05CFA134A144B06F012FC43
:100F700004F02EF804F042FC83B2FA1A92B2B242A4
:100F80000AD8FB189BB2B34206D34B465446B1462F
:100F9000DA46019F1E005DE70E34542CD4D1F423B1
:100FA000189A54464E46DA46019F137059E6C046D9
:100FB0000000C842E84B01087B14AE47E17A843F49
:100FC00010B5040000F0D2FE200000F0D5FC200097
:100FD00000F072FB200010BDF8B54546DE465746CE
:100FE0004E46E0B5070001F049FC394B0124394E6B
:100FF0000125984602E00134162C13D03200631EFE
:101000001A41E1B21542F6D04246D35C324A38006A
:10101000944663445B00FB185A88013401F0ECFCF1
:10102000162CEBD1380001F089FB2A4B00269A469A
:10103000274B9B4602E00136152E24D05346334100
:10104000DB07F8D55B46254A9B5D9446FB18634455
:101050001B78002BEFD0224A7300D35E00259946FF
:1010600001230124984604E00134E4B201350B2C3D
:10107000E1D04B4642462B411A42F5D021003800C0
:1010800001F088FCF0E70024164B0E22FC54164BAE
:101090000021F81810F0ADFB144BFC54144BDB7816
:1010A0005433FF335B00D85B124BFA1800231188CE
:1010B0000133814208D00232042BF8D13CBC904667
:1010C0009946A246AB46F8BD084ABB54F6E7C0466F
:1010D000E84B0108EF7912001302000045040000FC
:1010E000684B01085A040000460400005604000042
:1010F000004C010812040000F0B516689C46F31875
:101100008B4219D806998C4519D86146002910D010
:101110006346059D0133012400E0166801192F780C
:101120008919013901340F700135A342F5D11368D3
:10113000634400201360F0BD29204042FBE72620D5
:101140004042F8E7034B10B5C35C002B01D0FFF71A
:1011500043FF10BD5A040000F8B51F0000233B7088
:10116000124B4C1E1B5D05005433FF335B00195AB4
:10117000069B160019800E4B994210D00D4BC05A99
:1011800004F04EF989B200290AD10123FF211A0087
:101190000C40A240B1683B700A43B2603375F8BDA1
:1011A000054BEB5C002BF0D1F9E7C046004C010881
:1011B000FFFF0000540400005B040000F0B54E4641
:1011C00057464546DE46E0B507007B4AE1240D0060
:1011D000002301219446B9467848794E83B0E40053
:1011E00002001A41114276D0764FF25CB846424472
:1011F0005200525BA2426ED062456CD04F46724B99
:101200000121FB5AC8469C461C0000236B48020083
:101210001A4111420AD06B4FF25CB9464A4452005F
:10122000525B171CA24200D9271CBCB20133152BFC
:10123000EDD1614B474699469C4200D1B6E0210072
:10124000604604F0EDF889B2002900D0B0E0002338
:1012500098465A4B9B4601239A464346A0461C009B
:101260005B46524623411A420ED0564A335D94469D
:1012700063445B00585B484506D0414604F0D0F813
:1012800089B2002900D093E00134152CE8D1002365
:10129000494C08229346494A4C48904601229446BC
:1012A000454A914659469A0082580A4220D0424601
:1012B00061461A4111421BD04249F25C8A465244AF
:1012C0005200525B4A4513D04C4510D0A2420FD079
:1012D0001120404204E00133152B00D080E70020AC
:1012E00003B03CBC90469946A246AB46F0BD140004
:1012F0000133152BD6D1304B9C4255D0344BFA18C4
:10130000002303E001330232042B4DD01188A142A7
:10131000F8D183229200944663445B00FB185C88FA
:101320000434A4B200239846244BAA4699460123CC
:101330009B464346A0461C004B465A4623411A4250
:101340002ED0204A335D9446524663445B009D5A3A
:10135000280005F06FFA1F4B0190F85C1E4B40000F
:10136000FA5CC0B25200013BD2B28218F85C400075
:10137000C0B28018404480B205F0A6FA174904F0C4
:101380002DFF174904F052FD011C019804F088F963
:10139000002805D0084B9D4202D0122040429FE712
:1013A0000134152CC8D19AE70424BBE7002370E769
:1013B0001020404294E7C046FFFF0000EF79120082
:1013C000E84B0108FFFFFF7F0E040000944B01086B
:1013D0001204000057040000590400000000C84235
:1013E00000007A4470B588B0244B03AD04000E00B1
:1013F000042202A92800029310F0F2F90023EA5C0B
:10140000E2540133042BFAD100233D2204A90492B3
:10141000059306A8353A10F0E3F906A9201D082225
:1014200010F0DEF9336802A9103B04222800029371
:1014300010F0D6F92B78200023736B786373AB78A8
:10144000A373EB7801ADE3732A00316803F070FEFB
:1014500033682A78E3181A7133686A78E3185A7186
:1014600000223368E3189A7133689C466444E27141
:1014700033680833336008B070BDC0460407040108
:10148000F0B54646D6464F46C0B584B091466A464A
:10149000D51D072280462A70FE202A000E0003F088
:1014A00089FD2B780390002B16D0294B01249A46F6
:1014B000284F072C0AD8A300FB589F4643465246A4
:1014C0003100985A03AB4A4601F0B4FB01342B7843
:1014D000E4B2A342EDD203980A2102AC6944088029
:1014E0000222200010F07CF923780398337063788F
:1014F000737004B01CBC90469946A246F0BDFC2017
:10150000800003AB4A463100404401F06BFEDDE74A
:10151000D220800003AB4A463100404401F026FE51
:10152000D4E78B23DB0042463100D05C03AB4A4654
:1015300001F024FCCAE7084BF5E7084803AB4A462C
:101540003100404401F0EAFDC0E7054BEBE7C0463F
:101550000E040000703C0108570400001204000053
:101560005904000000207047812170B5C905041C92
:101570000DF016FA1949051C201C0DF011FA184936
:10158000061C281C04F02AFE1649051C301C04F019
:1015900025FE011C281C04F0AFFA211C051C201C90
:1015A00004F01CFE104904F019FE011C281C04F074
:1015B000A3FA0E49051C201C04F010FE011C281C77
:1015C00004F09AFA0A4904F097FA0A4904F006FE70
:1015D0000CF060FE04F0FAF880B270BD00004040EC
:1015E000598207B0DFE0C2343767D9B85A8E863CDB
:1015F0006A92E43E00007A44F0B5C6461F0000231C
:1016000000B582B01600089A0C001370099A050004
:1016100013700B6801A9C25CC3185B780A704B7029
:1016200006236B4498461800022210F0D9F843466E
:1016300018880A9B1860B84219D800280CD03100CD
:1016400001222768AB18BC466344013B1B7801327A
:101650000B7001319042F4D2B378099A1370236869
:101660009C466044206002B004BC9046F0BDE0237C
:10167000089A1370F7E7C04610B585240B4BE400B9
:10168000591801390B78591E5B00C3181C5B944232
:1016900005D0074C4118A446012461440C708521F3
:1016A000C9005A520122034BC25410BDE84B010835
:1016B000460400005A040000F8B50222DE464E46F9
:1016C000454657468D4BE0B5C2540133013AC254EA
:1016D0008B4B0432C2548B4B06001332C0188A491C
:1016E00010F07EF8D2239B00F518A833F2180123DE
:1016F0002C005B42238002349442FBD1834BEE20CA
:101700009C46F72362469B00F250814A0433F25212
:10171000804B81499A46D82352469B00F2507F4B1A
:1017200057469B46D9235A469B00F2500433F25049
:1017300052460433F2507A4A0433F2505A46043384
:10174000F2500833F2500433F1500433F1500433B3
:10175000F1500433F1500433F150724A0833F15020
:101760000433F2500433F2500433F2500433F25095
:101770000433F2500833F2506B4B80003350043086
:101780003350043033500430335004303350083079
:10179000335088383750043037505F460430375064
:1017A000043080466148814640464F463750574690
:1017B000043037505F4604303750DE275046BF00B4
:1017C000F051E52080003150EC2189007250F32265
:1017D0009200B350FA2362469B00F250E03B402255
:1017E0005349F0180FF0FCFFC423524A9B00F250FB
:1017F000C32200239200B3504F49043AB3500C3235
:10180000B1500832B3500432B3500432B350CC2339
:101810004A4A9B00F2504A4A043BF250494A043B70
:10182000F250494A0C33F2508023CF22DB0592005C
:10183000B3500432B350D123444A9B00F250444A7F
:101840002300B118012252421A8002338B42FBD18D
:10185000404B414A8221F2520023C9003F48735253
:101860002B88834203D0725A9A4200D273520235B7
:10187000AC42F5D13A4A002394468522D2009346E1
:10188000384A012190463848384D02001A41114229
:101890001BD0EA5CF832FF325200975B62469A5CDA
:1018A000AA18013A1278541EA1465C465200B2189A
:1018B000145BBC4205D02E4CB144A246D1444C46E8
:1018C00021705C4617534246B1540133152BDCD1CD
:1018D000284A274BB1180122F3181A7001338B42A2
:1018E000FBD1204BF35C002B02D03000FFF774FBE0
:1018F0003CBC90469946A246AB46F8BD5704000052
:101900005904000012040000244B0108DC05DC052A
:10191000DC050000307530752C012C01640064007A
:101920003075640008070807701770176400307579
:10193000E44A0108000082C200002A430000FA4283
:101940000000C8420024F449806A494B000010415D
:101950000C0400000E04000030750000FFFF0000C2
:10196000CC4A01085A040000EF791200E84B010844
:1019700046040000540400000023174A30B5835485
:10198000164A01248352BC239B000022C118002365
:101990000A604B60BE21890041180A604B60C0217B
:1019A000890041180A604B600D4B0E4A0021C2525B
:1019B0000D4A0E4B82181500C31864421C80023376
:1019C00011700132AB42F9D16622094BC154094B67
:1019D000C154094BC25430BD5604000054040000E9
:1019E0000C04000030750000460400002A040000CA
:1019F0005A0400005B0400005C040000F0B51D0008
:101A0000002389B00F000E9904000B60172F1AD91C
:101A1000974214D8002303AEE25CF2540133042B46
:101A2000FAD10422310002A80FF0DAFE029B2C4A00
:101A300093420BD0013309D0DE232B7001E0DA236F
:101A40002B7009B0F0BDDB332B70FAE7211D0822A3
:101A500006A80FF0C5FE082206A904A80FF0C0FED4
:101A6000049B059A3D2B04D0013302D0DD232B705B
:101A7000E7E7002AFAD1237B31003370637B04222D
:101A80007370A37B02A8B370E37BF3700FF0A8FE22
:101A9000029E33001833BB4202D0D8232B70D0E70C
:101AA000310001AA2000103103F042FB6B46A4195B
:101AB0001A79237D9A4202D0DC232B70C1E76B4652
:101AC0005A79637D9A42F7D1A37D002BF4D1E37D4F
:101AD000002BF1D110220E990A602B70B1E7C0469D
:101AE00004070401F0B5DE464E4645465746E0B5CC
:101AF000BDB004AB0193994603AB00930B230500E3
:101B00006B44FE200C0003F029FA6B460B2018569C
:101B1000002874D1D2239B009846A833EE18544B6A
:101B200002279B46534BA8449A467B1EDBB2072BE9
:101B300003D852469B00D3589F464946200001F0E7
:101B400009F95B46E854082F08D00137FFB2ECE7EB
:101B50004946200001F058F8474BE8528221002303
:101B60004046C900454C6B520388A34203D06A5AD1
:101B70009A4200D26B5202308642F5D1404A00238D
:101B800094468522D20093463E4A012190463E4823
:101B90003E4E02001A4111421BD0F25CF832FF3275
:101BA0005200575B62469A5CB218013A1278541E92
:101BB000A1465C465200AA18145BBC4205D0344CC6
:101BC000A944A246D1444C4621705C461753424674
:101BD000A9540133152BDCD12E4A2D4BA918012213
:101BE000EB181A7001338B42FBD1264BEB5C002BB8
:101BF00002D02800FFF7F0F96B460B2018563DB0D5
:101C00003CBC90469946A246AB46F0BD0BAA49465D
:101C1000200001F08FF91C220BA930000FF0E0FD2D
:101C200093E712AA4946200001F04AF9A82212A916
:101C300040460FF0D5FD88E705AA4946200001F08F
:101C400003F9154B182205A9E8180FF0C9FD7CE728
:101C50004946200001F07EF8104BE85475E74946EC
:101C6000200001F077F88B23DB00E8546DE7C046D5
:101C700057040000903C01080E040000FFFF000024
:101C8000CC4A01085A040000EF791200E84B010821
:101C9000460400005404000012040000590400002F
:101CA00010B5040082B0032913D9037801A90B7081
:101CB000437802224B706B46981D0FF091FDA0787F
:101CC000FE3843425841642340421840643802B011
:101CD00010BD68204042FAE7F8B5CE4647461C4B97
:101CE0004D1E5C5D1B4B64000419E25A1A4B80B513
:101CF00006009A420AD0A627BF00C3596A00984638
:101D0000164BD35E42461A40934204D000200CBCCE
:101D100090469946F8BD124B5A57A0239B00C358D2
:101D200013409A42F2D10F4B9946E05A0E4B0130C4
:101D3000E15A80B203F074FB4B4689B2E1520029AC
:101D4000E4D101234246AB401343F3510120DEE7C7
:101D50005C4B01089A020000FFFF00003C4B0108A9
:101D6000504B0108DE020000D2020000F8B5060068
:101D700002F022F830003130FF3002F0F7FE300080
:101D80002C3002F035FA3000683001F0D5FA30001E
:101D9000C83002F0F9FC300061300A21FF3002F057
:101DA000DFF88A239B00F21835003300002400205E
:101DB00000217933B935FF33FF3510C203C3AB427D
:101DC000FBD1A020A022002180008446002700240F
:101DD000002500209200B150383AB1183C32B218B8
:101DE000B44480C130C3107001326145F9D1A523DC
:101DF000AA229B009200F050B51804330122F05043
:101E0000012400200433F3185242190044311C8786
:101E100008801A8002339D42F7D1AA239B00F25218
:101E20000D4BF2520233F2520C4BF2520233F25289
:101E30000B4BF2520233F2520A4BF252B52292008D
:101E4000B11801220233F31852421A8002338B4236
:101E5000FBD13000F8BDC046AA020000AE0200006F
:101E6000B2020000B602000070B516000A2928D898
:101E7000154D89006C58A746C8301A00310002F091
:101E8000CBFC70BD1A003100683001F08DFAF8E724
:101E90001A0031002C3002F019FCF2E71A00310070
:101EA00001F096FFEDE761301A003100FF3002F0DB
:101EB00063F8E6E731301A003100FF3003F02CF808
:101EC000DFE764204042DCE7B03C0108F0B557464C
:101ED0004E46DE4645460023E0B59FB002AA937603
:101EE000D376A6220026920083500521070009968A
:101EF0000A960B96189619961A961B961C961D967E
:101F00000C960D96FFF7E8FE002808D091239B0061
:101F1000311CF85803F0BEFB002800D062E1AE4B44
:101F200001249946AD4D644203213800FFF7D4FEE9
:101F3000002808D091239B000021F85803F0AAFB49
:101F4000002800D0BAE101213800FFF7C5FE0028C3
:101F500008D091239B000021F85803F09BFB002838
:101F600000D0BEE102213800FFF7B6FE002808D0FD
:101F700091239B000021F85803F08CFB002800D02F
:101F8000EDE109213800FFF7A7FE002808D09123D2
:101F90009B000021F85803F07DFB002800D08DE263
:101FA00000260A213800FFF797FE002808D0912369
:101FB0009B000021F85803F06DFB002800D0D9E009
:101FC0004B465B791A005C32FF325200D15B844A87
:101FD0005C1E914205D0A0229200BA58520700D54B
:101FE000A5E04B469B791A005C32FF325200D15B70
:101FF0007B4A5C1E914205D0A0229200BA58D207BB
:1020000000D571E04B46DB791A005C32FF3252009A
:10201000D15B734A5C1E914204D0A0229200BA5850
:1020200092073ED44B461B7A1A005C32FF325200B4
:10203000D15B6B4A5C1E914204D0A0229200BA5838
:1020400012070AD4A02300229B00FA501FB03CBC08
:1020500090469946A246AB46F0BD3A009132FF3217
:102060008D25106851681A00AD0036337D599132C4
:10207000DB009200FB18D5511860596000200CF06D
:1020800009F9A1239B009C463C19644403F09EFB84
:10209000A522802320709200B9585B000B43BB50EF
:1020A000D0E73A008132FF328B25106851681A0060
:1020B000AD0036337D599132DB009200FB18D551CB
:1020C0001860596000200CF0E5F8A1239B009C46A5
:1020D0003C19644403F07AFBA5228023207092000F
:1020E000B9580B43BB509DE73A007932FF328A253D
:1020F000106851681A00AD0036337D599132DB000B
:102100009200FB18D5511860596000200CF0C2F8FD
:10211000A1239B009C463C19644403F057FBA52275
:10212000402320709200B9580B43BB506AE73A0035
:102130008932FF328C25106851681A00AD003633A1
:102140007D599132DB009200FB18D551186059601F
:1021500000200CF09FF8A1239B009C463C1964448E
:1021600003F034FBA522202320709200B9580B43C2
:10217000BB5036E73B008933FF331C685D688C2217
:102180008B23380092009B006130B958FB58321CF9
:10219000FF3001F00FFF4B469B7B09901A005E1E3B
:1021A00036339132DB009200FB18D0511C605D6029
:1021B00000200CF06FF8A1239B009C46BE196644DA
:1021C00003F004FBA522802330709200B958DB0194
:1021D0000B43BB50F4E6C046E84B0108FFFFFF7F0E
:1021E000FFFF00003B009133FF331C685D6802AACB
:1021F0000DAB944602931B236344019338001A23CA
:102200003130634422000093FF302B0002F0C8FC01
:10221000C84B9946DB7A984601235B4243449A4671
:1022200092339B009B4602AB987E04F04DFB5B46CD
:10223000D85143463633DB00FB181C605D60301C10
:102240000CF028F8A122534692009046FB189844BF
:1022500003F0BCFA43461870A5239B009A465246E9
:102260008023BA581B0113435246BB504B461B7B7D
:102270009846013B069392339A00934602AAD07E79
:1022800004F022FB43465A463633DB00FB18D0519C
:102290001C605D60301C0BF0FDFF069BFE18A12347
:1022A0009B009C46664403F091FA524680233070AE
:1022B000BA585B0113435246BB5035E68B238C2240
:1022C0008D210BA89B0092008900FB58BA587958C1
:1022D00002900AA8019009A80090380001F096FD2C
:1022E00031E60CAB059318AB049390239B00FB588D
:1022F000002103938F239B00F85803F0CBF943424E
:1023000058410290380002ABDB7E0A9A019302AB7F
:102310009B7E0999009368300B9B01F0A7F84B4610
:102320005B7C0C991A005E1E36339132DB00920002
:10233000FB18D15100201C605D600BF0ABFFA123A6
:102340009B009C46BE19664403F040FAA5228023F8
:1023500030709200B9589B020B43BB5002E6380024
:1023600016AB9846049314AB039312AB9A460EAE89
:10237000029310AB9B46019300960D9B18AA0C99F3
:102380002C3001F063FF4B461B7870681A005E1E0C
:1023900036330E999132DB009200FB18D1511C604C
:1023A0005D600BF077FFA1239B009C46BE1966443D
:1023B00003F00CFA3070A5260123B600BA59109923
:1023C0001343BB515B4658684B465B785A1E363305
:1023D0009346DB0092329200FB18D1511C605D6085
:1023E0000BF058FFA1225B4692009346FB189B44DA
:1023F00003F0ECF95B4618700223BA5912991343A3
:10240000BB51534658684B469B785A1E363392460A
:10241000DB0092329200FB18D1511C605D600BF022
:1024200039FFA122534692009246FB189A4403F0CA
:10243000CDF9534618700423BA5914991343BB516C
:102440004B46DB7815985A1E36339246DB009232A3
:102450009200FB18D1511C605D600BF01BFFA122A4
:10246000534692009246FB189A4403F0AFF9534644
:1024700018700823BA5916991343BB51434658683C
:102480004B461B7D5A1E36339046DB00923292003B
:10249000FB18D1511C605D600BF0FCFEA12243468D
:1024A00092009046FB18984403F090F94346187048
:1024B0008023BA595B031343BB5162E53B00893368
:1024C000FF331A685B68069207938C239B00F958C8
:1024D0000833FB58380003936A23FB5AC830029331
:1024E000069A079B0092019322002B0002F0EEF95E
:1024F0004B465B7B061C18005C1E36339130DB00BC
:102500008200FB18D65100200699079A19605A607C
:102510000BF0C0FEA1239B009C463C19644403F0D1
:1025200055F9A522802320709200B9589B010B43D6
:10253000BB5036E5E84B0108F0B5C646170000224F
:1025400000B584B098460AAB05001B7803920A29AF
:1025500057D82D4A890052589746C830424639000C
:1025600002F04AFA04B004BC9046F0BD424639007D
:10257000683001F0D7F9F5E7424639002C3001F018
:1025800069FFEFE76A46D61D0122007832703900F4
:10259000320002F00FFD33780390002B15D0012498
:1025A000203504E001343378E4B2A3420CD3012C8B
:1025B000F8D103AB42463900280000F0CBFA0134D1
:1025C0003378E4B2A342F2D203980A2102AC694400
:1025D0000880022220000FF003F9237803983B7053
:1025E00063787B70BEE7613042463900FF3001F00E
:1025F00029FDB7E7313042463900FF3002F060FB79
:10260000B0E70020AEE7C046DC3C0108F0B5C646A6
:102610001700002200B584B098460AAB05001B786D
:1026200003920A2957D82D4A890052589746C83034
:102630004246390002F040FA04B004BC9046F0BDB6
:1026400042463900683001F0DFF9F5E742463900CB
:102650002C3001F073FFEFE76A46D61D01220078A7
:1026600032703900320002F0A5FC33780390002B61
:1026700015D00124103504E001343378E4B2A342CC
:102680000CD3012CF8D103AB42463900280000F0EE
:1026900061FA01343378E4B2A342F2D203980A21FA
:1026A00002AC69440880022220000FF099F82378D8
:1026B00003983B7063787B70BEE761304246390017
:1026C000FF3001F0F9FCB7E7313042463900FF3006
:1026D00002F03CFBB0E70020AEE7C046083D010831
:1026E00070B50F4C0139645C25009135AD002D5853
:1026F000156022003632D2008218156856681D60B7
:102700005E60084B04199C4664442378049A137055
:102710000123A5228B40920081589943815070BDBE
:10272000E84B010883020000A5239B00C358013930
:10273000C9B20B41012018407047C046F0B5464B66
:1027400057464E46DE4645469846444B8246994695
:10275000434B00249B46E0B5424F434E85B03300C7
:102760002341DB0767D5414B1B5D5B0053441A00D7
:1027700002933F4BD35A019343455CD0002300257D
:1027800001215046039432001A41114213D0002413
:102790003A5F1A4111420ED0344AD25C4C32FF32B9
:1027A000520082189288424505D09446AA4200D22F
:1027B000AC46624695B201330A2BE4D18246BC4650
:1027C000002301215746039C2A4802001A41114266
:1027D00012D04A46A2561A4111420DD05A46D25C36
:1027E0005432FF325200D25B424505D09246AA4293
:1027F00000D2AA46524695B20133182BE5D1BA460B
:102800006746002D17D02900019802F083FD2900AA
:1028100083B20198039302F003FE89B2002905D028
:1028200001226B0815405D19A9420FDA6946124B67
:10283000029A8989D152013402370A2C8FD105B00E
:102840003CBC90469946A246AB46F0BD0398013089
:1028500083B20393EAE7C046FFFF0000504B010834
:10286000004C01083C4B0108170300005C4B0108B9
:102870009A0200000F20E000D2020000AA22A72343
:10288000920070B586180122012500249B00C31810
:102890005242190044311D870C801A8002339E4237
:1028A000F7D1AA239B00C2520D4BC2520233C2522F
:1028B0000C4BC2520233C2520B4BC2520233C252B1
:1028C0000A4BC252B5229200944601220233C31829
:1028D000524260441A8002338342FBD170BDC0462D
:1028E000AA020000AE020000B2020000B602000020
:1028F00070B516000A2928D8154D89006C58A746CE
:10290000C8301A00310002F013F970BD1A0031000E
:10291000683001F0D9F9F8E71A0031002C3001F0E5
:102920004FFEF2E71A00310001F0C8FAEDE761301E
:102930001A003100FF3001F0F9FBE6E731301A00F0
:102940003100FF3002F05EFADFE764204042DCE74E
:10295000343D010870B50E4C0139645C651EE4001D
:1029600004197134FF34266896420CD08A35049ECF
:10297000AD002E500CC40123A0228B409200815840
:102980000B43835070BD66689E42EFD1FAE7C046A4
:10299000004C01084B1E10B5092B13D8144B5B18C3
:1029A000013B1B784C33FF335B00C3189A880A291C
:1029B00008D88B000F49CB589F466130FF3011007B
:1029C00001F0D0FB10BD3130FF30110002F06CFA85
:1029D000F8E76830110001F0F1F8F3E72C3011004E
:1029E00001F010FEEEE7110001F08AFAEAE7C046B6
:1029F0005C4B0108603D0108F0B54E464546DE4699
:102A00005746264B01395B5CE0B55C33FF335B0016
:102A10001A528346224800238446224801258146D3
:102A20002148224E80464F0034001C4125420ED0E2
:102A300060463C5E1C41254209D048461C5C40462D
:102A400064005C44205A904201D94046225201332E
:102A50000A2BE9D1164800238046164801258446F2
:102A6000154E164F890034001C4125420DD0CC591B
:102A70001C41254209D044466046E45C64005C4445
:102A8000205A904201D9604622520133182BEAD1D4
:102A90003CBC90469946A246AB46F0BDE84B0108C7
:102AA000684B01085C4B01089A0200001703000004
:102AB000004C0108A60200000F20E000944B010822
:102AC0004B1E10B5092B13D8144B5B18013B1B7818
:102AD0004C33FF335B00C3189A880A2908D88B004F
:102AE0000F49CB589F466130FF30110001F03AFB8F
:102AF00010BD3130FF30110002F0D6F9F8E7683030
:102B0000110001F05BF8F3E72C30110001F07AFDC1
:102B1000EEE7110001F0F4F9EAE7C0465C4B01086A
:102B20008C3D010830B50D00040010002A68002318
:102B3000944685B001A96444E25CCA5401330C2B6D
:102B4000FAD10C220EF04CFE2B680C332B6005B032
:102B500030BDC04670B51D001B6884B00C330E003C
:102B6000934203D901322A6004B070BD01AC010068
:102B70000C2220000EF034FE0023E15C2868F218DD
:102B8000013311540C2BF8D12B680C332B60EBE77D
:102B900030B515000A680C009446002383B06044E9
:102BA0006946C25CCA540133082BF9D108222800B7
:102BB0000EF016FE23680833236003B030BDC04614
:102BC00070B51C001B6884B008330E00934203D913
:102BD0000132226004B070BD01000822684602ADD7
:102BE0000EF0FEFD0822694628000EF0F9FD0023D4
:102BF000E95C2068F21801331154082BF8D12368DE
:102C000008332360E6E7C04630B50B6883B0C25C8A
:102C1000C01843780C0001A94B706B469D1D0A70CB
:102C2000280002220EF0DCFD23682888023323608E
:102C300003B030BD70B584B01C006B460D00991D0B
:102C4000236808800233934203D90132226004B022
:102C500070BD03AE022230000EF0C2FD2268337850
:102C6000AB5423689C46737865446B7023680233C9
:102C70002360ECE7030030B510000A680C009D5C8F
:102C80009B1883B05B7801A902224B700D700EF087
:102C9000A7FD23680233236003B030BD30B51C00AC
:102CA0001B6883B002330D00934217D8037801A943
:102CB0000B704378022268464B700EF091FD6B4614
:102CC00022681B78AB5423689C466B465B7865444E
:102CD0006B7023680233236003B030BD0132226081
:102CE000FAE7C04610B50C0022680023944682B073
:102CF00001A96044C25CCA540133042BFAD10422F6
:102D000068460EF06DFD236800980433236002B01E
:102D100010BDC04670B51C001B6884B00433019020
:102D20000E00934203D90132226004B070BD03AD9E
:102D3000042201A928000EF053FD0023E95C20685D
:102D4000F21801331154042BF8D1236804332360A3
:102D5000EBE7C04630B583B00C006B46D91D236845
:102D60000122C35C0B706B469D1D28000EF038FDE0
:102D7000236828780133236003B030BD70B584B078
:102D80001C006B460D00D91D236808700133934267
:102D900003D90132226004B070BD0F266E440122B7
:102DA00030000EF01DFD33782268AB5423680133E8
:102DB0002360F0E710B50C0022680023944684B02D
:102DC00002A96044C25CCA540133082BFAD108221C
:102DD00068460EF005FD00980199236808332360CA
:102DE00004B010BD70B584B0089C16002268009035
:102DF000019108329A4203D90133236004B070BDB7
:102E000002AD0822694628000EF0EAFC0023E95CC6
:102E10002068F21801331154082BF8D123680833C5
:102E20002360EBE70B68C05C0133421E90410B60EE
:102E3000C0B2704730B51C68651C954201D8085572
:102E40001A6801321A6030BD30B515000A680C00EE
:102E50009446002387B060446946C25CCA5401337B
:102E6000182BF9D1182228000EF0BAFC2368183369
:102E7000236007B030BDC04670B51D001B6888B028
:102E800010330E00934203D901322A6008B070BD9E
:102E900001001022684604AC0EF0A2FC1022694624
:102EA00020000EF09DFC0023E15C2868F21801333D
:102EB0001154102BF8D12B6810332B60E6E7C04675
:102EC00030B515000A680C0094460023ABB060448E
:102ED0006946C25CCA540133A82BF9D1A822280044
:102EE0000EF07EFC2368A83323602BB030BDC046B3
:102EF00030B51C001B6883B004330D00934216D814
:102F0000038801A90B804388042268464B800EF099
:102F100067FC002369462068C95CEA180133115434
:102F2000042BF7D123680433236003B030BD013292
:102F30002260FAE730B50D00040010002A68002373
:102F4000944689B001A96444E25CCA5401331C2B45
:102F5000FAD11C220EF044FC2B681C332B6009B004
:102F600030BDC04630B51C001B6883B002330D0075
:102F7000934217D8037801A90B7043780222684660
:102F80004B700EF02DFC6B4622681B78AB54236807
:102F90009C466B465B7865446B7023680233236004
:102FA00003B030BD01322260FAE7C04630B51500EB
:102FB0000A680C009446002385B060446946C25CF0
:102FC000CA540133102BF9D1102228000EF008FC4E
:102FD00023681033236005B030BDC04670B584B09F
:102FE0001C006B460D00D91D236808700133934205
:102FF00003D90132226004B070BD0F266E44012255
:1030000030000EF0EDFB33782268AB5423680133B7
:103010002360F0E730B50D00040010002A6800239B
:10302000944683B001A96444E25CCA540133042B82
:10303000FAD104220EF0D4FB2B6804332B6003B0CA
:1030400030BDC04630B51C001B6883B008330D008E
:10305000934203D90132226003B030BD010008223F
:1030600068460EF0BDFB002369462068C95CEA187B
:1030700001331154082BF7D1236808332360EBE7A1
:10308000030030B510000A680C009D5C9B1883B0EB
:103090005B7801A902224B700D700EF0A1FB236832
:1030A0000233236003B030BD70B51D001B688AB0C9
:1030B00014330E00934203D901322A600AB070BD66
:1030C00001001422684605AC0EF08AFB1422694602
:1030D00020000EF085FB0023E15C2868F218013324
:1030E0001154142BF8D12B6814332B60E6E7C0463B
:1030F00030B583B00C006B46D91D23680122C35C38
:103100000B706B469D1D28000EF06AFB00202368A3
:1031100001332360285603B030BDC04670B51D0092
:103120001B688CB018330E00934203D901322A6019
:103130000CB070BD01001822684606AC0EF050FBC2
:103140001822694620000EF04BFB0023E15C286842
:10315000F21801331154182BF8D12B6818332B6057
:10316000E6E7C04610B5FFF713FD10BD70B51D00B2
:103170001B68D4B0A8330E00934203D901322A60F1
:1031800054B070BD0100A82268462AAC0EF028FB9E
:10319000A822694620000EF023FB0023E15C28688A
:1031A000F21801331154A82BF8D12B68A8332B60E7
:1031B000E6E7C04630B50D00040010002A68002381
:1031C000944687B001A96444E25CCA540133142BCD
:1031D000FAD114220EF004FB2B6814332B6007B0D5
:1031E00030BDC04670B51D001B6888B01C330E0092
:1031F000934203D901322A6008B070BD01AC0100CE
:103200001C2220000EF0ECFA0023E15C2868F21882
:10321000013311541C2BF8D12B681C332B60EBE7C6
:10322000F8B557464E464546DE469946E0B50AABE8
:103230001C780500631E9A464B460F1C9046166884
:10324000002B46D103343949A400406802F0C6FF80
:10325000615902F051FC041C311C381C03F0F0F8D9
:10326000071C688803F0E6FA314902F0DFFD00210F
:103270008346381C02F028FA00283DD02D496868A2
:1032800002F0ACFF296C02F0D1FD594602F0A6FF16
:10329000051C011C381C02F017FA00282AD0311C2A
:1032A000281C02F029FC211C051C02F0F9F9002859
:1032B00000D0251C4B46002B03D080231B069C46C8
:1032C000654443461D603CBC90469946A246AB46C9
:1032D000F8BD80231B069C466644166001341349E2
:1032E000A4004068674402F079FF615903F0A8F830
:1032F000041CB1E73D1CD2E780231B065B44180089
:10330000534610339B00EB18596802F08FFD0BF009
:10331000DBF9011CFE20800503F092F8391C02F055
:103320005DFF4346051C1E68B9E7C046C178C63D2F
:103330000000C842CBBECB3E012303704E220023C7
:103340005021835200224265435203834383036228
:10335000436283620E4B8265C3620E4B82600363DD
:1033600083630D4B0261C3630C4BC26003640C4B5F
:10337000426143640B4B4260FD2283644C2351390C
:10338000418092050331017741774263C154704710
:103390008941003FCDCCCC3ED85500640000E144CB
:1033A00000C0A8474031774CF0B5D6464F46464658
:1033B000C0B586B004AB0500007800930F2305AFBD
:1033C0006B4401970E0001F0C9FD6B460F201856A3
:1033D0000124002820D144239946234BA944984630
:1033E0003E239A46AA44072C03D84246A300D3584A
:1033F0009F464A4639003000FFF7CAFB072C08D029
:103400000134E4B2EFE72A00390054323000FFF70C
:10341000BFFB6B460F20185606B01CBC9046994661
:10342000A246F0BD524639003000FFF723FCE7E723
:103430002A0039003C323000FFF722FEE0E72A0084
:1034400039004E323000FFF7E5FDD9E72A00390098
:103450002C323000FFF7AAFDD2E739003000FFF729
:1034600041FC2864CCE7C046B83D0108F0B5DE4613
:103470004E4645465746E0B591B01E1C1AAB1B7828
:10348000040006931BAB1B78406807931CAB1F78A6
:103490001F9B8846D449151C9B4602F09FFED349CA
:1034A0000390281C02F09AFED1498146281C02F0A4
:1034B00023FB011C484602F0B9FC0BF005F98146DC
:1034C000CC49301C02F08AFECB4902F0AFFC4946E1
:1034D00002F084FEC9498146281C02F00DFB011C44
:1034E000484602F0A3FCC64902F078FEC54B0E9098
:1034F000191C994602F0E8F8002801D14B460E93BA
:103500000EAB18009A4601F043FE962263885200E3
:10351000934200D132E1E122D200934200D12BE16B
:10352000642B5BD0E06A0E9902F058FE414602F02F
:10353000E3FA5B4618603D238046E05603F07AF9D3
:10354000011C281C02F0B6F8002857D1002F00D12A
:1035500070E0A5680021281C02F09CF800284BD0E0
:103560005B461B680A9325690021281C02F092F82B
:1035700000283FD003990A9802F062FF0C90E66899
:10358000236A0021301C0E9302F084F80AAD002853
:103590002CD16E6067690021381C02F07BF80CAEFC
:1035A00000281DD177605346626A29005A601E9830
:1035B00008220EF015F91E983100082208300EF08E
:1035C0000FF91E980822514610300EF009F911B07B
:1035D0003CBC90469946A246AB46F0BDA06BA2E724
:1035E0000399686802F02CFF7060DCE75B461B689B
:1035F0006B60CFE70C95C2E70A95B4E73C23E05631
:1036000003F018F9011C281C02F068F800280AD001
:103610003F23E05C03F00EF9011C301C02F04AF875
:10362000002800D0ACE0079B002B00D18EE7002FD4
:1036300000D08EE7250008351C2399460C3B9C469C
:10364000A44463464746A046A14408932B68391C0E
:10365000181C049302F02EF80123AC68099300288B
:1036600007D1391C201C02F039F80300581E834191
:103670000993391C049802F0E3FE211C061C381C37
:1036800002F0DEFE0021071C301C02F009F80028C1
:1036900000D000260021381C02F002F8002800D0DB
:1036A00000270021201C01F0F5FF039B0593002853
:1036B00000D1B1E0391C301C0AF0B6FD011C02F04B
:1036C0001BFA059902F0B2FBFE218905041C01F0EA
:1036D000FBFF002801D0FE24A405069B002B71D01F
:1036E000079B002B6ED04849A86901F0D3FF002842
:1036F00000D1A2E0FE20211C800502F0A1FE011CE9
:1037000002F06CFDFD21890502F068FD3F4902F0E1
:1037100065FD3F4902F0F0F9071CAC682868211CE0
:1037200002F08EFE391C039F061C381C02F056FD69
:10373000391C02F0E1F9011C301C01F0B1FF002836
:1037400073D10021201C01F0A5FF00286DD1099B39
:10375000002B74D14B461B78FF2B00D1DCE04A468E
:103760000133DBB2137041464C228A5C9A4200D886
:10377000D2E08023DB052BE0206BD4E6606BD2E641
:103780003E23E05C03F056F8011C301C01F0A6FF5C
:10379000079B002800D147E7002B00D1D6E6002F79
:1037A00000D0D6E600211D98258D01F073FF00287A
:1037B00000D18DE0002D47D0638DED1A25852500C1
:1037C000083539E742464C23D35C4A461370002340
:1037D000AB6101239C46089B0435E144AB4219D000
:1037E0005B461F6832E7C046C178C63DC3F58C41D1
:1037F000B81E73438195C3400000C8423393884389
:1038000033B358430AD7233C00004040CDCC4C3E54
:10381000CDCCCC3D44469CE6211C049802F010FE21
:1038200003990AF0EBFC059044E742464C23D35C35
:103830004A461370FE239B05CAE7384F6DE74B4697
:1038400018708023DB05C3E7250001272300083516
:103850002E003C00A94647465D4698460021306848
:1038600001F018FF002801D037602F680021B068F0
:1038700001F010FF00280AD00399306802F0E0FD43
:10388000391C01F021FF002801D0B7602F68391CD6
:103890004046009400233200FFF7C2FC0021B068CC
:1038A00001F0F8FE00280AD02F680436022C04D15B
:1038B0004446AB46B8464D46BEE60224CEE732004B
:1038C00000940123083229684046FFF7A9FCEBE782
:1038D0001D9802F08FFF030023335B00E3180600FE
:1038E000D8881336281A80B202F0EEFFB600A61967
:1038F000071C70680AF0E8FE011C381C02F096FAFA
:103900000AF0C8FC01F062FF5B462D1A25852500F0
:103910001B68083598468FE6014B59E79A99993EFE
:1039200000004040F0B54F46D6464646C0B584B08C
:1039300091466A46D51D072207002A7000782A00A2
:103940000E0001F037FB2B780390002B17D02D4B86
:103950000124984654239A46BA44072C09D8424673
:10396000A300D3589F4603AB4A4631005046FFF7A9
:1039700027F901342B78E4B2A342EED203980A214E
:1039800002AC69440880022220000DF029FF237850
:10399000039833706378737004B01CBC90469946EA
:1039A000A246F0BD380003AB4A4631003E30FFF777
:1039B00075F9DEE7380003AB4A4631003C30FFF7CB
:1039C000D1FAD6E703AB4A463100386CFFF7A2F9CB
:1039D000CFE7380003AB4A4631004430FFF7F0F838
:1039E000C7E7380003AB4A4631004E30FFF780FA94
:1039F000BFE7380003AB4A4631002C30FFF73CFAF2
:103A0000B7E7C046D83D0108F0B54F46D646464612
:103A1000C0B584B091466A46D51D0B2207002A70B6
:103A200000782A000E0001F0C5FA2B780390002BD5
:103A300017D0564B012498464C239A460B2C0AD893
:103A40004246A300D3589F46380003AB4A46310094
:103A50000830FFF7B5F801342B78E4B2A342EDD279
:103A600003980A2102AC69440880022220000DF06C
:103A7000B7FE2378039833706378737004B01CBC6E
:103A800090469946A246F0BD53464A46F85C31003E
:103A900003ABFFF773F901342B78E4B2A342CDD224
:103AA000DEE703AB4A4631007868FFF733F90134AB
:103AB0002B78E4B2A342C1D2D2E703AB788D4A4659
:103AC0003100FFF7B7F801342B78E4B2A342B5D246
:103AD000C6E703AB388D4A463100FFF7ABF8013437
:103AE0002B78E4B2A342A9D2BAE7380003AB4A4626
:103AF00031002030FFF764F801342B78E4B2A342A0
:103B00009CD2ADE7380003AB4A4631001C30FFF7CA
:103B1000C5F801342B78E4B2A34200D38EE79FE7C7
:103B200003AB78884A463100FFF784F801342B78DC
:103B3000E4B2A34200D381E792E703AB788B4A4615
:103B40003100FFF777F801342B78E4B2A34200D3B9
:103B500074E785E703AB388B4A463100FFF76AF814
:103B600001342B78E4B2A34200D367E778E738004A
:103B700003AB4A4631001030FFF722F801342B78AE
:103B8000E4B2A34200D359E76AE7C046F83D010812
:103B900001235B42438000230022022183600361F2
:103BA000C360436143604C230283428301774177C2
:103BB000026242628262C1547047C046F0B53B4B1C
:103BC00083B005000C00994246D043888B4243D015
:103BD00069802000642101F09DFB962386B25B0082
:103BE0009C425FD03AD9E123DB009C4238D0304B75
:103BF0009C424BD12F4B01936E8501AE300001F0FA
:103C0000C7FA01980AF0ACFA2B4902F00FF9686084
:103C10002100274801F07EFB210087B2244801F0F3
:103C2000FFFB89B200292DD00122630814401C1922
:103C3000A14227DB0137B8B202F046FE0190300006
:103C400001F0B8FA0199081C01F056FF0AF08CFA4D
:103C500001F0BCFD4C23E85403B0F0BD642C15D139
:103C6000164B01936E8501AE300001F091FA019878
:103C70000AF076FA104902F0D9F86860002CC7D132
:103C80000F48DBE7380002F01FFED7E7094B64213D
:103C90002000019301F0C4FB89B23129E2D9013639
:103CA000B6B2DFE7074B0193A6E7C046FFFF00006F
:103CB00030750000304C463F502C633E9A99193FB6
:103CC00000FF7F470AD7233FF0B5D6464F4646460A
:103CD000C0B586B004AB0700007800930F2305AE93
:103CE0006B4401960D0001F039F96B460F20185610
:103CF0000124002820D1082399462E4BB944984628
:103D000020239A46BA440B2C03D84246A300D3582A
:103D10009F464A4631002800FEF73AFF0B2C08D098
:103D20000134E4B2EFE731002800FFF713F84C2329
:103D3000F8546B460F20185606B01CBC90469946A6
:103D4000A246F0BD31002800FEF7CCFF7860E7E71F
:103D500031002800FEF758FF7885E1E731002800A0
:103D6000FEF752FF3885DBE7524631002800FEF7A8
:103D70000FFFD5E73A0031001C322800FEF77AFF2A
:103D8000CEE731002800FEF73FFF7880C8E731001A
:103D90002800FEF739FF7883C2E731002800FEF7DC
:103DA00033FF3883BCE73A00310010322800FEF7B9
:103DB000EFFEB5E7283E0108032310B504000370A9
:103DC000043001F07BFA200001F000FA200010BD61
:103DD00070B586B004AB0400007800930F2305AEE5
:103DE0006B4401960D0001F0B9F86B460F20185690
:103DF000002808D12200280020323100FEF792FE70
:103E00006B460F20185606B070BDC046F0B5CE46C2
:103E1000474680B50C1C89B081462749201C161CDA
:103E20001D1C01F047FC002800D0234C4B4600210C
:103E3000186901F02FFC002832D101AF380001943D
:103E400001F0A6F94B460024019802AF7E60BD60E8
:103E500002901D1D05AEEB689846191C02F0F0FAA1
:103E600002CD02F0BBF9414601F046FE3051043468
:103E70000C2C01D03859EEE748460C2231001030A6
:103E80000DF0AEFC109B32681A60119B72681A60CC
:103E9000B268129B1A6009B00CBC90469946F0BDFE
:103EA00001AF3800019401F073F94B46019A5E614D
:103EB0001A619D61C2E7C0460000204170B588B01C
:103EC00003AB0400007800930B2304AE6B4401960F
:103ED0000D0001F043F86B460B20185600280DD159
:103EE00005AA31002800FEF71DFE20000C2210302C
:103EF00005A90DF075FC6B460B20185608B070BD77
:103F0000F0B5C64600B5070084B0080002F0DCFC3E
:103F1000011C124801F08AFFFC21890502F05EF9BC
:103F20000024804601AD3B194146186A01F07EFF2E
:103F3000FE218905061C01F0C7FB002801D0FE26E2
:103F4000B6052E5104340C2CEDD1381D290001F09A
:103F500061F904B004BC9046F0BDC0460000C84200
:103F600010B504000170043001F0B4F9200001F034
:103F700045F9200010BDC04670B586B004AB040002
:103F8000007800930F2305AE6B4401960D0000F0FE
:103F9000E5FF6B460F201856002808D122002800A4
:103FA00010323100FFF7DEF86B460F20185606B0CE
:103FB00070BDC046F0B5C646040000B50F1C181C05
:103FC000002190461D1C01F075FB002833D11B49D0
:103FD000281C01F079FB00282BD1A6680021301C99
:103FE00001F058FB002800D03E1C311C381C02F0A8
:103FF00027FA616802F0F2F8311C01F07DFDA06043
:10400000061C2000291C103001F0CAF8291C01F000
:1040100073FD4146021C301C01F012F80749041CD4
:1040200001F052FB002800D0044C201C04BC904638
:10403000F0BD024DD1E7024DCFE7C0460000C842B7
:1040400017B7D138F0B5C64600B584B090466A4679
:10405000D51D012207002A7000782A000E0000F00A
:10406000A9FF2B780390002B15D00124103704E012
:1040700001342B78E4B2A3420CD3012CF8D103AB6A
:10408000424631003800FEF7DDFF01342B78E4B200
:10409000A342F2D203980A2102AC694408800222AA
:1040A00020000DF09DFB23780398337063787370C4
:1040B00004B004BC9046F0BDF0B5C64600B584B06F
:1040C00090466A46D51D012207002A7000782A0012
:1040D0000E0000F06FFF2B780390002B14D001240A
:1040E00004E001342B78E4B2A3420CD3012CF8D1C4
:1040F00003AB42463100B868FEF70CFE01342B7862
:10410000E4B2A342F2D203980A2102AC69440880C7
:10411000022220000DF064FB23780398337063784B
:10412000737004B004BC9046F0BDC04670B586B054
:1041300004AB0400007800930F2305AE6B44019696
:104140000D0000F00BFF6B460F201856002807D11A
:1041500031002800FEF7C6FD6B46A0600F20185600
:1041600006B070BDF0B5060083B0080002F0ACFBED
:10417000011C1C4801F05AFEFC21890502F02EF8B2
:10418000011C194801F052FEFE2189050AF04CF885
:104190001649051C02F022F80AF09EF8011C02F0F4
:1041A0001DF8041C011C02F019F8211C01F0A4FCEC
:1041B000019001A800F0FEFFFE21281C8905019F47
:1041C00001F068FA002804D0FE208005706003B07A
:1041D000F0BD211C381C02F033F9011C01F08CFCED
:1041E000F4E7C0460000C84299D4503CDB0FC93FF9
:1041F00081220223D2050261104A03704261C82263
:104200000023520002830E4A0371C261FC22F5337F
:10421000FF334380143BFF3BC380C83B0372002342
:1042200092050262FA22C3608362C362054B920068
:104230000363054B8284436383637047000020411E
:1042400000007041EC5185420000C841F0B5DE46E7
:1042500057464E464546E0B5176883B01500994667
:104260000C9B0400381C8B46984602F0E9F86B68FA
:10427000061C5946181C9A4602F0E2F8E968834683
:10428000504602F0DDF8011C584601F0CFFD824691
:10429000608802F019FBA9688346381C02F0D0F848
:1042A000011C301C01F0C2FD071CE08802F00CFB71
:1042B000011C381C01F092FF071C207A02F004FB5D
:1042C000011C381C01F018FC071C207902F0FCFAD4
:1042D000391C09F093FF011C584609F0A5FFE1685D
:1042E000071C301C01F07AFF061C207A02F0ECFA61
:1042F000011C301C01F000FC061C207902F0E4FADD
:10430000311C09F07BFFFE21061C8905484601F09F
:10431000C7F900285ED16763A66343461F602A6918
:104320005A600D9B1E602A695A60208B02F0CCFAFD
:10433000311C071C206B01F0D1F9002842D0216903
:10434000301C01F04BFF391C01F0D6FB011C381C5E
:1043500009F054FF0E9B18602A695A60A08C02F085
:10436000B3FAA16A071C301C01F038FFE16A01F0C2
:10437000C3FB011C34480AF013FB011C334809F04D
:104380003DFF011C381C09F04FFF0F9B304918609E
:104390002A6950465A6001F021FF2D4E041C311C41
:1043A00001F092F9109B002812D11C606B690193F7
:1043B000019A109B5A6003B03CBC90469946A246B5
:1043C000AB46F0BD6169301C01F008FF011CBEE77F
:1043D0001E60EBE74946484601F000FF636B8146EB
:1043E000391C181C9B4601F05BF9002810D0494687
:1043F000381C01F0F3FE071CFE204946800502F040
:104400001FF8594601F0EAFE391C01F075FB071C44
:10441000A36B311C181C9B4601F042F9002800D107
:104420007BE74946301C01F0D9FE061CFE204946B8
:10443000800502F005F8594601F0D0FE311C01F06C
:104440005BFB061C69E7C04600002041CDCCCC3D9B
:104450000000C842F0B54F46D6464646C0B584B0C7
:1044600091466A46D51D082207002A7000782A0066
:104470000E0000F09FFD2B780390002B17D02E4BE1
:104480000124984610239A46BA44082C09D842467B
:10449000A300D3589F4603AB4A463100386AFEF763
:1044A00039FC01342B78E4B2A342EED203980A21FE
:1044B00002AC69440880022220000DF091F92378B3
:1044C000039833706378737004B01CBC90469946AF
:1044D000A246F0BD03AB4A463100F869FEF71AFC6C
:1044E000DFE7388B03AB4A463100FEF7A3FBD8E782
:1044F00003AB4A4631005046FEF7A4FDD1E7788869
:1045000003AB4A463100FEF795FBCAE7387903ABA7
:104510004A463100FEF732FCC3E7387A03AB4A461D
:104520003100FEF72BFCBCE7F88803AB4A463100AC
:10453000FEF780FBB5E7C046583E0108F0B5C64619
:1045400000B584B090466A46D51D022207002A7045
:1045500000782A000E0000F02DFD2B780390002B30
:104560001CD001240CE0022C05D103AB42463100E3
:10457000B86BFEF7CFFB01342B78E4B2A3420CD327
:10458000012CF0D103AB42463100786BFEF7C2FB41
:1045900001342B78E4B2A342F2D203980A2102AC90
:1045A00069440880022220000DF01AF9237803984C
:1045B00033706378737004B004BC9046F0BDC0469D
:1045C00070B586B004AB0400007800930F2305AEED
:1045D0006B4401960D0000F0C1FC6B460F2018568D
:1045E00000280CD131002800FEF77CFB310060630D
:1045F0002800FEF777FB6B46A0630F20185606B025
:1046000070BDC046F0B5CE46474680B52B4B83B053
:1046100004000D00994246D0037AC0889846404471
:1046200002F008F9236A061C99469623E7695B00A5
:104630009D4240D0E123DB009D4239D0642D37D02C
:104640001F4B0093684600F0A3FD404602F03CF982
:10465000011C301C01F0F4FE051C009809F080FDDF
:10466000011C281C01F0E2FBE06001A8019700F0AA
:104670008FFD4B466846009300F08AFD0099019833
:1046800001F0DEFE291C01F0D1FBA06201A8019718
:1046900000F07EFDA16A301C01F0A0FD011C019814
:1046A00001F0CEFEE06203B00CBC90469946F0BD2E
:1046B000044B0093C6E7044B0093C3E7FFFF0000E1
:1046C000304C463F9A99193F0AD7233FF0B5CE4662
:1046D000474680B587B004AB0500007800930F23F0
:1046E00005AF6B4401970E0000F038FC6B460F20BD
:1046F0001856012400281CD1224B984610239946B5
:10470000A944082C03D84246A300D3589F46390039
:104710003000FEF71FFB2871082C07D00134E4B2EB
:10472000EFE739003000FEF7DDFA28626B460F2014
:10473000185607B00CBC90469946F0BD39003000C1
:10474000FEF7D0FAE861E9E739003000FEF75CFADD
:104750002883E3E74A4639003000FEF703FDDDE732
:1047600039003000FEF7F6FA2872D7E7390030003A
:10477000FEF74AFAE880D1E739003000FEF744FA44
:104780006880CBE77C3E010809230370144B0122AB
:104790004360144B52428361134BC362134B036457
:1047A00000238360C36103634364C36003624363A4
:1047B00083640F4B03610F4B43620F4B83630F4BBB
:1047C000C3640F4B43610F4B83620F4BC3630F4BAB
:1047D00003650F4B03660F4B8265C3657047C04688
:1047E00007F0963D0000A040E63F4CC0B15083402A
:1047F0001C7CE13DCDCC0C3E91ED3CBF5DFEE33E2B
:104800003480D73F67D5273EFB3A403F363C85BFD3
:1048100000004040FFFFFF7FF0B5D6464F464646BA
:10482000C0B586B004AB0700007800930F2305AE37
:104830006B4401960D0000F091FB6B460F2018565B
:104840000224002819D12C239A463B1D9846402368
:104850009946631EDBB2BA44B944032B20D0032B24
:1048600024D9042B2BD0052B0DD131002800FEF7C5
:1048700039FA38666B460F20185606B01CBC9046B5
:104880009946A246F0BD424631002800FEF792FC50
:10489000062CEFD00134E4B2631EDBB2032BDED171
:1048A000524631002800FEF785FCF3E7022BEAD1DF
:1048B0003A00310018322800FEF77CFCEAE74A464D
:1048C00031002800FEF776FCE4E7C046F0B54E461E
:1048D00045465746DE46E0B51600E12283B01F008C
:1048E0000CAB30CB1B8880468946D200934200D166
:1048F00077E04DD8642B00D170E09622042152005D
:104900008A4693424CD1012241465242364B886D31
:10491000C96D00F02DFC002842D12000290043463B
:10492000DC6D9B6DC01AA14100F0F2FF00222F4BFD
:1049300002F026FB53469B009A46C24404000D0039
:1049400003F0F2FD53461968834601F047FC5346D5
:10495000596901F0D1F853460190996A584601F01F
:104960003DFC22002B0083462900200002F012FFAC
:1049700003F0DAFD011C584601F0BEF85346D96B2E
:1049800001F0BAF8011C019801F050FA041C08E08B
:10499000174A93421FD00121164A8A469342B2D049
:1049A00000240122104B52423000390000F0E0FB9D
:1049B000002802D143469E65DF65211C484601F070
:1049C0003FFD0F9901F03CFD03B03CBC9046994679
:1049D000A246AB46F0BD02239A4694E705239A46C9
:1049E00091E7046EDDE7C046FFFFFF7F65CDCD4157
:1049F0007017000030750000F0B54F46D6464646A9
:104A0000C0B584B091466A46D51D052207002A70BC
:104A100000782A000E0000F0CDFA2B780390002BCE
:104A200017D0244B0124984640239A46BA44052CBB
:104A300009D84246A300D3589F4603AB4A463100EB
:104A4000386EFEF767F901342B78E4B2A342EED258
:104A500003980A2102AC69440880022220000CF06D
:104A6000BFFE2378039833706378737004B01CBC66
:104A700090469946A246F0BD380003AB4A46310045
:104A80001830FEF711FBDEE703AB4A463100504613
:104A9000FEF70AFBD7E7380003AB4A4631002C305B
:104AA000FEF702FBCFE7381D03AB4A463100FEF7A5
:104AB000FBFAC8E7A03E0108F0B5CE460F259146A7
:104AC000012200B586B06D442A7006002A000078E5
:104AD0000F0000F06FFA2B780590002B16D0012400
:104AE00004E001342B78E4B2A3420ED3012CF8D1B8
:104AF000B06DF16D05AB00933A004B46FEF772F9CD
:104B000001342B78E4B2A342F0D20598122104AC10
:104B100069440880022220000CF062FE2378059888
:104B20003B7063787B7006B004BC9146F0BDC04614
:104B300070B586B004AB0400007800930F2305AE77
:104B40006B4401960D0000F009FA6B460F201856D1
:104B5000002808D131002800FEF72CF96B46A0652B
:104B6000E1650F20185606B070BDC04605230B4AFC
:104B700030B50370C26100230025002428220121E2
:104B80008361046245628154436103610023013201
:104B90008460C56083540132835430BDC9B28B53E5
:104BA000F8B5474614001D008268C368D646290040
:104BB00080B507002000801A99417E6A8E4203DB8F
:104BC00000D171E0AB4267DD002300223B612A2364
:104BD000FA5400239846BC60FD602923FE5C9A4687
:104BE000002E10D1BA68FB6820002900801A994174
:104BF00000F05CFE796900F07FFFB969786100F030
:104C00006DFD002843D14346002B10D1BA68FB68E4
:104C100020002900801A994100F048FE396900F00F
:104C20006BFFF969386100F059FD002821D1002D92
:104C300024DDBC60FD60089B099A1E702A23FB5C82
:104C40001370002B06D1FC690021201C00F022FD0E
:104C5000002807D0FE230A9A9B0513600CBC9046DF
:104C60009A46F8BD3869211C01F0E0F80A9B1860EB
:104C7000F4E72A230122FA54002DDADC002D01D1B9
:104C8000002CD6D101220023BA60FB60D3E70123B8
:104C900052460136BB54B6E7AB420DD02A21795CAF
:104CA0001A43884699D196E73E6A864200D28BE73E
:104CB000AB4200DD88E7EFE7A242EFD984E7C046C8
:104CC000F0B54746CE4680B585B090466A46D51DBC
:104CD000022207002A7000782A000E0000F06AF90C
:104CE0002B780390002B1FD02823012499460DE038
:104CF000022C06D14B464246F856310003ABFEF774
:104D00006DF901342B78E4B2A3420CD3012CEFD11E
:104D100003AB42463100B869FDF7FCFF01342B7844
:104D2000E4B2A342F2D203980A2102AC694408809B
:104D3000022220000CF054FD23780398337063782E
:104D4000737005B00CBC90469946F0BDF0B54F4667
:104D5000D64646460F2591460522C0B586B06D441D
:104D60002A7007002A0000780E0000F023F92B7843
:104D70000590002B17D0224B012498462A239A46EF
:104D8000052C0AD84246A300D3589F465346F85CE8
:104D90004A4605AB3100FEF74DF801342B78E4B2FA
:104DA000A342EDD20598122104AC69440880022286
:104DB00020000CF015FD237805983370637873702C
:104DC00006B01CBC90469946A246F0BD05AB4A46CB
:104DD00031007869FDF79EFFDFE72923D7E705ABB0
:104DE0004A4631003869FDF795FFD6E705AB0093D9
:104DF0003200B868F9684B46FDF7F4FFCDE7C046CE
:104E0000B83E0108F0B5C64600B586B004AB050053
:104E1000007800930F2305AF6B4401970E0000F05C
:104E20009DF86B460F201856292302249846002827
:104E300012D1631EDBB2032B20D0032B24D9042B09
:104E40002AD0052B0CD139003000FDF7EBFF2A23C7
:104E5000E8546B460F20185606B004BC9046F0BDCF
:104E600039003000FDF7A6FFA860E960062CF0D0FD
:104E70000134E4B2631EDBB2032BDED13900300013
:104E8000FDF730FF2861F3E7022BE9D1390030004C
:104E9000FDF728FF6861EBE739003000FDF7C2FF3E
:104EA0004346E854E4E7C046164B70B505000C00D5
:104EB00099421AD02823C056134A48434308181869
:104EC0000021002300F058FC9623286269625B00F1
:104ED0009C4208D0E123DB009C4210D0642C02D01D
:104EE0000A4BEB6170BD0A4BFBE700230022036114
:104EF0002A23C254002200238260C360F2E7054BDC
:104F0000EFE7C046FFFF000080969800C9B28B53C0
:104F1000C9B28B5276845F5170B586B004AB040081
:104F2000007800930F2305AE6B4401960D0000F04E
:104F300015F86B460F20185600280DD131002800B7
:104F4000FDF7D0FE3100A0612800FEF7D1F828233C
:104F5000E0546B460F20185606B070BDF0B5C6463B
:104F60001C00002300B582B00D00089E09990700BF
:104F70000B6023703360032A19D904230B602B784C
:104F800001A90B706B7802224B7006236B44984684
:104F900018000CF025FC43461B883360AB78BB42FD
:104FA00001D09C23237002B004BC9046F0BD98331E
:104FB0002370F8E710B51478002C01D09C4203D27E
:104FC00000230020137010BD88700420FBE7C0464A
:104FD00070B504000D0009F023F80022154B00F015
:104FE00025FB002812D00022134B2000290000F0DE
:104FF0003BFB002200280CD1104B2000290000F0C0
:1050000029FB00280DD00020002170BD20002900C0
:10501000FBE7094B2000290001F096FC09F004F899
:10502000F3E70022044B2000290002F025FE08F0DF
:1050300063FFEAE7000030430000E03F0000E0BF0C
:1050400070B5041C82B00D1C101C0021161C00F051
:1050500027FB002864D13349301C00F035FB0028C1
:1050600059D13049301C00F0E1FE019001A800F058
:1050700087F82D49201C01F0B1F82C49061C201C92
:1050800000F03AFD011C301C00F0D0FE019900F048
:1050900033FD2649041C01F0A1F8211C061C2248FE
:1050A00001F0CEF9011C301C00F0C0FE1E49041CAA
:1050B000019001F093F81D49061C201C00F01CFD16
:1050C000011C301C00F0B2FE1749041C281C01F022
:1050D00085F81649061C281C00F00EFD011C301C2A
:1050E00000F0A4FE011C201C01F0AAF909F0ECFA62
:1050F0000C4901F073F80B49041C00F0E5FA002894
:105100000CD10021201C00F0DFFA002800D100247F
:10511000201C02B070BDFE208005A6E7014CF7E719
:105120000020A2E70000C842C3F58C41B81E7343BB
:1051300070B5002915D0FF250B4B0C4E4118047893
:10514000013063402C001C406400345B1B0A634048
:105150008142F4D1DB439BB2D9B21B0A1170537068
:1051600070BD00230021F9E7FFFF0000184C010883
:1051700050405940084342425041C0B27047C04677
:1051800010B50400006809F013FB206010BDC04694
:1051900010B50400006809F087FB206010BDC04610
:1051A00010B50400081C216801F018F8616800F0CF
:1051B000A3FC10BD10B50400006809F0B1FD20602B
:1051C00010BDC04610B500F08DF810BD094B017F31
:1051D0000362094B10B543628362002908D00123A2
:1051E000002401339A008218DBB294609942F8D20D
:1051F00010BDC0460AD7A33C0AD7233B0023036156
:105200004361037B002B03D0012BFDD80023836077
:105210007047C046F0B5CE46474680B50F0089B00E
:1052200025498046386800F0D9FF23490290786804
:1052300000F0D4FF20490390B86800F0CFFF04903D
:1052400002A800F05BF8002405AE02AB1B59191C44
:10525000181C019300F0C2FF051C011C00F0BEFFEA
:10526000291C00F049FC02AB30511D5104340C2CB8
:10527000EBD13000FFF7A6FF0024FE2102AB1B5943
:10528000890538593559994600F004FA002810D19B
:105290004946281C01F0D4F8011C00F02DFC4346BF
:1052A000185104340C2CE8D109B00CBC9046994636
:1052B000F0BDFE208005F2E7DB0FC93F0323FC228F
:1052C0000376002392050260C3604260036182603E
:1052D0004361704701230372FC239B050360002395
:1052E0004360704770B5050004000C35206809F074
:1052F00017FD01C4AC42F9D170BDC04670B50500C0
:1053000004000C35206808F0E7FF01C4AC42F9D175
:1053100070BDC046002243088B4274D303098B4200
:105320005FD3030A8B4244D3030B8B4228D3030C75
:105330008B420DD3FF22090212BA030C8B4202D317
:105340001212090265D0030B8B4219D300E0090A3F
:10535000C30B8B4201D3CB03C01A5241830B8B4248
:1053600001D38B03C01A5241430B8B4201D34B0331
:10537000C01A5241030B8B4201D30B03C01A524196
:10538000C30A8B4201D3CB02C01A5241830A8B421B
:1053900001D38B02C01A5241430A8B4201D34B0204
:1053A000C01A5241030A8B4201D30B02C01A524168
:1053B000CDD2C3098B4201D3CB01C01A524183091C
:1053C0008B4201D38B01C01A524143098B4201D356
:1053D0004B01C01A524103098B4201D30B01C01A81
:1053E0005241C3088B4201D3CB00C01A52418308FB
:1053F0008B4201D38B00C01A524143088B4201D328
:105400004B00C01A5241411A00D201465241104687
:105410007047FFE701B5002000F0F0F802BDC0467C
:105420000029F7D076E7704703460B437FD400226C
:1054300043088B4274D303098B425FD3030A8B4228
:1054400044D3030B8B4228D3030C8B420DD3FF2292
:10545000090212BA030C8B4202D31212090265D060
:10546000030B8B4219D300E0090AC30B8B4201D313
:10547000CB03C01A5241830B8B4201D38B03C01A5A
:105480005241430B8B4201D34B03C01A5241030BD1
:105490008B4201D30B03C01A5241C30A8B4201D382
:1054A000CB02C01A5241830A8B4201D38B02C01A2D
:1054B0005241430A8B4201D34B02C01A5241030AA4
:1054C0008B4201D30B02C01A5241CDD2C3098B4289
:1054D00001D3CB01C01A524183098B4201D38B0106
:1054E000C01A524143098B4201D34B01C01A5241A9
:1054F00003098B4201D30B01C01A5241C3088B42EE
:1055000001D3CB00C01A524183088B4201D38B00D8
:10551000C01A524143088B4201D34B00C01A52417A
:10552000411A00D201465241104670475DE0CA0F51
:1055300000D04942031000D34042534000229C4611
:1055400003098B422DD3030A8B4212D3FC2289011B
:1055500012BA030A8B420CD3890192118B4208D3F1
:10556000890192118B4204D389013AD0921100E053
:105570008909C3098B4201D3CB01C01A5241830967
:105580008B4201D38B01C01A524143098B4201D394
:105590004B01C01A524103098B4201D30B01C01ABF
:1055A0005241C3088B4201D3CB00C01A5241830839
:1055B0008B4201D38B00C01A5241D9D243088B428F
:1055C00001D34B00C01A5241411A00D20146634632
:1055D00052415B10104601D34042002B00D5494296
:1055E000704763465B1000D3404201B5002000F0D5
:1055F00005F802BD0029F8D016E770477047C0468D
:105600008446101C62468C46191C634600E0C04666
:105610001FB502F057F8002801D40021C8421FBD71
:1056200010B501F0AFFF4042013010BD10B502F0DF
:1056300049F8002801DB002010BD012010BDC04644
:1056400010B502F03FF8002801DD002010BD012058
:1056500010BDC04610B501F0D1FF002801DC0020CC
:1056600010BD012010BDC04610B501F0C7FF0028D5
:1056700001DA002010BD012010BDC0468446081C80
:105680006146FFE71FB500F059FD002801D4002155
:10569000C8421FBD10B500F0DBFC4042013010BD18
:1056A00010B500F04BFD002801DB002010BD0120EB
:1056B00010BDC04610B500F041FD002801DD0020FE
:1056C00010BD012010BDC04610B500F0E9FC002857
:1056D00001DC002010BD012010BDC04610B500F057
:1056E000DFFC002801DA002010BD012010BDC046FB
:1056F000002B15D1002A13D1002906DB01DC00287C
:1057000006D00020C043410802E0802109060020A5
:1057100007B4024801A14018029003BDE1FEFFFF5B
:1057200003B4684601B5029800F0CAF9019B9E4691
:1057300002B00CBC7047C046002B11D1002A0FD11B
:10574000002900D1002802D00021C943081C07B459
:10575000024802A14018029003BDC046A1FEFFFF0F
:1057600003B4684601B5029800F0E8F8019B9E4634
:1057700002B00CBC7047C046F0B5CE464746150493
:105780002D0C2E0080B50704140C3F0C9946030C19
:105790007E435D43674363437F19340CE4199C46A1
:1057A000A54203D980235B029846C4444B46434339
:1057B0005143250C36046544360C2404A4195B19A6
:1057C000591820000CBC90469946F0BD9E2110B59A
:1057D000C905041CFFF782FF002803D1201C01F03B
:1057E00009F810BD9E21201CC90500F029FE01F01A
:1057F00001F880231B069C466044F2E770B5002246
:105800000C4B04000D00FFF72FFF002804D12000EF
:10581000290002F095FD70BD064B002220002900F2
:1058200002F02AFA02F08CFD80231B069C4660449D
:10583000F1E7C0460000E04170B505000C00002211
:10584000002328002100FFF7F1FE002804D12800E2
:10585000210000F00DF870BD80231B06E118280020
:1058600000F006F802000B00002150429941F2E7D7
:1058700070B500220B4B0D00040001F08BFFFFF709
:10588000BDFF060002F0CCFD0022074B01F082FFB5
:1058900002000B002000290002F0EEF9FFF7AEFF36
:1058A000310070BD0000F03D0000F041D0B5012690
:1058B00002000B00134F7642B6185F4104001248F5
:1058C000874219D9520504D08023E40AE4021B015F
:1058D0001C43080002F06AFD00220C4B01F05AFF45
:1058E00006000F00200002F09BFD32003B0001F09B
:1058F0002BF802F019FED0BD8742EAD1B01CE1D8E6
:10590000E7E7C046FFFF1F00FFFF3F000000F04138
:1059100070B50600080002F049FD0022064B01F0B8
:1059200039FF0D000400300002F07AFD2B00220048
:1059300001F00AF870BDC0460000F041F0B54F46D6
:105940004646D646C0B5040082B00D009146984642
:105950008B422FD82CD04146484602F087FE2900C2
:105960000600200002F082FE331A9C46203B9A4635
:1059700000D576E04B46524693401F004B466246A8
:1059800093401E00AF4228D825D05346A41BBD41EA
:10599000002B00DA7BE00022002300920193012318
:1059A000524693400193012362469340009318E0CE
:1059B0008242D0D900220023009201930A9B002B3F
:1059C00001D01C605D600098019902B01CBC90463B
:1059D0009946A246F0BDA342D7D9002200230092E7
:1059E00001936346002BE9D0FB07984641467208B5
:1059F0000A437B0866460EE0AB4201D1A2420CD8B6
:105A0000A41A9D41012024196D410021013E241852
:105A10004D41002E06D0AB42EED9013E24196D4116
:105A2000002EF8D100980199534600196941002BC6
:105A300023DB2B005246D3402A006446E2401C0080
:105A400053461500002B2DDB26005746BE40330081
:105A500026006746BE403200801A994100900191AD
:105A6000ACE7624620239B1A4A46DA40614613009F
:105A700042468A4017001F4380E7624620239B1A54
:105A80002A0066469A402300F3401343D4E7624657
:105A9000202300219B1A0022009101920122DA406A
:105AA000019280E72023624626009B1ADE402F00E9
:105AB000B0466646B74046463B003343C8E7C0465B
:105AC000F0B583B016001F000090019102F0DAFDDE
:105AD00004000D0002000B0030003900FFF74CFEFF
