:020000040000FA
:0400000080314C28D7
:100008007E1480314E01161E0A280B2813280C1E58
:100018000E280F28132884313C2480314A280B1FCE
:10002800162817284A28191C1A281B2823280F1CA9
:100038001E281F28232882312E2280314A289A1D03
:10004800262827282F28901D2A282B282F28833157
:10005800FB2380314A28191E322833283E280F1ED8
:10006800362837283E2840013F088A003E080A0003
:1000780080314A28171C412842284A280D1C452847
:1000880046284A2884317B2480314A287E1009007A
:1000980080314E28853151258031F900BF308400E8
:1000A8008430850051308600003087000A30853161
:1000B80006258031F501F601F701F80120308400AA
:1000C80000308500123085310C258031A030840045
:1000D80000308500403085310C2580312030840087
:1000E80001308500203085310C2580317E1040019B
:1000F80080317E2865308431282480318B170B1796
:10010800400152088A0051080A0080310430513EEB
:1001180086008701413F8A00403F0A0080318531CF
:100128004E258031003A03199A289B288A2857308F
:100138008431B32480312629AA30CF004F084201E8
:10014800D40054304001C2000130C300C401C40AC5
:100158008231EA2280318A282130CF004F084201BB
:10016800D50055304001C2000130C300C401C40AA3
:100178008231EA2280318A284201D601D60A5630D5
:100188004001C2000130C300C401C40A8231EA221E
:1001980080318A280230513E86008701413F8A001B
:1001A800403F0A0080318A282F30CF004F08C20014
:1001B8003130D0005008C3000630513E8600870118
:1001C800413F8A00403F0A0080312F304001C20081
:1001D8000030C3003108CF004F08C4008231EA2242
:1001E80080318A2884318A2480318A280B30400162
:1001F800CF006230890BFE28CF0BFE280000583054
:100208004001CF004F08CA0040308331C9238031F4
:10021800063042015806031D1229132947294008B0
:100228004001CF004F08C2004130D0005008C30041
:100238000830513E86008701413F8A00403F0A004E
:1002480081318A28420157084001CF00D001500867
:10025800003A0319302947294F08103A0319A028F2
:10026800013A0319B028023A0319CE28073A0319AC
:10027800D828013A0319F628363A0319C028073A4C
:100288000319FA2847298A2880314C28F200952931
:100298004001AA01AA0AAB297908F0007008F60003
:1002A800AC01AD01AD0A7C2921302C0203185D296F
:1002B8005E297C297908F0002C08C03E8600870159
:1002C800700881000130F0007008AC077C294001FB
:1002D8002A08F000F1017108003A03197429582915
:1002E8007008003A03195829013A03195029582966
:1002F800AA01AB2940012B08750203188429852916
:1003080092297508203E86000130870001084301C4
:100318008C000130F0007008F507AB2943018C010F
:10032800AB297208F000F1017108003A03199D2900
:10033800AB297008003A03194C29013A03197E29A0
:10034800033A03196B29013A0319AB29AB290800B1
:10035800043040019800990180309A003B309200A7
:10036800A03093007E3094007B307E01CE00403078
:10037800C3003330B800C4010130B9000430CF00E5
:10038800BA01C501D0013730BB00F030C600FF30DC
:10039800D1003F30BC00F030C700FF30D200CA1394
:1003A800C917C81355115415531154304001C200D0
:1003B8000530C30085312425813153304001C20006
:1003C8000530C30085311E2581314E0116160F30C8
:1003D8007D01C50013307E019F0014309D000F3051
:1003E8009C000D307D01C60008004E0119128730AF
:1003F8004001C2000330C30085312A25813108300D
:1004080042019F0080309D0024309E008A309B006E
:100418009C0100304001C2000030C3008531302506
:10042800813100304001C2000030C3008431E5242E
:10043800813100304001C2000030C3008431EE2415
:1004480081314001AE01F801F7012030C4004408B1
:10045800C10008004E010F1043010C08F300730897
:10046800F4000F1D382A392A4B2A8F1E3C2A3D2AB0
:10047800462A111F402A412A462A033081314A213F
:1004880082315C2A013081314A2182315C2A8F1AFB
:100498004E2A4F2A542A003081314A2182315C2A5F
:1004A8007408F3007308F900023081314A2182315F
:1004B80043011016080040014208031D642A652AFA
:1004C8008D2A43088600013087000108C4004408CB
:1004D800C0004308043E8600013087000108C400BC
:1004E800C5014308033E8600013087000108C600A5
:1004F800C7014608C700C60144084604B2004508BB
:100508004704B300400803198A2A8B2A8D2A500110
:100518000C1408004001C7004208C5004508C9007E
:100528004708C5004508C800B02A49088600870161
:100538000108C5004508C6000130C5004508C907BF
:100548004608C50048088600013087004508810034
:100558000130C5004508C8070130C3020030C43B5C
:10056800430A031DBB2A440A031DBB2ABC2A992A35
:10057800080064008531452582314001A901A90A96
:10058800A401A501B601B7018531482582310330A0
:100598004001C5000830C4007730890BD12AC40B4C
:1005A800D12AC50BD12A8431F72482314001290888
:1005B800031DDF2AE02ADA2A8431FF2482318531BB
:1005C8004B2582318331A92382310800F501022BA2
:1005D8007508C500C6014508420786004608433D20
:1005E80087000108C7007508203E86000130870093
:1005F800470881000130C5004508F5074001440857
:1006080075020318082B092B0F2B20307502031CC9
:100618000E2B0F2BEC2A7508C5004508AB00F50119
:100628000800BF304001C6004608930583313C23CB
:10063800833162304001C2000330C3008531182580
:100648008331143050018C0007308D004001031AAB
:100658002E2B2F2B382B50010C144001A801A80A6F
:100668008231BD2283313B2BC00150010C100800A0
:1006780041018C018D018E018F0192019301980136
:100688009A019F0142018C018D018E018F01900119
:100698009201930194019501960197013F309800CA
:1006A800843091004E010D10171455304001C200DE
:1006B8000530C3008531182583310800853136257A
:1006C80083317108F3007008F200730840013702A3
:1006D800031D702B720836020318732B742B782BAA
:1006E8007308B7007208B6000130A4070030A53DB2
:1006F80001302502903003192402031C842B852B1A
:10070800862BA901080020304001410203188D2BD7
:100718008E2BA62B7708A03E860087010108420190
:100728009A000130F0007008F70720307702031CA8
:100738009E2B9F2BA02BF7010130F0007008400181
:10074800C107A82B4E011912080040013708C30041
:100758004308B4003608C3004308B5002808031945
:10076800B62BB72BC22BA80137083302031DBE2BAB
:10077800360832020318C12BC22BC52B84319824AA
:10078800833185311225833108004001CE00C03005
:10079800CB004B08C2002C08CC00CD014C08C3008C
:1007A8004D08C4004E0882318E22833140012C0846
:1007B800CB004A088600013087004B0881000800FA
:1007C80002304001C40043088600870144088100C4
:1007D8003408C400420886008701440881003508AF
:1007E800C400420A860087014408810008004E01BF
:1007F800901101304001A0070030A13D00302102D6
:10080800643003192002031C0A2C0B2C112C843190
:10081800A62483314001A001A10108004001C200C3
:1008280043018F0126309000013091009201FE3083
:100838008E004001423543018D004E010F101914FE
:100848004001AC01AD0108004001C5008431C92454
:1008580084318131AC2184318431DC2484314001FC
:1008680045088431122484318131F921843108000A
:100878007E01CA1F402C412C442C84316C248431C5
:100888007E01551D482C492C4C2C84315D24843123
:100898000800630000004001031A532C542C5C2C00
:1008A80050010C144001A801A80A8231BD228431EC
:1008B800080040013A083B040319632C642C692C96
:1008C8003B088A003A080A0084317E015511080065
:1008D80040013C083D040319722C732C782C3D0808
:1008E8008A003C080A0084317E01CA1308004E01C0
:1008F8000D104001260827040319832C842C892C09
:1009080027088A0026080A008431080040019A1343
:100918000B304001C2006230890B902CC20B902C26
:10092800000040019A17080040019A130B3040015B
:10093800C2006230890B9E2CC20B9E2C0000400125
:100948009A1708004001220823040319AC2CAD2C87
:10095800B22C23088A0022080A00843108004001CA
:10096800C3007608C20043088600013087004208A9
:100978008100AD01080015340334BD3402344D3410
:100988000434E43403345F3402344F019601970190
:10099800980199019A019B019C019D010800400161
:1009A800C200420841019F0042019117111408003A
:1009B800603051018D008F01910106309300920142
:1009C8000800400143084101E30040014208410199
:1009D800E2000800400143084101E10040014208EB
:1009E8004101E0000800853142258431113084310D
:1009F800D3248431080085313C25843185313F2555
:100A080084310800FE0012001E00FE0B072D003482
:100A1800640080010131890B0D2D0034BF30400185
:100A2800C20042089905080040014308A70042088F
:100A3800A600080040014308BB004208BA000800AD
:100A480040014308BD004208BC00080040014308BB
:100A5800BF004208BE00080040014308B900420830
:100A6800B800080041011E08F1001D08F000080048
:100A78004201111008004201111308004201111728
:100A8800080040011917080040011A140800400125
:100A98001A10080040012D08080055340800080005
:040AA800080008003A
:020000040001F9
:0A000E00EC3FFF3FAA3FFF3FFF3F1A
:00000001FF
