:020000040000FA
:0400000080314028E3
:100008007E1480314E01161E0A280B2813280C1E58
:100018000E280F2813288331252380313E280B1FF3
:10002800162817283E28191C1A281B2823280F1CB5
:100038001E281F28232882310A2280313E28191EB3
:100048002628272832280F1E2A282B283228400144
:100058004C088A004B080A0080313E28171C3528B6
:1000680036283E280D1C39283A283E288331132388
:1000780080313E287E100900803142288331E123F7
:100088008031FB00F601F701F801F901FA014E3061
:100098008400003085000D30833199238031A030F1
:1000A800840000308500403083319923803120302E
:1000B80084000130850020308331992380317E10FF
:1000C80040018031672865308231D92280318B1711
:1000D8000B178331D5238031003A0319742875280A
:1000E8006D2826304001A4002408A0003A30A5005D
:1000F8002508A1004030833101238031CE28AA3061
:10010800A4002408BB00A001A00A3B3082313B2296
:10011800803163006D282130A4002408BC00A001B0
:10012800A00A3C3082313B22803163006D280230C6
:10013800A4002408BD00A001A00A3D3082313B2262
:10014800803163006D28AA30A4002408BE00A001F5
:10015800A00A3E3082313B22803183318B238031AB
:100168006D280230A4002408A000593082313B22B7
:10017800803163006D28AA30A4002408BF00A001C4
:10018800A00A3F3082313B228031833154238031B1
:1001980063006D2840014008A400A5012508003A25
:1001A8000319D728EB282408103A03198328013AA1
:1001B80003198F28033A03199B28013A0319A72822
:1001C800073A0319B528013A0319BF28EB286D2807
:1001D80080314028F20039294001D401D40A4F293E
:1001E8007B08F0007008D700F701D601D60A20294D
:1001F8002130770203180129022920297B08F00001
:100208007708C03E86008701700881000130F00041
:100218007008F707202940015408F000F10171081F
:10022800003A03191829FC287008003A0319FC2819
:10023800013A0319F428FC28D4014F294001550834
:10024800760203182829292936297608203E8600AF
:1002580001308700010843018C000130F00070086C
:10026800F6074F2943018C014F297208F000F1016C
:100278007108003A031941294F297008003A0319F7
:10028800F028013A03192229033A03190F29013AE0
:1002980003194F294F29080004304001980099019B
:1002A80080309A003B309200A03093007E3094005A
:1002B8007B307E01CE004030C3003330B800C4012B
:1002C8000130B9000430CF00BA01C501D001373080
:1002D800BB00F030C600FF30D1003F30BC00F0302A
:1002E800C700FF30D200CA13C917C81355115415D7
:1002F8005311E3304001A0000330A1008331AB2348
:100308008131E2304001A0000330A1008331A523F0
:1003180081314E0116160F307D01C50013307E0164
:100328009F0014309D000F309C000D307D01C600E9
:1003380008008331C92381317108F5007008F40081
:10034800750840015102031DAB29740850020318B7
:10035800AE29AF29B3297508D1007408D00001303F
:1003680053028F3003195202031CBB29BC29C5292B
:10037800FA01FA0A5108F2005008F1008231ED2220
:10038800813101304001D2070030D33D7A0803198A
:10039800CE29CF29D429FA01D001D101D201D30124
:1003A80008004E0119128A304001A0000230A10055
:1003B8008331B1238131083042019F0080309D0094
:1003C80024309E008A309B009C0100304001A00030
:1003D8000030A1008331BD23813100304001A000ED
:1003E8000030A1008331B723813100304001A000E3
:1003F8000030A1008331C32381314001D801F901C4
:10040800F8012030A2002208CD0008004E010F108C
:1004180043010C08F3007308F4000F1D142A152A71
:10042800272A8F1E182A192A222A111F1C2A1D2A38
:10043800222A03308031EE208231382A013080317F
:10044800EE208231382A8F1A2A2A2B2A302A0030A5
:100458008031EE208231382A7408F3007308FB00DB
:1004680002308031EE20823143011016080040012D
:10047800A300F601522A76082307A1002108860066
:1004880087010108A2007608203E86000130870017
:10049800220881000130A1002108F6072008760211
:1004A8000318572A582A5E2A20307602031C5D2A30
:1004B8005E2A3F2A7608A1002108D500F601080027
:1004C80041018C018D018E018F01920193019801E8
:1004D8009A019F0142018C018D018E018F019001CB
:1004E8009201930194019501960197013F3098007C
:1004F800843091004E010D101714E4304001A00023
:100508000330A10083319F2382310800203040014D
:100518004D020318902A912AA92A7808A03E86003D
:100528008701010842019A000130F0007008F807BD
:1005380020307802031CA12AA22AA32AF80101303C
:10054800F00070084001CD07AB2A4E0119120800CF
:1005580003304001A3000830A2007730890BB22A8B
:10056800A20BB22AA30BB22A8231642282318331D0
:10057800CF23823111308331792382310800400141
:10058800A00043018F0126309000013091009201B4
:10059800FE308E004001203543018D004E010F10C2
:1005A8001914F7014001D60108004001A300833166
:1005B8006F2382318131502182318331822382310C
:1005C800400123088231C32282318131D521823111
:1005D80008008331922382318331DE23823172080D
:1005E800F30073084001D9007108F3007308DA00BA
:1005F800833162238231630008004001A300570859
:10060800A200230886008701220881007708A2003B
:1006180021088600870122088100D601080081315F
:100628009D2183314E010D1040014E084F040319DE
:100638001E2B1F2B242B4F088A004E080A008331DB
:1006480008007E01CA1F292B2A2B2D2B8331452315
:1006580083317E01551D312B322B352B83313623C7
:100668008331080040014708480403193C2B3D2BFF
:10067800422B48088A0047080A0083317E01551139
:100688000800400149084A0403194B2B4C2B512BF5
:100698004A088A0049080A0083317E01CA13080003
:1006A80040019A130B304001A0006230890B5A2B8D
:1006B800A00B5A2B000040019A17080040019A131A
:1006C8000B30F0006230890B672BF00B672B003280
:1006D80040019A1708004F01960197019801990166
:1006E8009A019B019C019D0108004001A00020087F
:1006F80041019F0042019117111408006030510117
:100708008D008F019101063093009201080083311A
:10071800D22383318231AC22833108008331D8233C
:1007280083318331DB238331080064008001013188
:10073800890B9A2B003440012108CF002008CE00F5
:10074800080040012108C8002008C700080040012F
:100758002108CA002008C900080040012108CC006F
:100768002008CB00080040012108C4002008C3006D
:10077800080040012108C6002008C5000800400103
:100788002108C2002008C100080041011E08F1002C
:100798001D08F000080042011117080040011A1452
:1007A80008004001560808004201111008004201E3
:1007B8001113080040011A100800553408000800F9
:0207C800080027
:020000040001F9
:0A000E00EC3FFF3F9F3FFF3FFF3F25
:00000001FF
