:020000040000FA
:0400000080314028E3
:100008007E1480314E01161E0A280B2813280C1E58
:100018000E280F28132883314A2380313E280B1FCE
:10002800162817283E28191C1A281B2823280F1CB5
:100038001E281F28232882312F2280313E28191E8E
:100048002628272832280F1E2A282B283228400144
:1000580060088A005F080A0080313E28171C35288E
:1000680036283E280D1C39283A283E288331382363
:1000780080313E287E1009008031422884311424C2
:100088008031FB00C6308400833085001200E20016
:100098001200E3001200E4001200E5001200E6007E
:1000A8001200E700F601F701F801F901FA014730FB
:1000B8008400003085000E308331CC238031A0309D
:1000C80084000030850040308331CC2380312030DB
:1000D80084000130850020308331CC2380317E10AC
:1000E80040018031772865308231FE2280318B17BC
:1000F8000B17843108248031003A03198428852895
:100108007D282B304001A8002808A0004030A90015
:100118002908A1004630833126238031F328AA30EC
:10012800A8002808C100A001A00A4130823160223D
:10013800803163007D282130A8002808C200A00172
:10014800A00A423082316022803163007D28C301D9
:10015800C30AA001A00A43308231602280316300C3
:100168007D282B08A8002808BF00AA30A800280866
:10017800C400A001A00A44308231602280314001CD
:100188003F08A8002808A4005230A9002908A500A3
:100198005430AA002A08A6000230623E8600870171
:1001A800413F8A00403F0A0080317D285408A8005A
:1001B8002808A000523082316022803163007D28F7
:1001C800AA30A8002808C500A001A00A453082313D
:1001D8006022803183318823803163007D2840018B
:1001E8004608A800A9012908003A0319FC28102983
:1001F8002808103A03199328013A03199F28023A4C
:100208000319B528073A0319DA28013A0319E4282B
:10021800363A0319AB2810297D2880314028F2008E
:100228005E294001CE01CE0A74297B08F0007008CF
:10023800F800F701D001D00A4529213077020318C8
:100248002629272945297B08F0007708C03E860023
:100258008701700881000130F0007008F707452910
:1002680040014E08F000F1017108003A03193D29D8
:1002780021297008003A03192129013A031919297B
:100288002129CE01742940014F08760203184D290F
:100298004E295B297608203E860001308700010838
:1002A80043018C000130F0007008F60774294301FF
:1002B8008C0174297208F000F1017108003A0319E1
:1002C800662974297008003A03191529013A031997
:1002D8004729033A03193429013A0319742974295F
:1002E8000800043040019800990180309A003B30A2
:1002F8009200A03093007E3094007B307E01CE00C7
:100308004030C3003330B800C4010130B9000430B4
:10031800CF00BA01C501D0013730BB00F030C600AC
:10032800FF30D1003F30BC00F030C700FF30D200B2
:10033800CA13C917C8135511541553111630400163
:10034800A0000430A1008331DE2381311530400143
:10035800A0000430A1008331D82381314E01161644
:100368000F307D01C50013307E019F0014309D00C1
:100378000F309C000D307D01C60008008331FC233E
:1003880081317108F5007008F400750840014802D1
:10039800031DD029740847020318D329D429D82962
:1003A8007508C8007408C70001304A028F30031965
:1003B8004902031CE029E129EA29CD01CD0A4808B0
:1003C800F2004708F10083311223813101304001E6
:1003D800C9070030CA3D4D080319F329F429F92942
:1003E800CD01C701C801C901CA0108004E0119128F
:1003F800AF304001A0000230A1008331E4238131F5
:10040800083042019F0080309D0024309E008A30D1
:100418009B009C0100304001A0000030A100833106
:10042800F023813100304001A0000030A100833169
:10043800EA23813100304001A0000030A10083315F
:10044800F62381314001D101FA01F9012030A200DF
:100458002208E10008004E010F1043010C08F300C8
:100468007308F4000F1D392A3A2A4C2A8F1E3D2A98
:100478003E2A472A111F412A422A472A033081313E
:10048800132182315D2A01308131132182315D2AA5
:100498008F1A4F2A502A552A003081311321823170
:1004A8005D2A7408F3007308FB00023081311321C0
:1004B80082314301101608004001A300F601772A93
:1004C80076082307A1002108860087010108A200F9
:1004D8007608203E8600013087002208810001301E
:1004E800A1002108F6072008760203187C2A7D2A35
:1004F800832A20307602031C822A832A642A7608FB
:10050800A1002108CF00F601080041018C018D01EE
:100518008E018F019201930198019A019F01420176
:100528008C018D018E018F0190019201930194013C
:100538009501960197013F309800843091004E0153
:100548000D10171417304001A0000430A1008331AA
:10055800D223823108002030400161020318B52AF5
:10056800B62ACE2A7908A03E8600870101084201F2
:100578009A000130F0007008F90720307902031C56
:10058800C62AC72AC82AF9010130F00070084001BC
:10059800E107D02A4E011912080003304001A300D8
:1005A8000830A2007730890BD72AA20BD72AA30BD1
:1005B800D72A823189228231843102248231113052
:1005C8008331AD23823108004001A00043018F012F
:1005D80026309000013091009201FE308E004001DB
:1005E800203543018D004E010F101914F701400109
:1005F800D00108004001A3008331A3238231813157
:10060800752182318331B62382314001230882313A
:10061800E82282318131FA21823108008331BF23F7
:1006280083318431112483317208F3007308400147
:10063800D2007108F3007308D30083319623833105
:10064800630008004001A3007808A2002308860080
:100658008701220881007708A20021088600870107
:1006680022088100D00108008131C22183314E0166
:100678000D1040014B084C040319432B442B492B04
:100688004C088A004B080A00833108007E01CA1F03
:100698004E2B4F2B522B8331792383317E01551DED
:1006A800562B572B5A2B83316A238331080002308B
:1006B8004001A700260886008701270881008431A9
:1006C800052483318231D1228331080040015B083F
:1006D8005C040319702B712B762B5C088A005B086D
:1006E8000A0083317E015511080040015D085E044F
:1006F80003197F2B802B852B5E088A005D080A0072
:1007080083317E01CA13080040019A130B3040015F
:10071800A0006230890B8E2BA00B8E2B00004001AD
:100728009A17080040019A130B30F0006230890BC9
:100738009B2BF00B9B2B003240019A1708004F01AE
:1007480096019701980199019A019B019C019D01CD
:1007580008004001A000200841019F0042019117B4
:1007680011140800603051018D008F01910106308D
:1007780093009201080084310B24833184310E24C4
:1007880083310800003400345B340334003400340F
:10079800640080010131890BCD2B00344001210810
:1007A800CC002008CB00080040012108DC0020080C
:1007B800DB00080040012108DE002008DD000800F9
:1007C80040012108E0002008DF000800400121085E
:1007D800D8002008D700080040012108DA002008C6
:1007E800D900080040012108D6002008D5000800DB
:1007F80041011E08F1001D08F00008004201111710
:10080800080040011A14080040015008080042017D
:100818001110080042011113080040011A100800C5
:08082800553408000800080027
:020000040001F9
:0A000E00EC3FFF3F9F3FFF3FFF3F25
:00000001FF
