:020000040000FA
:1000000080312B2848340C347E14803141015A0849
:100010008A0059080A0080310B1F0F281028292850
:100020004E01191C142815281D280F1C18281928E2
:100030001D288E31372680312928171C2028212899
:1000400029280D1C2428252829288C31A624803114
:1000500029287E10090080312D288C3149248031D7
:10006000F9004101803102208031D9008031032024
:100070008031DA00763084008C308500663086006E
:10008000013087000A308C315A248031F601F701A3
:10009000F801A03084000030850026308C315424D3
:1000A0008031203084000130850046308C3154246A
:1000B00080317E1040018331082B823052018C0048
:1000C0004101BC01BC0A40011A141A1768304101F1
:1000D000CC00E430890B6A28CC0B6A28000013306E
:1000E0008C31C824803113308C31C82480314001D8
:1000F00021084101C200400120084101C1005230E5
:100100004101CD002B30CC000030890B8528CC0B71
:100110008528CD0B8528000013308C31C824803110
:10012000400121084101B700400120084101B6000B
:1001300042083702031D9E28410836020318A128F1
:10014000A228A6283708C2003608C100B7304001EF
:10015000BB003530BC004130BD000030AB0080300A
:10016000AC004530AD00410142084001A900410109
:1001700041084001A8008C31DD248031400128086D
:10018000AE002908AF002A08B0008431A8248031CD
:1001900040012B08BE002C08BF002D08C000833191
:1001A000E723803140013B084101A90040013C08A0
:1001B0004101AA0040013D084101AB0014308C31DF
:1001C000C824803114308C31C8248031400121088A
:1001D0004101C400400120084101C30075304001C5
:1001E000BB009130BC004030BD000030AB0080301F
:1001F000AC004530AD00410144084001A900410177
:1002000043084001A8008C31DD24803140012808DA
:10021000AE002908AF002A08B0008431A82480313C
:1002200040012B08BE002C08BF002D08C000833100
:10023000E723803140013B084101AC0040013C080C
:100240004101AD0040013D084101AE0040011A10DE
:100250001A1341012C084001A00041012D08400162
:10026000A10041012E084001A200410126084001E1
:10027000A300410127084001A400410128084001D2
:10028000A5008D31FE2580310318472948294B29C7
:100290004101BA01BA0A41012C084001BE004101E6
:1002A0002D084001BF0041012E084001C000003070
:1002B000BB001630BC004430BD008331E7238031E1
:1002C00040013B084101C60040013C084101C70014
:1002D00040013D084101C800873168278031410154
:1002E0004608D2004708D3004808D400520840010D
:1002F000A000410153084001A10041015408400100
:10030000A2008531F7258031400121084101CF004D
:10031000400120084101CE0029084001BE004101F2
:100320002A084001BF0041012B084001C0000030F5
:10033000BB001630BC004430BD008331E723803160
:1003400040013B084101C60040013C084101C70093
:1003500040013D084101C8008731682780314101D3
:100360004608D2004708D3004808D400520840018C
:10037000A000410153084001A1004101540840017F
:10038000A2008531F7258031400121084101D100CB
:10039000400120084101D0004F08CC004C08A000CB
:1003A0004E08CC004C08A1005108CC004C08A2001B
:1003B0005008CC004C08A3004430CC004C08A400EA
:1003C0004430CC004C08A500BC0152018C0108004F
:1003D00040012808AE002908AF002A08B000031029
:1003E0002F0D300DB1003108B4002B08AE002C08E1
:1003F000AF002D08B00003102F0D300DB1003108F3
:10040000B30034080319052A062A162A33083402D1
:1004100003180B2A0C2A1D2A3308AE003408AE023A
:1004200019302E02031C152A162A1D2A2B08A80093
:100430002C08A9002D08AA00072B33080319212A2C
:10044000222A322A340833020318272A282A332A78
:100450003408AE003308AE0219302E02031C312AD4
:10046000322A332A072B0630AE002E08B200AA1F0C
:100470003A2A3B2A3C2AB217AD1F3F2A402A412A7A
:100480003217A917FF30A805FF30A9050030AA05CB
:10049000AC17FF30AB05FF30AC050030AD053308BD
:1004A00034020318542A552A7D2A0130AB35AC0D8D
:1004B000AD0D890B562A0130B302330834060319F7
:1004C000622A632A762A0130B20232080739031DF4
:1004D0006A2A6B2A552A762A0130AA36A90CA80C5A
:1004E000890B6D2A0130AE002E08B407340833069C
:1004F000031D7B2A7C2A6C2AAA2A3408330203189B
:10050000822A832AAA2A0130A835A90DAA0D890BAF
:10051000842A0130B402330834060319902A912A40
:10052000A42A0130B20232080739031D982A992AF9
:10053000832AA42A0130AD36AC0CAB0C890B9B2A64
:100540000130AE002E08B30734083306031DA92A74
:10055000AA2A9A2AB21FAD2AAE2ABE2AFF30A806BE
:10056000FF30A906FF30AA060130A80700300318A3
:100570000130A907003003180130AA07321FC12A31
:10058000C22AD22AFF30AB06FF30AC06FF30AD06E0
:100590000130AB07003003180130AC0700300318FE
:1005A0000130AD07B2012808AB072908AC3D2A0885
:1005B000AD3DAD1FDC2ADD2AEF2AFF30AB06FF3050
:1005C000AC06FF30AD060130AB0700300318013038
:1005D000AC07003003180130AD07B201B20A2B0896
:1005E000A0002C08A1002D08A2003408AE002E089F
:1005F000A3003208AF002F08A4008631F326813112
:1006000040012008A8002108A9002208AA0008002B
:1006100045308D3153258331420167088A006608D1
:100620000A0083310430663E860001308700413F76
:100630008A00403F0A00833160304101D7005708EB
:10064000F400C530D8005808F5000630663E860034
:1006500001308700413F8A00403F0A008331410159
:100660004508D70057084001A00060308D319C2517
:1006700083318731FD278331003A0319402B412B09
:10068000122BB8308C3180248331CC2BAA3041011D
:10069000D70057084301B5004001A001A00AB530BA
:1006A0008D319C258331122BB601B60A4001A00181
:1006B000A00AB6308D319C258331122B03304101C5
:1006C000D70057084301B7004001A001A00AB73086
:1006D0008D319C258331122B0230663E860001301D
:1006E0008700413F8A00403F0A008331122B1430BB
:1006F0004101D70057084301B400872B0B3041015B
:10070000D7006230890B822BD70B822B00008C31F3
:100710006E248331003A031D8E2B8F2BE42B013086
:100720004301B402340A031D962B972B7E2B122B08
:100730008C3199248331122B15304101D700C630FA
:10074000890BA02BD70BA02B0000B9304101D7009B
:100750005708F400A0308C31F32483310630430174
:100760003906031DB42BB52BE42B20084101D7001B
:1007700057084001BB00A1304101D8005808400192
:10078000BC000830663E860001308700413F8A0089
:10079000403F0A008331122B43013808103A0319F5
:1007A000462B013A0319542B023A03196C2B073AD2
:1007B0000319772B013A0319982B363A03195E2B4C
:1007C000073A03199C2BE42B122B80312B28400174
:1007D0003B08C1003C08C2003D08C3000310420DA5
:1007E000430DC4004408C5004508031DF82BF92B30
:1007F000002C0030BB000030BC000030BD00A72C36
:100800003E08C1003F08C2004008C3000310420D6B
:10081000430DC4004408CA004A08031D102C112CC3
:10082000182C0030BB000030BC000030BD00A72CED
:100830004A087B3EC1004108C5073B08C1003C088F
:10084000C2003D08C3001030C336C20CC10C890B76
:10085000242C4108C4004408CA003E08C1003F08D7
:10086000C2004008C3001030C336C20CC10C890B53
:10087000342C4108C4004408CA068030C100410835
:10088000CA05BC17BF17FF30BE05FF30BF050030DB
:10089000C0050030C6000030C7000030C800073077
:1008A000C1004108C9003B1C562C572C5D2C3E084A
:1008B000C6073F08C73D4008C83D0130BD36BC0CE7
:1008C000BB0C890B5E2C0130BE35BF0DC00D890BF2
:1008D000642C0130C902031D6E2C6F2C532C09307F
:1008E000C1004108C9003B1C762C772C7D2C3E08AA
:1008F000C6073F08C73D4008C83D0130BD36BC0CA7
:10090000BB0C890B7E2C0130C836C70CC60C890B7A
:10091000842C0130C902031D8E2C8F2C732C4608A9
:10092000A0004708A1004808A2004508C1004108EE
:10093000A3004A08C2004208A4008631F32683318E
:1009400040012008BB002108BC002208BD000800AF
:1009500040012E08B1002F08B2003008B300031088
:10096000320D330DB4003408B6003608031DB92C1F
:10097000BA2CC12C0030AB000030AC000030AD0010
:10098000592D2B08B1002C08B2002D08B30003101C
:10099000320D330DB4003408BA003A08031DD12CCF
:1009A000D22CD92C0030AB000030AC000030AD00B0
:1009B000592D0030B7000030B8000030B900893040
:1009C0003A07B1003108B6022E08B1002F08B20074
:1009D0003008B3001030B336B20CB10C890BEB2CDD
:1009E0003108B4003408BA002B08B1002C08B2005A
:1009F0002D08B3001030B336B20CB10C890BFB2CB0
:100A00003108B4003408BA068030B1003108BA05A4
:100A1000AF17FF30AE05FF30AF050030B005AC17A3
:100A2000FF30AB05FF30AC050030AD051830B1002C
:100A30003108B5000130B735B80DB90D890B1B2D44
:100A40002D083002031D2A2D2C082F02031D2A2DEC
:100A50002B082E02031C2D2D2E2D352D2B08AE021A
:100A60002C08AF3B2D08B03B37140130AE35AF0D2D
:100A7000B00D890B362D0130B502031D402D412DDF
:100A80001A2D3708A0003808A1003908A20036083E
:100A9000B1003108A3003A08B2003208A400863140
:100AA000F326843140012008AB002108AC00220865
:100AB000AD000800400119170530F5000F30F400B3
:100AC000F130890B612DF40B612DF50B612D0000C8
:100AD000400119130530F5000F30F400F130890B97
:100AE0006F2DF40B6F2DF50B6F2D000040011917C2
:100AF0000530F5000F30F400F130890B7D2DF40B3B
:100B00007D2DF50B7D2D0000400119130530F500FA
:100B10000F30F400F130890B8B2DF40B8B2DF50B7E
:100B20008B2D0000400119170530F5000F30F4003F
:100B3000F130890B992DF40B992DF50B992D0000AF
:100B4000400119131530F5004B30F400BE30890B0D
:100B5000A72DF40BA72DF50BA72D003240019A14F9
:100B60000530F5000F30F400F130890BB52DF40B92
:100B7000B52DF50BB52D000040019A100530F5009C
:100B80000F30F400F130890BC32DF40BC32DF50B9E
:100B9000C32D000040019A140530F5000F30F40019
:100BA000F130890BD12DF40BD12DF50BD12D000097
:100BB00040019A100530F5000F30F400F130890B38
:100BC000DF2DF40BDF2DF50BDF2D000040019A1413
:100BD0000530F5000F30F400F130890BED2DF40BEA
:100BE000ED2DF50BED2D000040019A10080040019D
:100BF0002008A4002108A5002208A6000310250D46
:100C0000260DA7002708AD002D08031D082E092E6C
:100C1000122E0030A3000030A2000030A1000030EE
:100C2000A0007B2E2008A4002108A5002208A60011
:100C30001730A636A50CA40C890B192E2408A70082
:100C40002708A800A117FF30A005FF30A10500303C
:100C5000A2052008A9002108AA002208AB00AC01C7
:100C60008E30AD02AD1F352E362E4E2E2D08803A19
:100C70008F3E03183C2E3D2E3E2E092E0130AC3601
:100C8000AB0CAA0CA90C890B3F2E0130A400240840
:100C9000AD07031D4C2E4D2E3E2E632E18302D0217
:100CA000031C532E542E5E2E092E0130A935AA0D99
:100CB000AB0DAC0D890B562E0130AD022D08031D76
:100CC000622E632E552E28080319672E682E732E68
:100CD000A909AA09AB09AC09A90A0319AA0A0319A7
:100CE000AB0A0319AC0A2C08A3002B08A2002A089F
:100CF000A1002908A000080040013B08031D812E27
:100D0000822ED02E3C088600013087000108BD00ED
:100D10003D084101BB0040013C08043E8600013013
:100D200087000108BD00BE013C08033E860001307B
:100D300087000108BF00C0013F08C000BF013D0897
:100D40003F044101B40040013E0840044101B500A8
:100D500000304001AB001630AC004430AD00410122
:100D600035084001A900410134084001A8008C3138
:100D7000DD24863140012808AE002908AF002A088A
:100D8000B0008431A824863140012B084101A6001F
:100D900040012C084101A70040012D084101A80095
:100DA00041013B080319D52ED62EDF2E50010C1819
:100DB000DA2EDB2EDF2E8C3167248631F22E4101B4
:100DC0003B080319E42EE52EEF2E50010C1CE92EF2
:100DD000EA2EEF2E0C10640050010C14F22E50017C
:100DE0000C1064000800400123080319F82EF92EA6
:100DF000002F220821042004031DFF2E002F112F95
:100E00000030A0000030A1000030A200672F0130A8
:100E1000A5002508A3070130A236A10CA00C890B60
:100E20000C2FFE302205031D162F172F072F2C2FF6
:100E30000130A5002508A3070130A00700300318E2
:100E40000130A107003003180130A2070130A2369B
:100E5000A10CA00C890B272FFF302205031D312F79
:100E6000322F182F3B2F0130A3020130A035A10DE6
:100E7000A20D890B362FA11B3E2F3F2F452F02308D
:100E800023020318442F452F332F2318482F492FAF
:100E90004F2FFF30A0057F30A105FF30A2050310C2
:100EA000A30C2308A500A601A7011030A535A60DA7
:100EB000A70D890B562F2508A0042608A104270892
:100EC000A20424080319652F662F672FA2170800B4
:100ED000410146084001B600410147084001B70002
:100EE000410148084001B8008E31B82687314001E1
:100EF0003608BF003708C0003808C1004101460865
:100F00004001C200410147084001C30041014808B7
:100F10004001C4008D313225873140013F08410135
:100F2000C900400140084101CA0040014108410197
:100F3000CB0049084001A80041014A084001A9002E
:100F400041014B084001AA00410146084001AB00A5
:100F5000410147084001AC00410148084001AD0093
:100F60008131E8218731400128084101C600400154
:100F700029084101C70040012A084101C80046086C
:100F80004001B600410147084001B700410148084F
:100F90004001B8008E31B826873140013608410142
:100FA000C600400137084101C7004001380841012F
:100FB000C80008004F0116108D31122587317E01BF
:100FC000CE13400194139A177E014313CE104001B3
:100FD0001313941019139A107E014E104E134001F2
:100FE000141014131A101A13941514167E01CE152A
:100FF0004E1685315A258731080041014008080006
:10188E000800080055344101BD01BD0A0800603052
:10189E0051018D0006309300080064008001013173
:1018AE00890B552C0034FE0012001E00FE0B5B2C23
:1018BE00003451018C13000063000000000008008A
:1018CE001C3050018C0007308D000C140800760877
:1018DE00031D722C742C0130752C00300800DA3484
:1018EE0007344A340C349B340F34FF340E347C34BA
:1018FE000634F5007808F40075088600013087007C
:10190E00740881004101C001080040019A130B3098
:10191E00F4006230890B912CF40B912C00324001B3
:10192E009A170800031040019A1F03140318A02CE5
:10193E00A32C40019A17A52C40019A1308004E01C2
:10194E000D104101380839040319AE2CAF2CB42CFC
:10195E0039088A0038080A008C310800FF304F0120
:10196E0096009613FF309700FF309800FF309900D5
:10197E00FF309A00FF309B00FF309C00FF309D002F
:10198E000800F400740841019F00420191171113E1
:10199E0011141118D32CD42CD02C41011E08400147
:1019AE00A10041011D084001A000080040012808C7
:1019BE00A0002908A100A2018E30F4007408A30033
:1019CE00A4018631F3268C3140012008A80021089D
:1019DE00A9002208AA0008004001A00020088600E5
:1019EE0001308700082D40308400013085007708D3
:1019FE00F50075080319092D12001E00F50B032DB5
:101A0E00092DFA2C7708F50074088600013087003E
:101A1E00750881000800823052018C0041018C0152
:101A2E008D018E018F019201930198019A019F0100
:101A3E0042018C018D018E018F0190019201930163
:101A4E00940195010330960097019801843091001E
:101A5E0052018C0108004001410840043F04031963
:101A6E00392D3A2D3C2D8030C1064208A80043087E
:101A7E00A9004408AA003F08AB004008AC0041088A
:101A8E00AD008131E8218D3140012808BF002908C1
:101A9E00C0002A08C1000800F5008C31B5248D3134
:101AAE008C314E248D31500192147E01B801C30148
:101ABE00CE01CE1440019201930194019414FF3093
:101ACE009800FF309900FF309A009A1075088D31FA
:101ADE0074258D318B170B170800F4004F011C1065
:101AEE007E01C312C3134001931693170F307D016D
:101AFE00C50013307E019F0014309D000D307D0116
:101B0E00C60043018F0126309000013091009201F2
:101B1E001214FE308E0074358D004E010F10191404
:101B2E00F601F7014101C00108004001A300B32DE9
:101B3E0076082307A10021088600013087000108DE
:101B4E00A2007608203E8600013087002208810020
:101B5E000130A1002108F607200876020318B82DDF
:101B6E00B92DBF2D20307602031CBE2DBF2D9F2D0B
:101B7E007608A10021084101BF00F60108004001CE
:101B8E00220821042004031DCD2DCE2DD52D230892
:101B9E00860087010030C03FC13FFD2D22087F39EE
:101BAE00F400F501F435F50D23088600870174085D
:101BBE00C03F7508C13F210D210D0139F400F5011B
:101BCE002308860087017408810441317508810459
:101BDE00230886008701823081074131FF30813D25
:101BEE007F31220880393F38A200A113080040013E
:101BFE00A21F022E032E102E2008003CA00021084A
:101C0E00031C210F003CA1002208031C220F803C64
:101C1E00A200A51F132E142E212E2308003CA30074
:101C2E002408031C240F003CA4002508031C250FC8
:101C3E00803CA5008030A2068030A5062508220231
:101C4E00031D2F2E24082102031D2F2E23082002F0
:101C5E000318322E332E352E0310362E03140800A1
:101C6E004E0119100F1043010C08F2007208F30018
:101C7E000F1D422E432E572E8F1E462E472E502EB0
:101C8E00111F4A2E4B2E502E03308F3148278E3186
:101C9E006F2E01308F3148278E31430110166F2E73
:101CAE008F1A5A2E5B2E602E00308F3148278E31C0
:101CBE006F2E7308F2007208F90002308F31482738
:101CCE008E31430110164E010F1C6E2E6F2E6A2E92
:101CDE004E010F10430110164E0119140800400159
:101CEE00B5018E30B2003208B400B11F7F2E802EA7
:101CFE00992EAE09AF09B009B109AE0A0319AF0AA0
:101D0E000319B00A0319B10AB501B50A992E0130AB
:101D1E00B136B00CAF0CAE0C890B8F2E0130B20069
:101D2E003208B407FF303105031D9E2E9F2E8E2ED6
:101D3E002E08A0002F08A1003008A2003408B2001F
:101D4E003208A3003508B3003308A4008631F32609
:101D5E008E3140012008AE002108AF002208B000ED
:101D6E00080040013608A0003708A1003808A2007C
:101D7E003D30B9003908A3008D31C6258E314001A2
:101D8E00BE1FCA2ECB2ED22E0030B6000030B700AA
:101D9E000030B800FE2E00303E02153003193D0211
:101DAE00031CDA2EDB2EDC2EFE2E3608A0003708A2
:101DBE00A1003808A2008531F7258E314001230895
:101DCE00B1002208B0002108AF002008AE008E310D
:101DDE0076268E3140012E08BA002F08BB0030083F
:101DEE00BC003A08B6003B08B7003C08B800080033
:101DFE0006304001A000750886008701200881008A
:101E0E00410120084001A0007408860001308700BF
:101E1E0020088100410121084001A000740A8600BB
:101E2E000130870020088100410122084001A000F6
:101E3E007408023E860001308700200881004101AF
:101E4E0023084001A0007408033E8600013087007D
:101E5E0020088100410124084001A0007408043EBE
:101E6E0086000130870020088100410125084001CD
:101E7E00A0007408053E860001308700200881000E
:101E8E000800F1008C2F4101BE01BE0A9A2F79087D
:101E9E00F0007008F800F701C001C00A732F21305E
:101EAE00770203185B2F5C2F732F7908F0007708E9
:101EBE00403E860001308700700881000130F0003E
:101ECE007008F707732F41013E08003A0319562F89
:101EDE00013A03194E2F562FBE019A2F41013F088A
:101EEE00760203187B2F7C2F892F7608203E8600E2
:101EFE0001308700010843018C000130F0007008AA
:101F0E00F6079A2F43018C019A2F7108003A031994
:101F1E004A2F013A0319752F033A03196A2F013A12
:101F2E0003199A2F9A2F080041013D080319A02F7B
:101F3E00A12FCC2F3C08031DA52FA62FCC2FBD0102
:101F4E0050010C18AB2FAC2FB72F40011917803151
:101F5E005D208F318C318C248F3140011913FF2F6E
:101F6E000C1CBA2FBB2FFF2F0C10400119179A14FF
:101F7E0080315D208F318C318C248F3140011913CB
:101F8E009A10640050010C14FF2F4001031AD02F39
:101F9E00D12FFC2F50010C1040019A1441013B0827
:101FAE000319DA2FDB2FE92F3A080319DF2FE02F61
:101FBE00E92F80315D208F3185315A258F318C315B
:101FCE008C248F3152304101D6002B30D500003099
:101FDE00890BEF2FD50BEF2FD60BEF2F0000400103
:101FEE009A10640050010C14FF2F8C3160248F3135
:021FFE000800D9
:020000040001F9
:0A000E00EC1F3F27BF3FFF3FFF3FFD
:00000001FF
