:020000040000FA
:1000000080313128080055347E1480314E01161E8F
:100010000A280B2813280C1E0E280F2813288D31B0
:100020005D2580312F280B1F162817282F28191C13
:100030001A281B2823280F1C1E281F2823288F312D
:100040005E2780312F28171C262827282F280D1CD3
:100050002A282B282F288C31A72480312F287E1086
:10006000090080313328803103208031F9008F303E
:1000700084008C3085004A308600013087000A30C9
:100080008C314A248031F501F601F701F801A030E6
:1000900084000030850028308C31442480312030A9
:1000A0008400013085002A308C3144248031A03016
:1000B00084000130850040308C31442480317E1032
:1000C000400183314D2B823052018C0041013C08AC
:1000D00003196B286C28242A3B08031D70287128FB
:1000E000242ABC01BB01BB0A40011A141A179A1436
:1000F000191703304001EF000830EE007730890B0C
:100100007F28EE0B7F28EF0B7F2813308D311425CD
:10011000803113308D311425803140012108410197
:10012000C600400120084101C50052304001EF00E7
:100130002B30EE000030890B9B28EE0B9B28EF0B39
:100140009B28000013308D31142580314001210897
:100150004101AD00400120084101AC0046082D02DC
:10016000031DB42845082C020318B728B828BC285A
:100170002D08C6002C08C50012304001BC00833099
:10018000BD004030BE000030AC008030AD004530D6
:10019000AE00410146084001A90041014508400167
:1001A000A8008D312A25803140012808AF00290898
:1001B000B0002A08B1008431FE24803140012C08AF
:1001C000BF002D08C0002E08C10084313D248031BD
:1001D00040013C084101A90040013D084101AA003D
:1001E00040013E084101AB0014308D3114258031AF
:1001F00014308D3114258031400121084101C400A3
:10020000400120084101C30012304001BC0083308E
:10021000BD004030BE000030AC008030AD00453045
:10022000AE00410144084001A900410143084001DA
:10023000A8008D312A25803140012808AF00290807
:10024000B0002A08B1008431FE24803140012C081E
:10025000BF002D08C0002E08C10084313D2480312C
:1002600040013C084101A60040013D084101A700B2
:1002700040013E084101A80040011A101A13191349
:100280009A10410126084001A000410127084001C1
:10029000A100410128084001A2003330A3005330DF
:1002A000A4004030A5008E31602680310318592902
:1002B0005A295D294101BA01BA0A41013A03031DD5
:1002C000622963297F2900304001A0006030A1002D
:1002D0004030A200410126084001A3004101270847
:1002E0004001A400410128084001A5008E3160268C
:1002F000803103187C297D297F294101BA01410100
:1003000026084001BF00410127084001C00041010B
:1003100028084001C1000030BC001630BD00443048
:10032000BE0084313D24803140013C08EB003D0893
:10033000EC003E08ED0087314827803140016B0812
:100340004101D50040016C084101D60040016D0813
:100350004101D70055084001CC0041015608400139
:10036000CD00410157084001CE0086314E26803134
:1003700040014D084101D20040014C084101D1002B
:1003800029084001BF0041012A084001C000410185
:100390002B084001C1000030BC001630BD004430C5
:1003A000BE0084313D24803140013C08EB003D0813
:1003B000EC003E08ED0087314827803140016B0892
:1003C0004101D50040016C084101D60040016D0893
:1003D0004101D70055084001CC00410156084001B9
:1003E000CD00410157084001CE0086314E268031B4
:1003F00040014D084101D40040014C084101D300A7
:1004000052084001EE006E084101A0005108400171
:10041000EE006E084101A10054084001EE006E0894
:100420004101A20053084001EE006E084101A30003
:100430003A084001EE006E084101A400A5018C318C
:10044000992480314101BB0152018C0151018C136F
:100450000000630000000000080040012808AE0012
:100460002908AF002A08B00003102F0D300DB1008D
:100470003108B4002B08AE002C08AF002D08B000E6
:1004800003102F0D300DB1003108B30034080319EB
:100490004A2A4B2A5B2A330834020318502A512A6D
:1004A000622A3308AE003408AE0219302E02031C53
:1004B0005A2A5B2A622A2B08A8002C08A9002D08BA
:1004C000AA004C2B33080319662A672A772A3408B6
:1004D000330203186C2A6D2A782A3408AE003308D8
:1004E000AE0219302E02031C762A772A782A4C2B6A
:1004F0000630AE002E08B200AA1F7F2A802A812A69
:10050000B217AD1F842A852A862A3217A917FF3011
:10051000A805FF30A9050030AA05AC17FF30AB05D0
:10052000FF30AC050030AD05330834020318992ABA
:100530009A2AC22A0130AB35AC0DAD0D890B9B2A2E
:100540000130B302330834060319A72AA82ABB2AAC
:100550000130B20232080739031DAF2AB02A9A2AA5
:10056000BB2A0130AA36A90CA80C890BB22A01308B
:10057000AE002E08B40734083306031DC02AC12A72
:10058000B12AEF2A340833020318C72AC82AEF2AEF
:100590000130A835A90DAA0D890BC92A0130B40272
:1005A000330834060319D52AD62AE92A0130B202C3
:1005B00032080739031DDD2ADE2AC82AE92A01305C
:1005C000AD36AC0CAB0C890BE02A0130AE002E0826
:1005D000B30734083306031DEE2AEF2ADF2AB21FC1
:1005E000F22AF32A032BFF30A806FF30A906FF30BA
:1005F000AA060130A807003003180130A90700300F
:1006000003180130AA07321F062B072B172BFF30C8
:10061000AB06FF30AC06FF30AD060130AB07003053
:1006200003180130AC07003003180130AD07B201E8
:100630002808AB072908AC3D2A08AD3DAD1F212B8A
:10064000222B342BFF30AB06FF30AC06FF30AD065B
:100650000130AB07003003180130AC07003003183D
:100660000130AD07B201B20A2B08A0002C08A1008E
:100670002D08A2003408AE002E08A3003208AF00F7
:100680002F08A4008631D326823140012008A8001B
:100690002108A9002208AA00080045308D31012553
:1006A000833142014B088A004A080A008331043032
:1006B0004A3E860001308700413F8A00403F0A00E1
:1006C000833144304101D80058084001A000C730B0
:1006D0004101D90059084001A10006304A3E860078
:1006E00001308700413F8A00403F0A008331443097
:1006F0004001A0000130A10041014708D80058087E
:100700004001A2008D31A12583318C313D248331FC
:10071000003A03198C2B8D2B572B38308C31F22457
:100720008331222CAA304101D80058084401B50079
:1007300035304001A0000230A100A201A20A8D3193
:10074000A1258331572BB601B60A36304001A000EF
:100750000230A100A201A20A8D31A1258331572BBD
:1007600003304101D80058084401B7003730400138
:10077000A0000230A100A201A20A8D31A12583317F
:10078000572B02304A3E860001308700413F8A00E5
:10079000403F0A008331572B14304101D8005808DC
:1007A0004401B400DC2B0B304101D8006230890BCE
:1007B000D72BD80BD72B00008C3150248331003A33
:1007C000031DE32BE42B3A2C01304401B402340A1C
:1007D000031DEB2BEC2BD32B572B8731F3278331C6
:1007E000572B15304101D800C630890BF52BD80B9B
:1007F000F52B000039304101D80058084001A00015
:1008000020308D317E258331063044013906031DA9
:100810000A2C0B2C3A2C20084101D8005808400122
:10082000A00021304101D90059084001A100083041
:100830004A3E860001308700413F8A00403F0A005F
:100840008431572B44013808103A0319922B013A8E
:100850000319A32B023A0319C12B073A0319CC2B16
:10086000013A0319ED2B363A0319B02B073A031955
:10087000F12B3A2C572B8031312840013C08C20023
:100880003D08C3003E08C4000310430D440DC500DD
:100890004508C6004608031D4E2C4F2C562C003030
:1008A000BC000030BD000030BE00FD2C3F08C2007F
:1008B0004008C3004108C4000310430D440DC500A7
:1008C0004508CB004B08031D662C672C6E2C0030AE
:1008D000BC000030BD000030BE00FD2C4B087B3E4C
:1008E000C2004208C6073C08C2003D08C3003E08DB
:1008F000C4001030C436C30CC20C890B7A2C4208D9
:10090000C5004508CB003F08C2004008C3004108AD
:10091000C4001030C436C30CC20C890B8A2C4208A8
:10092000C5004508CB068030C2004208CB05BD1784
:10093000C017FF30BF05FF30C0050030C1050030D3
:10094000C7000030C8000030C9000730C2004208AC
:10095000CA003C1CAC2CAD2CB32C3F08C707400888
:10096000C83D4108C93D0130BE36BD0CBC0C890BE9
:10097000B42C0130BF35C00DC10D890BBA2C01302C
:10098000CA02031DC42CC52CA92C0930C200420880
:10099000CA003C1CCC2CCD2CD32C3F08C7074008E8
:1009A000C83D4108C93D0130BE36BD0CBC0C890BA9
:1009B000D42C0130C936C80CC70C890BDA2C013095
:1009C000CA02031DE42CE52CC92C4708A0004808E6
:1009D000A1004908A2004608C2004208A3004B0833
:1009E000C3004308A4008631D32684314001200887
:1009F000BC002108BD002208BE00080040012F08ED
:100A0000B2003008B3003108B4000310330D340DC8
:100A1000B5003508BA003A08031D0F2D102D172D0B
:100A20000030AC000030AD000030AE00AF2D2C081F
:100A3000B2002D08B3002E08B4000310330D340D9E
:100A4000B5003508BB003B08031D272D282D2F2D91
:100A50000030AC000030AD000030AE00AF2D0030F3
:100A6000B7000030B8000030B90089303B07B20051
:100A70003208BA022F08B2003008B3003108B400BF
:100A80001030B436B30CB20C890B412D3208B500CE
:100A90003508BB002C08B2002D08B3002E08B400A6
:100AA0001030B436B30CB20C890B512D3208B5009E
:100AB0003508BB068030B2003208BB05B017FF30E6
:100AC000AF05FF30B0050030B105AD17FF30AC0504
:100AD000FF30AD050030AE051830B2003208B60068
:100AE0000130B735B80DB90D890B712D2E083102C3
:100AF000031D802D2D083002031D802D2C082F0290
:100B0000031C832D842D8B2D2C08AF022D08B03BA8
:100B10002E08B13B37140130AF35B00DB10D890B44
:100B20008C2D0130B602031D962D972D702D3708A0
:100B3000A0003808A1003908A2003A08B200320823
:100B4000A3003B08B3003308A4008631D3268431C8
:100B500040012008AC002108AD002208AE000800CA
:100B60004001191705304001A1000F30A000F130FD
:100B7000890BB82DA00BB82DA10BB82D400119136E
:100B800005304001A1000F30A000F130890BC62DC7
:100B9000A00BC62DA10BC62D400119170530400131
:100BA000A1000F30A000F130890BD42DA00BD42D63
:100BB000A10BD42D4001191305304001A1000F30C5
:100BC000A000F130890BE22DA00BE22DA10BE22D4C
:100BD0004001191705304001A1000F30A000F1308D
:100BE000890BF02DA00BF02DA10BF02D4001191356
:100BF00015304001A1004B30A000BE30890BFE2D06
:100C0000A00BFE2DA10BFE2D000040019A14053013
:100C10004001A1000F30A000F130890B0D2EA00B78
:100C20000D2EA10B0D2E40019A1005304001A100A0
:100C30000F30A000F130890B1B2EA00B1B2EA10B37
:100C40001B2E40019A1405304001A1000F30A00076
:100C5000F130890B292EA00B292EA10B292E400142
:100C60009A1005304001A1000F30A000F130890B2F
:100C7000372EA00B372EA10B372E40019A140530CA
:100C80004001A1000F30A000F130890B452EA00BD0
:100C9000452EA10B452E40019A10080040014C083A
:100CA000D0004D08D1004E08D2000310510D520D56
:100CB000D3005308D9005908031D5F2E602E692EFA
:100CC0000030CF000030CE000030CD000030CC002E
:100CD000D22E4C08D0004D08D1004E08D20017305B
:100CE000D236D10CD00C890B702E5008D30053088B
:100CF000D400CD17FF30CC05FF30CD050030CE0538
:100D00004C08D5004D08D6004E08D700D8018E30CB
:100D1000D902D91F8C2E8D2EA52E5908803A8F3ED0
:100D20000318932E942E952E602E0130D836D70CB2
:100D3000D60CD50C890B962E0130D0005008D9075F
:100D4000031DA32EA42E952EBA2E18305902031C73
:100D5000AA2EAB2EB52E602E0130D535D60DD70D6F
:100D6000D80D890BAD2E0130D9025908031DB92EBB
:100D7000BA2EAC2E54080319BE2EBF2ECA2ED5098A
:100D8000D609D709D809D50A0319D60A0319D70AEB
:100D90000319D80A5808CF005708CE005608CD00CE
:100DA0005508CC000800400123080319D82ED92E7D
:100DB000E02E220821042004031DDF2EE02EF12E58
:100DC0000030A0000030A1000030A200472F013009
:100DD000A5002508A3070130A236A10CA00C890BA1
:100DE000EC2EFE302205031DF62EF72EE72E0C2FDB
:100DF0000130A5002508A3070130A0070030031823
:100E00000130A107003003180130A2070130A236DB
:100E1000A10CA00C890B072FFF302205031D112FF9
:100E2000122FF82E1B2F0130A3020130A035A10D87
:100E3000A20D890B162FA11B1E2F1F2F252F02304D
:100E400023020318242F252F132F2318282F292F8F
:100E50002F2FFF30A0057F30A105FF30A205031022
:100E6000A30C2308A500A601A7011030A535A60DE7
:100E7000A70D890B362F2508A0042608A1042708F2
:100E8000A20424080319452F462F472FA217080054
:100E900040016B08E2006C08E3006D08E4008F314C
:100EA00017278731400162084101C80040016308EB
:100EB0004101C900400164084101CA0040016B08BA
:100EC0004101CB0040016C084101CC0040016D089C
:100ED0004101CD008D31F725873141014808CE0011
:100EE0004908CF004A08D0004E084001A80041013F
:100EF0004F084001A900410150084001AA006B08B9
:100F0000AB006C08AC006D08AD0082312D2287313A
:100F100040012808EB002908EC002A08ED006B08C6
:100F2000E2006C08E3006D08E4008F311727873179
:100F300040016208EB006308EC006408ED00080063
:100F4000143040019800990180309A002B309200B3
:100F5000F03093007E309400AA307E01CE005030F5
:100F6000C3003330B800C4010130B9000430CF00F1
:100F7000BA01C501D0013730BB00F030C600FF30E8
:100F8000D1003F30BC00F030C700FF30D200393014
:100F90004001A0000C30A1008C31612487313A302F
:100FA0004001A0000C30A1008C316A2487313B3015
:100FB0004001A0000C30A1008C31732487313C30FB
:100FC0004001A0000C30A1008C317C2487310F300F
:100FD0007D01C50013307E019F0014309D000D304F
:100FE0007D01C6000800031040019A1F0314031876
:100FF000FA2FFD2F40019A17FF2F40019A13080086
:1018700008000800080008000800410140080800AE
:101880004101BC01BC0A0800640080010131890BE0
:10189000452C0034FE0012001E00FE0B4B2C0034C1
:1018A0007508031D542C562C0130572C00300800AD
:1018B000603051018D008F0191010630930092013B
:1018C0000800400121084201DB00400120084201DC
:1018D000DA000800400121084201D9004001200837
:1018E0004201D8000800400121084201D700400110
:1018F00020084201D6000800400121084201D5001D
:10190000400120084201D40008004F0196019701D0
:10191000980199019A019B019C019D01080099344D
:101920000E3440340C346334003440340D3402340B
:10193000003440019A1334304001A000F130890B8B
:101940009F2CA00B9F2C003240019A1708004E01DB
:101950000D104101380839040319AF2CB02CB52CF7
:1019600039088A0038080A008C31080042015A08F8
:101970005B040319BC2CBD2CC22C5B088A005A08DE
:101980000A008C317E0155100800420158085904A4
:101990000319CB2CCC2CD12C59088A0058080A00EA
:1019A0008C317E0155110800420156085704031975
:1019B000DA2CDB2CE02C57088A0056080A008C3100
:1019C0007E01551208004201540855040319E92C00
:1019D000EA2CEF2C55088A0054080A008C317E014D
:1019E000551308004001A100410141084001A00039
:1019F0002108860002308700200881004101C001D3
:101A000008004001A2008C3185248D318731A02748
:101A10008D318C3158248D31400122088D31CC25F7
:101A20008D318B170B1708004001A30023084101DB
:101A30009F0042019117111311141118202D212D0F
:101A40001D2D41011E084001A10041011D0840015A
:101A5000A000080040012808A0002908A100A20158
:101A60008E30AB002B08A300A4018631D3268D3124
:101A700040012008A8002108A9002208AA000800A7
:101A800002304001A200210886008701220881005F
:101A9000410120084001A200200886000130870093
:101AA00022088100410121084001A200200A86008D
:101AB000013087002208810008007E01551C612D3D
:101AC000622D652D8C31B6248D317E01551D692D19
:101AD0006A2D6D2D8C31C5248D317E01551E712DE1
:101AE000722D752D8C31D4248D317E01551F792DA9
:101AF0007A2D7D2D8C31E3248D3108004001A20028
:101B00002208860002308700952DC0308400013005
:101B1000850041013F084001A10021080319962DCD
:101B200012001E00A10B902D962D852D41013F081E
:101B30004001A100200886000230870021088100B2
:101B40000800B82D7508A300A4012308200786000B
:101B50002408213D87000108A5007508A03E8600E5
:101B600001308700250881000130A3002308F50714
:101B70004001220875020318BE2DBF2DC52D20304F
:101B80007502031CC42DC52DA22D7508A3002308C2
:101B90004101BE00F50108004001A0004F011C10EA
:101BA0007E01C312C3134001931693170F307D01BA
:101BB000C50013307E019F0014309D000D307D0163
:101BC000C60043018F012630900001309100920140
:101BD0001214FE308E004001203543018D004E016D
:101BE0000F101914F5014101BF01C00108004101A6
:101BF0004A08490448040319FE2DFF2D012E8030A8
:101C0000CA064B084001A80041014C084001A90048
:101C100041014D084001AA00410148084001AB00C4
:101C2000410149084001AC0041014A084001AD00B2
:101C300082312D228D31400128084101C800400128
:101C400029084101C90040012A084101CA000800D1
:101C50004001220821042004031D2F2E302E372E90
:101C60002308860087010030C03FC13F5F2E220855
:101C70007F39A400A501A435A50D2308860087019E
:101C80002408C03F2508C13F210D210D0139A400C2
:101C9000A501230886008701240881044131250815
:101CA0008104230886008701823081074131FF309B
:101CB000813D7F31220880393F38A200A1130800FE
:101CC0004001A21F642E652E722E2008003CA00049
:101CD0002108031C210F003CA1002208031C220F35
:101CE000803CA200A51F752E762E832E2308003C73
:101CF000A3002408031C240F003CA4002508031C97
:101D0000250F803CA5008030A2068030A50625085E
:101D10002202031D912E24082102031D912E230867
:101D200020020318942E952E972E0310982E03143C
:101D30000800400194139A174F0116108230520187
:101D40008C0041018C018D018E018F019201930164
:101D500098019A019F0142018C018D018E018F0132
:101D6000900192019301940195010330960097012F
:101D700098018430910052018C0140011410141319
:101D80007E01431340011313941019139A108531E7
:101D9000B0258E3140011A101A1394157E01CE150C
:101DA000400114167E014E1608004001E1018E30FC
:101DB000DE005E08E000DD1FDE2EDF2EF82EDA09E1
:101DC000DB09DC09DD09DA0A0319DB0A0319DC0A7D
:101DD0000319DD0AE101E10AF82E0130DD36DC0CE1
:101DE000DB0CDA0C890BEE2E0130DE005E08E0071A
:101DF000FF305D05031DFD2EFE2EED2E5A08A000BE
:101E00005B08A1005C08A2006008DE005E08A30079
:101E10006108DF005F08A4008631D3268E314001BF
:101E20002008DA002108DB002208DC00080040015D
:101E30006208A0006308A1006408A2006930E50000
:101E40006508A3008E3128268F314001EA1F292F13
:101E50002A2F312F0030E2000030E3000030E40090
:101E60005D2F00306A02153003196902031C392FF7
:101E70003A2F3B2F5D2F6208CC006308CD00640829
:101E8000CE0086314E268F3140014F08DD004E08CE
:101E9000DC004D08DB004C08DA008E31D5268F318E
:101EA00040015A08E6005B08E7005C08E8006608A5
:101EB000E2006708E3006808E40008004E0119101A
:101EC0000F1043010C08F2007208F4000F1D692F77
:101ED0006A2F7E2F8F1E6D2F6E2F772F111F712F60
:101EE000722F772F03308F31AD278F31A62F01301E
:101EF0008F31AD278F3143011016A62F8F1A812FF6
:101F0000822F872F00308F31AD278F31A62F740895
:101F1000F2007208F90002308F31AD278F31430192
:101F20001016FF30F2007208F3009A2F00320032D0
:101F3000003200324E010F189E2F9F2FA62F013026
:101F4000F302730A031DA52FA62F962F4E010F1023
:101F5000430110164E0119140800F100F12F410140
:101F6000BD01BD0AFF2F7908F0007008C100BF0154
:101F7000C001C00AD82F21303F020318C02FC12F43
:101F8000D82F7908F0003F08C03E86000130870056
:101F9000700881000130F0007008BF07D82F4101A0
:101FA0003D08003A0319BB2F013A0319B32FBB2F89
:101FB000BD01FF2F41013E0875020318E02FE12FFC
:101FC000EE2F7508A03E860001308700010843010E
:101FD0008C000130F0007008F507FF2F43018C01E1
:101FE000FF2F7108003A0319AF2F013A0319DA2FB6
:101FF000033A0319CF2F013A0319FF2FFF2F0800CF
:020000040001F9
:0A000E00EC3FFF3FBF3FFF3FFF3F05
:00000001FF
