:020000040000FA
:1000000080313128080008007E1480314E01161E10
:100010000A280B2813280C1E0E280F2813288D31B0
:10002000CA2580312F280B1F162817282F28191CA6
:100030001A281B2823280F1C1E281F2823288F312D
:100040005E2780312F28171C262827282F280D1CD3
:100050002A282B282F288C31A52480312F287E1088
:100060000900803133288731FE278031F900803044
:1000700084008C3085004A308600013087000A30C9
:100080008C3134248031F501F601F701F801A030FC
:1000900084000030850028308C312E2480312030BF
:1000A0008400013085002A308C312E248031A0302C
:1000B00084000130850040308C312E2480317E1048
:1000C00040018331272B01308C31FF2480314001E6
:1000D0001A141A179A14191768304001EE00E43008
:1000E000890B7028EE0B7028000013308D31272506
:1000F000803113308D3127258031400121084101A5
:10010000C600400120084101C50013308D3127256C
:100110008031400121084101AD004001200841012A
:10012000AC0046082D02031D972845082C02031831
:100130009A289B289F282D08C6002C08C500B73098
:100140004001BC003530BD004130BE000030AC0085
:100150008030AD004530AE00410146084001A900A5
:10016000410145084001A8008D313D258031400105
:100170002808AF002908B0002A08B1008431D8242B
:10018000803140012C08BF002D08C0002E08C1009E
:1001900084311724803140013C084101A90040010D
:1001A0003D084101AA0040013E084101AB00143066
:1001B0008D312725803114308D3127258031400144
:1001C00021084101C400400120084101C3007530ED
:1001D0004001BC009130BD004030BE000030AC009A
:1001E0008030AD004530AE00410144084001A90017
:1001F000410143084001A8008D313D258031400177
:100200002808AF002908B0002A08B1008431D8249A
:10021000803140012C08BF002D08C0002E08C1000D
:1002200084311724803140013C084101A60040017F
:100230003D084101A70040013E084101A8004001DE
:100240001A101A1319139A10410126084001A00030
:10025000410127084001A100410128084001A200F6
:100260003330A3005330A4004030A5008E319C26CB
:10027000803103183C293D2940294101BA01BA0ABD
:1002800041013A03031D45294629622900304001F6
:10029000A0006030A1004030A200410126084001CA
:1002A000A300410127084001A400410128084001A2
:1002B000A5008E319C26803103185F2960296229B0
:1002C0004101BA01410126084001BF004101270850
:1002D0004001C000410128084001C1000030BC00BD
:1002E0001630BD004430BE008431172480314001F7
:1002F0003C08EB003D08EC003E08ED00873122276A
:10030000803140016B084101D50040016C0841017A
:10031000D60040016D084101D70055084001CC00CE
:10032000410156084001CD00410157084001CE006F
:1003300086312826803140014D084101D20040011C
:100340004C084101D10029084001BF0041012A08A1
:100350004001C00041012B084001C1000030BC0039
:100360001630BD004430BE00843117248031400176
:100370003C08EB003D08EC003E08ED0087312227E9
:10038000803140016B084101D50040016C084101FA
:10039000D60040016D084101D70055084001CC004E
:1003A000410156084001CD00410157084001CE00EF
:1003B00086312826803140014D084101D40040019A
:1003C0004C084101D30052084001EE006E08410183
:1003D000A00051084001EE006E084101A100540840
:1003E0004001EE006E084101A20053084001EE00FA
:1003F0006E084101A3003A084001EE006E08410179
:10040000A400A50100308C31FF2480310800400198
:100410002808AE002908AF002A08B00003102F0DED
:10042000300DB1003108B4002B08AE002C08AF002D
:100430002D08B00003102F0D300DB1003108B300AE
:1004400034080319242A252A352A330834020318CC
:100450002A2A2B2A3C2A3308AE003408AE0219306F
:100460002E02031C342A352A3C2A2B08A8002C080B
:10047000A9002D08AA00262B33080319402A412A77
:10048000512A340833020318462A472A522A3408CC
:10049000AE003308AE0219302E02031C502A512A36
:1004A000522A262B0630AE002E08B200AA1F592A67
:1004B0005A2A5B2AB217AD1F5E2A5F2A602A3217BA
:1004C000A917FF30A805FF30A9050030AA05AC1711
:1004D000FF30AB05FF30AC050030AD05330834020A
:1004E0000318732A742A9C2A0130AB35AC0DAD0D6C
:1004F000890B752A0130B302330834060319812AA7
:10050000822A952A0130B20232080739031D892A4E
:100510008A2A742A952A0130AA36A90CA80C890BBC
:100520008C2A0130AE002E08B40734083306031DB0
:100530009A2A9B2A8B2AC92A340833020318A12A33
:10054000A22AC92A0130A835A90DAA0D890BA32A10
:100550000130B402330834060319AF2AB02AC32A83
:100560000130B20232080739031DB72AB82AA22A7D
:10057000C32A0130AD36AC0CAB0C890BBA2A013062
:10058000AE002E08B30734083306031DC82AC92A53
:10059000B92AB21FCC2ACD2ADD2AFF30A806FF30A7
:1005A000A906FF30AA060130A80700300318013061
:1005B000A907003003180130AA07321FE02AE12AF8
:1005C000F12AFF30AB06FF30AC06FF30AD0601303C
:1005D000AB07003003180130AC07003003180130BE
:1005E000AD07B2012808AB072908AC3D2A08AD3D8C
:1005F000AD1FFB2AFC2A0E2BFF30AB06FF30AC06EA
:10060000FF30AD060130AB07003003180130AC07F6
:10061000003003180130AD07B201B20A2B08A00068
:100620002C08A1002D08A2003408AE002E08A3005B
:100630003208AF002F08A4008631AD268231400178
:100640002008A8002108A9002208AA0008004530B7
:100650008D311225833142014B088A004A080A0075
:10066000833104304A3E860001308700413F8A00D2
:10067000403F0A00833144304101D800580840010E
:10068000A000C7304101D90059084001A10006303F
:100690004A3E860001308700413F8A00403F0A0001
:1006A000833144304001A0000130A10041014708DE
:1006B000D80058084001A2008E310E2683318C31BB
:1006C00027248331003A0319662B672B312B3830EE
:1006D0008C31F0248331FC2BAA304101D80058081A
:1006E0004401B50035304001A0000230A100A20154
:1006F000A20A8E310E268331312BB601B60A36306E
:100700004001A0000230A100A201A20A8E310E26F3
:100710008331312B03304101D80058084401B70020
:1007200037304001A0000230A100A201A20A8E31A0
:100730000E268331312B02304A3E8600013087007D
:10074000413F8A00403F0A008331312B1430410180
:10075000D80058084401B400B62B0B304101D80032
:100760006230890BB12BD80BB12B00008C314124A6
:100770008331003A031DBD2BBE2B142C01304401E4
:10078000B402340A031DC52BC62BAD2B312B8C3183
:100790008A248331312B15304101D800C630890BB2
:1007A000CF2BD80BCF2B000039304101D80058088F
:1007B0004001A00020308D31EB258331063044010B
:1007C0003906031DE42BE52B142C20084101D80029
:1007D00058084001A00021304101D90059084001CA
:1007E000A10008304A3E860001308700413F8A0060
:1007F000403F0A008331312B44013808103A031975
:100800006C2B013A03197D2B023A03199B2B073AF3
:100810000319A62B013A0319C72B363A03198A2B61
:10082000073A0319CB2B142C312B8031312840018E
:100830003C08C2003D08C3003E08C4000310430D3D
:10084000440DC5004508C6004608031D282C292C68
:10085000302C0030BC000030BD000030BE00D72C72
:100860003F08C2004008C3004108C4000310430D04
:10087000440DC5004508CB004B08031D402C412CFE
:10088000482C0030BC000030BD000030BE00D72C2A
:100890004B087B3EC2004208C6073C08C2003D0828
:1008A000C3003E08C4001030C436C30CC20C890B10
:1008B000542C4208C5004508CB003F08C200400840
:1008C000C3004108C4001030C436C30CC20C890BED
:1008D000642C4208C5004508CB068030C20042089F
:1008E000CB05BD17C017FF30BF05FF30C005003076
:1008F000C1050030C7000030C8000030C900073013
:10090000C2004208CA003C1C862C872C8D2C3F0854
:10091000C7074008C83D4108C93D0130BE36BD0C7F
:10092000BC0C890B8E2C0130BF35C00DC10D890B5D
:10093000942C0130CA02031D9E2C9F2C832C09305D
:10094000C2004208CA003C1CA62CA72CAD2C3F08B4
:10095000C7074008C83D4108C93D0130BE36BD0C3F
:10096000BC0C890BAE2C0130C936C80CC70C890BE6
:10097000B42C0130CA02031DBE2CBF2CA32C470887
:10098000A0004808A1004908A2004608C200420889
:10099000A3004B08C3004308A4008631AD26843170
:1009A00040012008BC002108BD002208BE0008004C
:1009B00040012F08B2003008B3003108B400031022
:1009C000330D340DB5003508BA003A08031DE92C83
:1009D000EA2CF12C0030AC000030AD000030AE004D
:1009E000892D2C08B2002D08B3002E08B400031086
:1009F000330D340DB5003508BB003B08031D012D38
:100A0000022D092D0030AC000030AD000030AE00EA
:100A1000892D0030B7000030B8000030B9008930AF
:100A20003B07B2003208BA022F08B2003008B30008
:100A30003108B4001030B436B30CB20C890B1B2D46
:100A40003208B5003508BB002C08B2002D08B300F1
:100A50002E08B4001030B436B30CB20C890B2B2D19
:100A60003208B5003508BB068030B2003208BB053D
:100A7000B017FF30AF05FF30B0050030B105AD173E
:100A8000FF30AC05FF30AD050030AE051830B200C8
:100A90003208B6000130B735B80DB90D890B4B2DB2
:100AA0002E083102031D5A2D2D083002031D5A2D28
:100AB0002C082F02031C5D2D5E2D652D2C08AF0226
:100AC0002D08B03B2E08B13B37140130AF35B00DC7
:100AD000B10D890B662D0130B602031D702D712DED
:100AE0004A2D3708A0003808A1003908A2003A08AA
:100AF000B2003208A3003B08B3003308A4008631DB
:100B0000AD26843140012008AC002108AD00220848
:100B1000AE0008004001191705304001A1000F3058
:100B2000A000F130890B922DA00B922DA10B922DDC
:100B30004001191305304001A1000F30A000F13031
:100B4000890BA02DA00BA02DA10BA02D40011917E2
:100B500005304001A1000F30A000F130890BAE2D0F
:100B6000A00BAE2DA10BAE2D400119130530400195
:100B7000A1000F30A000F130890BBC2DA00BBC2DC3
:100B8000A10BBC2D4001191705304001A1000F3009
:100B9000A000F130890BCA2DA00BCA2DA10BCA2DC4
:100BA0004001191315304001A1004B30A000BE30A8
:100BB000890BD82DA00BD82DA10BD82D00004001FA
:100BC0009A1405304001A1000F30A000F130890BCC
:100BD000E72DA00BE72DA10BE72D40019A10053062
:100BE0004001A1000F30A000F130890BF52DA00BC2
:100BF000F52DA10BF52D40019A1405304001A100FF
:100C00000F30A000F130890B032EA00B032EA10B97
:100C1000032E40019A1005304001A1000F30A000C2
:100C2000F130890B112EA00B112EA10B112E4001BA
:100C30009A1405304001A1000F30A000F130890B5B
:100C40001F2EA00B1F2EA10B1F2E40019A10080073
:100C500040014C08D0004D08D1004E08D2000310CE
:100C6000510D520DD3005308D9005908031D392ED8
:100C70003A2E432E0030CF000030CE000030CD00A1
:100C80000030CC00AC2E4C08D0004D08D1004E08EE
:100C9000D2001730D236D10CD00C890B4A2E500816
:100CA000D3005308D400CD17FF30CC05FF30CD055D
:100CB0000030CE054C08D5004D08D6004E08D700B0
:100CC000D8018E30D902D91F662E672E7F2E590883
:100CD000803A8F3E03186D2E6E2E6F2E3A2E013005
:100CE000D836D70CD60CD50C890B702E0130D0001D
:100CF0005008D907031D7D2E7E2E6F2E942E18309E
:100D00005902031C842E852E8F2E3A2E0130D535A4
:100D1000D60DD70DD80D890B872E0130D902590871
:100D2000031D932E942E862E54080319982E992E67
:100D3000A42ED509D609D709D809D50A0319D60A88
:100D40000319D70A0319D80A5808CF005708CE004C
:100D50005608CD005508CC000800400123080319AF
:100D6000B22EB32EBA2E220821042004031DB92E60
:100D7000BA2ECB2E0030A0000030A1000030A2001F
:100D8000212F0130A5002508A3070130A236A10CB0
:100D9000A00C890BC62EFE302205031DD02ED12EAD
:100DA000C12EE62E0130A5002508A3070130A007BB
:100DB000003003180130A107003003180130A207EA
:100DC0000130A236A10CA00C890BE12EFF302205C8
:100DD000031DEB2EEC2ED22EF52E0130A302013096
:100DE000A035A10DA20D890BF02EA11BF82EF92E16
:100DF000FF2E023023020318FE2EFF2EED2E2318A5
:100E0000022F032F092FFF30A0057F30A105FF30EF
:100E1000A2050310A30C2308A500A601A70110300A
:100E2000A535A60DA70D890B102F2508A0042608AF
:100E3000A1042708A204240803191F2F202F212F03
:100E4000A217080040016B08E2006C08E3006D087F
:100E5000E4008F3117278731400162084101C80043
:100E6000400163084101C900400164084101CA0012
:100E700040016B084101CB0040016C084101CC00EE
:100E800040016D084101CD008731CD2787314101F7
:100E90004808CE004908CF004A08D0004E0840015B
:100EA000A80041014F084001A9004101500840013C
:100EB000AA006B08AB006C08AC006D08AD00823175
:100EC0000722873140012808EB002908EC002A0896
:100ED000ED006B08E2006C08E3006D08E4008F3160
:100EE0001727873140016208EB006308EC006408B3
:100EF000ED000800143040019800990180309A00FC
:100F00002B309200F03093007E309400AA307E01A6
:100F1000CE005030C3003330B800C4010130B900F6
:100F20000430CF00BA01C501D0013730BB00F0302A
:100F3000C600FF30D1003F30BC00F030C700FF30AA
:100F4000D20025304001A0000C30A1008C31522489
:100F5000873126304001A0000C30A1008C315B2489
:100F6000873102304001A0000030A1008C316424A0
:100F7000873103304001A0000030A1008C316D2486
:100F800087310F307D01C50013307E019F00143082
:100F90009D000D307D01C600080041014A0849044A
:100FA00048040319D42FD52FD72F8030CA064B08F9
:100FB0004001A80041014C084001A90041014D0831
:100FC0004001AA00410148084001AB004101490825
:100FD0004001AC0041014A084001AD0082310722C6
:100FE0008731400128084101C8004001290841011A
:100FF000C90040012A084101CA0008005534080010
:101848000800080008004101400808004101BC01E7
:10185800BC0A0800640080010131890B2F2C003478
:10186800FE0012001E00FE0B352C003451018C13B3
:10187800000063000000000008007508031D452CE7
:10188800472C0130482C00300800603051018D0091
:101898008F01910106309300920108004001210850
:1018A8004201DB00400120084201DA000800400143
:1018B80021084201D900400120084201D80008004F
:1018C800400121084201D700400120084201D6000A
:1018D8000800400121084201D500400120084201CA
:1018E800D40008004F0196019701980199019A01C7
:1018F8009B019C019D010800AA340D342A340C3444
:1019080053340D346D340D34FF3407340310400163
:101918009A1F03140318912C942C40019A17962CA3
:1019280040019A13080040019A1334304001A00086
:10193800F130890B9D2CA00B9D2C003240019A1789
:1019480008004E010D104101380839040319AD2C67
:10195800AE2CB32C39088A0038080A008C310800EC
:1019680042015A085B040319BA2CBB2CC02C5B0833
:101978008A005A080A008C317E015510080042017D
:10198800580859040319C92CCA2CCF2C59088A00A5
:1019980058080A008C317E0155110800420156088A
:1019A80057040319D82CD92CDE2C57088A0056085E
:1019B8000A008C317E015512080042015408550472
:1019C8000319E72CE82CED2C55088A0054080A0066
:1019D8008C317E01551308004001A10041014108E6
:1019E8004001A000210886000230870020088100FD
:1019F8004101C00108004001A000092D82305201B8
:101A08008C00112D52018C01112D2008003A031968
:101A1800062D013A0319022D062D08004001A200E7
:101A28008C3176248D3187317A278D318C31492458
:101A38008D3150019214400122088E3139268D31A2
:101A48008B170B1708004001A300230841019F00D2
:101A580042019117111311141118332D342D302D03
:101A680041011E084001A10041011D084001A000DC
:101A7800080040012808A0002908A100A2018E3012
:101A8800AB002B08A300A4018631AD268D3140019F
:101A98002008A8002108A9002208AA00080041017E
:101AA8003C080319582D592D692D3B08031D5D2D40
:101AB8005E2D692DBC01BB01BB0A803163208D31CD
:101AC8008C3197248D314101BB018C313A248D3101
:101AD800080002304001A200210886008701220880
:101AE8008100410120084001A20020088600013041
:101AF800870022088100410121084001A200200A34
:101B080086000130870022088100080082305201D7
:101B18008C0041018C018D018E018F01920193018E
:101B280098019A019F0142018C018D018E018F015C
:101B38009001920193019401950103309600970159
:101B480098018430910052018C01080040019413DF
:101B58009A174F0116108D318A258D3140011410C6
:101B680014137E01431340011313941019139A1090
:101B780085318A258D3140011A101A1394157E017A
:101B8800CE15400114167E014E1608007E01551C24
:101B9800CE2DCF2DD22D8C31B4248D317E01551D03
:101BA800D62DD72DDA2D8C31C3248D317E01551ECB
:101BB800DE2DDF2DE22D8C31D2248D317E01551F93
:101BC800E62DE72DEA2D8C31E1248D310800400106
:101BD800A2002208860002308700022EC03084004E
:101BE8000130850041013F084001A1002108031987
:101BF800032E12001E00A10BFD2D032EF22D410114
:101C08003F084001A1002008860002308700210813
:101C180081000800252E7508A300A40123082007C9
:101C280086002408213D87000108A5007508A03E0C
:101C3800860001308700250881000130A3002308B1
:101C4800F50740012208750203182B2E2C2E322E80
:101C580020307502031C312E322E0F2E7508A3007A
:101C680023084101BE00F50108004001A0004F0112
:101C78001C107E01C312C3134001931693170F3033
:101C88007D01C50013307E019F0014309D000D308A
:101C98007D01C60043018F0126309000013091007C
:101CA80092011214FE308E004001203543018D0050
:101CB8004E010F101914F5014101BF01C0010800C0
:101CC8004001220821042004031D6B2E6C2E732E64
:101CD8002308860087010030C03FC13F9B2E2208A1
:101CE8007F39A400A501A435A50D23088600870126
:101CF8002408C03F2508C13F210D210D0139A4004A
:101D0800A50123088600870124088104413125089C
:101D18008104230886008701823081074131FF3022
:101D2800813D7F31220880393F38A200A113080085
:101D38004001A21FA02EA12EAE2E2008003CA0001C
:101D48002108031C210F003CA1002208031C220FBC
:101D5800803CA200A51FB12EB22EBF2E2308003C46
:101D6800A3002408031C240F003CA4002508031C1E
:101D7800250F803CA5008030A2068030A5062508E6
:101D88002202031DCD2E24082102031DCD2E230877
:101D980020020318D02ED12ED32E0310D42E0314D4
:101DA80008004001E1018E30DE005E08E000DD1F22
:101DB800DE2EDF2EF82EDA09DB09DC09DD09DA0A66
:101DC8000319DB0A0319DC0A0319DD0AE101E10A38
:101DD800F82E0130DD36DC0CDB0CDA0C890BEE2E2C
:101DE8000130DE005E08E007FF305D05031DFD2EB3
:101DF800FE2EED2E5A08A0005B08A1005C08A20088
:101E08006008DE005E08A3006108DF005F08A40028
:101E18008631AD268E3140012008DA002108DB002A
:101E28002208DC00080040016208A0006308A10045
:101E38006408A2006930E5006508A3008E316426B5
:101E48008F314001EA1F292F2A2F312F0030E2005D
:101E58000030E3000030E4005D2F00306A021530E6
:101E680003196902031C392F3A2F3B2F5D2F620893
:101E7800CC006308CD006408CE00863128268F3157
:101E880040014F08DD004E08DC004D08DB004C081F
:101E9800DA008E31D5268F3140015A08E6005B08FA
:101EA800E7005C08E8006608E2006708E3006808E5
:101EB800E40008004E0119100F1043010C08F2004D
:101EC8007208F4000F1D692F6A2F7E2F8F1E6D2F49
:101ED8006E2F772F111F712F722F772F03308F31AD
:101EE800AD278F31A62F01308F31AD278F314301B8
:101EF8001016A62F8F1A812F822F872F00308F312F
:101F0800AD278F31A62F7408F2007208F90002304D
:101F18008F31AD278F3143011016FF30F200720860
:101F2800F3009A2F00320032003200324E010F18AF
:101F38009E2F9F2FA62F0130F302730A031DA52F92
:101F4800A62F962F4E010F10430110164E0119149B
:101F58000800F100F12F4101BD01BD0AFF2F7908EA
:101F6800F0007008C100BF01C001C00AD82F21309D
:101F78003F020318C02FC12FD82F7908F0003F085F
:101F8800C03E860001308700700881000130F000F3
:101F98007008BF07D82F41013D08003A0319BB2F2D
:101FA800013A0319B32FBB2FBD01FF2F41013E0892
:101FB80075020318E02FE12FEE2F7508A03E86006A
:101FC80001308700010843018C000130F0007008DF
:101FD800F507FF2F43018C01FF2F7108003A031901
:101FE800AF2F013A0319DA2F033A0319CF2F013A19
:081FF8000319FF2FFF2F080061
:020000040001F9
:0A000E00EC3F3F3FBF3FFF3FFF3FC5
:00000001FF
