:020000040000FA
:0400000080312B28F8
:100008007E14803140016C088A006B080A00803138
:100018000B1F0F28102829284E01191C14281528F1
:100028001D280F1C182819281D2882310F228031FD
:100038002928171C2028212829280D1C2428252890
:10004800292883314E23803129287E1009008031E8
:100058002D288331B5238031F9006A30840083303C
:10006800850061308600003087000C3083319C2386
:100078008031F601F701F801203084000030850056
:1000880023308331A2238031A030840000308500E2
:1000980040308331A22380317E10400180315428C2
:1000A800453082319E228031400162088A00610811
:1000B8000A0080310430613E86008701413F8A0092
:1000C800403F0A00803138304001C5004508F4003F
:1000D8004230C6004608F5000630613E86008701BA
:1000E800413F8A00403F0A00803140014208C50074
:1000F8004508F40038308231762280318331B223CA
:100108008031003A031989288A285E285F308331B4
:10011800822380310629AA30C5004508DC00F40195
:10012800F40A5C308231762280315E28DD01DD0AF6
:10013800F401F40A5D308231762280315E28033082
:10014800C5004508DE00F401F40A5E3082317622EB
:1001580080315E280230613E86008701413F8A0077
:10016800403F0A0080315E281430C5004508DB0096
:10017800C6280B304001C5006230890BC128C50B69
:10018800C128000083318D238031003A031DCD281A
:10019800CE281E2901304001DB025B0A031DD52849
:1001A800D628BD285E2883315D2380315E2815302E
:1001B8004001C500C630890BDF28C50BDF280000C9
:1001C80060304001C5004508F40047308231BF2245
:1001D8008031063040016006031DF328F4281E29EB
:1001E8004708C5004508F4004830C6004608F50031
:1001F8000830613E86008701413F8A00403F0A007F
:1002080081315E2840015F08103A03198F28013AAE
:1002180003199A28023A0319AE28073A0319B8288D
:10022800013A0319D728363A0319A328073A0319BC
:10023800DB281E295E2880312B284001191705303C
:10024800F5000F30F400F130890B2829F40B282928
:10025800F50B28290000400119130530F5000F306F
:10026800F400F130890B3629F40B3629F50B3629C1
:100278000000400119170530F5000F30F400F13087
:10028800890B4429F40B4429F50B4429000040014B
:1002980019130530F5000F30F400F130890B52299D
:1002A800F40B5229F50B52290000400119170530AB
:1002B800F5000F30F400F130890B6029F40B602948
:1002C800F50B60290000400119131530F5004B307B
:1002D800F400BE30890B6E29F40B6E29F50B6E29DC
:1002E800003240019A140530F5000F30F400F13067
:1002F800890B7C29F40B7C29F50B7C290000400133
:100308009A100530F5000F30F400F130890B8A2976
:10031800F40B8A29F50B8A29000040019A1405304C
:10032800F5000F30F400F130890B9829F40B982967
:10033800F50B9829000040019A100530F5000F30A0
:10034800F400F130890BA629F40BA629F50BA62990
:10035800000040019A140530F5000F30F400F13028
:10036800890BB429F40BB429F50BB429000040011A
:100378009A100800F100002A4001B201B20A0E2AC0
:100388007908F0007008B500F701B401B40AE8294B
:10039800213077020318D129D229E8297908F000F9
:1003A8007708C03E86008701700881000130F000A0
:1003B8007008F707E82940013208003A0319CC29E8
:1003C800013A0319C429CC29B2010E2A4001330885
:1003D80076020318F029F129FD297608A03E860047
:1003E8008701010843018C000130F0007008F6070E
:1003F8000E2A43018C010E2A7108003A0319C029FC
:10040800013A0319EA29033A0319DF29013A0319C2
:100418000E2A0E2A08004E0119100F1043010C086D
:10042800F2007208F3000F1D1A2A1B2A2F2A8F1EAA
:100438001E2A1F2A282A111F222A232A282A033083
:100448008131BE218231472A01308131BE2182317A
:1004580043011016472A8F1A322A332A382A0030C5
:100468008131BE218231472A7308F2007208F900EF
:1004780002308131BE218231430110164E010F1C1A
:10048800462A472A422A4E010F10430110164E01F0
:1004980019140800F4004F011C107E01C312C31385
:1004A8004001931693170F307D01C50013307E016C
:1004B8009F0014309D000D307D01C60043018F015F
:1004C800263090000130910092011214FE308E0007
:1004D80074358D004E010F101914F601F701400113
:1004E800B4010800F5008B2A760875074001C3009F
:1004F8004308860087010108C4007608A03E8600EC
:100508008701440881000130C3004308F6077408D6
:1005180076020318902A912A972A20307602031C23
:10052800962A972A782A76084001C3004308B30020
:10053800F6010800F50083313B2382318331A8237B
:100548008231500192147E01B801C301CE01CE144C
:1005580040019201930194019414FF309800FF30F8
:100568009900FF309A009A10750882314E22823124
:100578008B170B1708004001C3004308860087014A
:10058800D22AC030840085017708F5007508031960
:10059800D32A12001E00F50BCD2AD32AC52A7708C4
:1005A800F50074088600870175088100080040017D
:1005B80094139A17141014137E0143134001131354
:1005C800941019139A1081312121823140011A1097
:1005D8001A1394157E01CE15400114167E014E168D
:1005E80008007508860087018101750A8600870161
:1005F80081017508023E8600870181017508033E66
:100608008600870181017508043E86008701810103
:100618000800400137080319122B132B202B36082A
:10062800031D172B182B202BB701B601B60A8331EF
:10063800762383314001B601833195238331080045
:1006480002304001C3007508860087014308810015
:100658002008C30074088600870143088100210828
:10066800C300740A86008701430881000800FF3030
:100678004F0196009613FF309700FF309800FF3027
:100688009900FF309A00FF309B00FF309C00FF303C
:100698009D0008004E010D1040012E082F0403197B
:1006A800562B572B5C2B2F088A002E080A00833103
:1006B8000800031040019A1F03140318642B672BCA
:1006C80040019A17692B40019A130800DB34023461
:1006D800AE3403340D34033424340334F534023493
:1006E800B634033440019A133430F400F230890BE5
:1006F8007B2BF40B7B2B40019A170800F500400177
:100708003508F40075088600870174088100B40173
:1007180008007608031D912B932B0130942B003091
:10072800080051018C13000063000000000008005D
:10073800FE0012001E00FE0B9D2B00346400800199
:100748000131890BA32B0034603051018D00063034
:10075800930008004001B701B70A080040013408B7
:080768000800553408000800E8
:020000040001F9
:0A000E00EC1F3F278A3FFF3FFF3F32
:00000001FF
