:020000040000FA
:1000000080312B284D340C347E1480314101580846
:100010008A0057080A0080310B1F0F281028292852
:100020004E01191C142815281D280F1C18281928E2
:100030001D288E31342680312928171C202821289C
:1000400029280D1C2428252829288C31A724803113
:1000500029287E10090080312D288C314E248031D2
:10006000F9004101803102208031D7008031032026
:100070008031D800773084008C308500663086006F
:10008000013087000A308C3162248031F601F7019B
:10009000F801A03084000030850026308C315C24CB
:1000A0008031203084000130850046308C315C2462
:1000B00080317E1040018231FD2A823052018C0055
:1000C0004101BC01BC0A40011A1468304101CC0056
:1000D000E430890B6928CC0B6928000013308C317F
:1000E000C924803113308C31C9248031400121086A
:1000F0004101C200400120084101C10013308C3190
:10010000C9248031400121084101B7004001200885
:100110004101B60042083702031D9028410836020B
:1001200003189328942898283708C2003608C1007D
:1001300012304001BB008330BC004030BD000030B5
:10014000AB008030AC004530AD00410142084001B9
:10015000A900410141084001A8008C31DE24803112
:1001600040012808AE002908AF002A08B0008431F9
:100170009D24803140012B08BE002C08BF002D08B3
:10018000C0008331DC23803140013B084101A900DC
:1001900040013C084101AA0040013D084101AB007B
:1001A00040011A101A1768304101CC00E430890B65
:1001B000D728CC0BD728000014308C31C9248031CB
:1001C00014308C31C9248031400121084101C40020
:1001D000400120084101C3002C304001BB00D33056
:1001E000BC004030BD000030AB008030AC0045307A
:1001F000AD00410144084001A9004101430840010C
:10020000A8008C31DE24803140012808AE00290886
:10021000AF002A08B00084319D24803140012B08B2
:10022000BE002C08BF002D08C0008331DC238031C4
:1002300040013B084101AC0040013C084101AD00D8
:1002400040013D084101AE0040011A1341012C0854
:100250004001A00041012D084001A10041012E08EC
:100260004001A200410126084001A30041012708E6
:100270004001A400410128084001A5008D31FB2563
:10028000803103184429452948294101BA01BA0A95
:1002900041012C084001BE0041012D084001BF0072
:1002A00041012E084001C0000030BB001630BC00E8
:1002B0004430BD008331DC23803140013B084101E3
:1002C000C60040013C084101C70040013D08410112
:1002D000C80087315D27803141014608D1004708B9
:1002E000D2004808D30051084001A0004101520843
:1002F0004001A100410153084001A2008531EC25D5
:100300008031400121084101CE0040012008410117
:10031000CD0029084001BE0041012A084001BF006C
:1003200041012B084001C0000030BB001630BC006A
:100330004430BD008331DC23803140013B08410162
:10034000C60040013C084101C70040013D08410191
:10035000C80087315D27803141014608D100470838
:10036000D2004808D30051084001A00041015208C2
:100370004001A100410153084001A2008531EC2554
:100380008031400121084101D00040012008410195
:10039000CF004E08CC004C08A0004D08CC004C0803
:1003A000A1005008CC004C08A2004F08CC004C081B
:1003B000A300BC0152018C01080040012808AE00D6
:1003C0002908AF002A08B00003102F0D300DB1002E
:1003D0003108B4002B08AE002C08AF002D08B00087
:1003E00003102F0D300DB1003108B300340803198C
:1003F000FA29FB290B2A330834020318002A012AA0
:10040000122A3308AE003408AE0219302E02031C43
:100410000A2A0B2A122A2B08A8002C08A9002D084A
:10042000AA00FC2A33080319162A172A272A340897
:10043000330203181C2A1D2A282A3408AE00330868
:10044000AE0219302E02031C262A272A282AFC2A4B
:100450000630AE002E08B200AA1F2F2A302A312AF9
:10046000B217AD1F342A352A362A3217A917FF30A2
:10047000A805FF30A9050030AA05AC17FF30AB0571
:10048000FF30AC050030AD05330834020318492AAB
:100490004A2A722A0130AB35AC0DAD0D890B4B2ABF
:1004A0000130B302330834060319572A582A6B2A3D
:1004B0000130B20232080739031D5F2A602A4A2A36
:1004C0006B2A0130AA36A90CA80C890B622A0130CC
:1004D000AE002E08B40734083306031D702A712AB3
:1004E000612A9F2A340833020318772A782A9F2A20
:1004F0000130A835A90DAA0D890B792A0130B40263
:10050000330834060319852A862A992A0130B20253
:1005100032080739031D8D2A8E2A782A992A01303C
:10052000AD36AC0CAB0C890B902A0130AE002E0816
:10053000B30734083306031D9E2A9F2A8F2AB21F51
:10054000A22AA32AB32AFF30A806FF30A906FF304B
:10055000AA060130A807003003180130A9070030AF
:1005600003180130AA07321FB62AB72AC72AFF305C
:10057000AB06FF30AC06FF30AD060130AB070030F4
:1005800003180130AC07003003180130AD07B20189
:100590002808AB072908AC3D2A08AD3DAD1FD12A7C
:1005A000D22AE42AFF30AB06FF30AC06FF30AD069E
:1005B0000130AB07003003180130AC0700300318DE
:1005C0000130AD07B201B20A2B08A0002C08A1002F
:1005D0002D08A2003408AE002E08A3003208AF0098
:1005E0002F08A4008631E826813140012008A800A8
:1005F0002108A9002208AA00080045308D313425C1
:100600008231420167088A0066080A00833104309B
:10061000663E860001308700413F8A00403F0A0065
:10062000833160304101D5005508F400C530D60053
:100630005608F5000630663E860001308700413FCF
:100640008A00403F0A00833141014508D500550822
:100650004001A00060308731CF2782318C314F2498
:100660008231003A0319352B362B072BB8308C31E9
:1006700081248231C12BAA304101D50055084301A4
:10068000B5004001A001A00AB5308731CF278231E3
:10069000072BB601B60A4001A001A00AB630873187
:1006A000CF278231072B03304101D5005508430184
:1006B000B7004001A001A00AB7308731CF278231AF
:1006C000072B0230663E860001308700413F8A00DA
:1006D000403F0A008331072B14304101D5005508F3
:1006E0004301B4007C2B0B304101D5006230890BF3
:1006F000772BD50B772B00008C316F248231003A99
:10070000031D832B842BD92B01304301B402340AFF
:10071000031D8B2B8C2B732B072B8C319A2482314E
:10072000072B15304101D500C630890B952BD50B11
:10073000952B0000B9304101D5005508F400A030D8
:100740008C31F4248231063043013906031DA92B74
:10075000AA2BD92B20084101D50055084001BB0028
:10076000A1304101D60056084001BC000830663E69
:10077000860001308700413F8A00403F0A008331F4
:10078000072B43013808103A03193B2B013A031990
:10079000492B023A0319612B073A03196C2B013AD2
:1007A00003198D2B363A0319532B073A0319912B52
:1007B000D92B072B80312B2840013B08C1003C0876
:1007C000C2003D08C3000310420D430DC40044089D
:1007D000C5004508031DED2BEE2BF52B0030BB00AB
:1007E0000030BC000030BD009C2C3E08C1003F081A
:1007F000C2004008C3000310420D430DC40044086A
:10080000CA004A08031D052C062C0D2C0030BB0025
:100810000030BC000030BD009C2C4A087B3EC1006B
:100820004108C5073B08C1003C08C2003D08C300A1
:100830001030C336C20CC10C890B192C4108C400FE
:100840004408CA003E08C1003F08C2004008C30077
:100850001030C336C20CC10C890B292C4108C400CE
:100860004408CA068030C1004108CA05BC17BF173A
:10087000FF30BE05FF30BF050030C0050030C600A8
:100880000030C7000030C8000730C1004108C9006F
:100890003B1C4B2C4C2C522C3E08C6073F08C73D36
:1008A0004008C83D0130BD36BC0CBB0C890B532C35
:1008B0000130BE35BF0DC00D890B592C0130C90266
:1008C000031D632C642C482C0930C1004108C90069
:1008D0003B1C6B2C6C2C722C3E08C6073F08C73D96
:1008E0004008C83D0130BD36BC0CBB0C890B732CD5
:1008F0000130C836C70CC60C890B792C0130C902EF
:10090000031D832C842C682C4608A0004708A100F6
:100910004808A2004508C1004108A3004A08C200D7
:100920004208A4008631E826833140012008BB003C
:100930002108BC002208BD00080040012E08B100BB
:100940002F08B2003008B3000310320D330DB4008D
:100950003408B6003608031DAE2CAF2CB62C003080
:10096000AB000030AC000030AD004E2D2B08B100C4
:100970002C08B2002D08B3000310320D330DB40063
:100980003408BA003A08031DC62CC72CCE2C003000
:10099000AB000030AC000030AD004E2D0030B70091
:1009A0000030B8000030B90089303A07B100310892
:1009B000B6022E08B1002F08B2003008B300103084
:1009C000B336B20CB10C890BE02C3108B4003408FA
:1009D000BA002B08B1002C08B2002D08B30010306B
:1009E000B336B20CB10C890BF02C3108B4003408CA
:1009F000BA068030B1003108BA05AF17FF30AE0536
:100A0000FF30AF050030B005AC17FF30AB05FF304D
:100A1000AC050030AD051830B1003108B50001302B
:100A2000B735B80DB90D890B102D2D083002031DF7
:100A30001F2D2C082F02031D1F2D2B082E02031C17
:100A4000222D232D2A2D2B08AE022C08AF3B2D087A
:100A5000B03B37140130AE35AF0DB00D890B2B2DE7
:100A60000130B502031D352D362D0F2D3708A0009E
:100A70003808A1003908A2003608B1003108A300E7
:100A80003A08B2003208A4008631E82684314001D9
:100A90002008AB002108AC002208AD00080040018E
:100AA00019170530F5000F30F400F130890B562D81
:100AB000F40B562DF50B562D00004001191305308F
:100AC000F5000F30F400F130890B642DF40B642D28
:100AD000F50B642D0000400119170530F5000F30AB
:100AE000F400F130890B722DF40B722DF50B722D81
:100AF0000000400119130530F5000F30F400F1300B
:100B0000890B802DF40B802DF50B802D000040010A
:100B100019170530F5000F30F400F130890B8E2DD8
:100B2000F40B8E2DF50B8E2D00004001191315309E
:100B3000F5004B30F400BE30890B9C2DF40B9C2D3E
:100B4000F50B9C2D003240019A140530F5000F3052
:100B5000F400F130890BAA2DF40BAA2DF50BAA2D68
:100B6000000040019A100530F5000F30F400F1301C
:100B7000890BB82DF40BB82DF50BB82D00004001F2
:100B80009A140530F5000F30F400F130890BC62DB2
:100B9000F40BC62DF50BC62D000040019A10053050
:100BA000F5000F30F400F130890BD42DF40BD42D67
:100BB000F50BD42D000040019A140530F5000F30DC
:100BC000F400F130890BE22DF40BE22DF50BE22D50
:100BD000000040019A10080040012008A4002108EC
:100BE000A5002208A6000310250D260DA700270842
:100BF000AD002D08031DFD2DFE2D072E0030A30096
:100C00000030A2000030A1000030A000702E2008AB
:100C1000A4002108A5002208A6001730A636A50CBE
:100C2000A40C890B0E2E2408A7002708A800A117E2
:100C3000FF30A005FF30A1050030A2052008A90063
:100C40002108AA002208AB00AC018E30AD02AD1F16
:100C50002A2E2B2E432E2D08803A8F3E0318312E3C
:100C6000322E332EFE2D0130AC36AB0CAA0CA90C63
:100C7000890B342E0130A4002408AD07031D412E3A
:100C8000422E332E582E18302D02031C482E492E8A
:100C9000532EFE2D0130A935AA0DAB0DAC0D890BDD
:100CA0004B2E0130AD022D08031D572E582E4A2E13
:100CB000280803195C2E5D2E682EA909AA09AB0924
:100CC000AC09A90A0319AA0A0319AB0A0319AC0A49
:100CD0002C08A3002B08A2002A08A1002908A000C4
:100CE000080040013B08031D762E772EC52E3C08D8
:100CF0008600013087000108BD003D084101BB00AE
:100D000040013C08043E8600013087000108BD0018
:100D1000BE013C08033E8600013087000108BF0089
:100D2000C0013F08C000BF013D083F044101B400BD
:100D300040013E0840044101B50000304001AB00D5
:100D40001630AC004430AD00410135084001A90027
:100D5000410134084001A8008C31DE248631400175
:100D60002808AE002908AF002A08B00084319D246D
:100D7000863140012B084101A60040012C084101A9
:100D8000A70040012D084101A80041013B080319BB
:100D9000CA2ECB2ED42E50010C18CF2ED02ED42EEE
:100DA0008731F9278631E72E41013B080319D92EF7
:100DB000DA2EE42E50010C1CDE2EDF2EE42E0C1059
:100DC000640050010C14E72E50010C106400080060
:100DD000400123080319ED2EEE2EF52E22082104E2
:100DE0002004031DF42EF52E062F0030A000003045
:100DF000A1000030A2005C2F0130A5002508A30748
:100E00000130A236A10CA00C890B012FFE30220567
:100E1000031D0B2F0C2FFC2E212F0130A5002508C0
:100E2000A3070130A007003003180130A1070030EC
:100E300003180130A2070130A236A10CA00C890BC7
:100E40001C2FFF302205031D262F272F0D2F302F9B
:100E50000130A3020130A035A10DA20D890B2B2F6B
:100E6000A11B332F342F3A2F023023020318392FBE
:100E70003A2F282F23183D2F3E2F442FFF30A00557
:100E80007F30A105FF30A2050310A30C2308A500A5
:100E9000A601A7011030A535A60DA70D890B4B2F74
:100EA0002508A0042608A1042708A2042408031981
:100EB0005A2F5B2F5C2FA217080041014608400102
:100EC000B600410147084001B70041014808400110
:100ED000B8008E31B526873140013608BF0037088B
:100EE000C0003808C100410146084001C20041016C
:100EF00047084001C300410148084001C4008D314A
:100F00001325873140013F084101C90040014008D5
:100F10004101CA00400141084101CB00490840019C
:100F2000A80041014A084001A90041014B084001C5
:100F3000AA00410146084001AB00410147084001B9
:100F4000AC00410148084001AD008131DD2187310D
:100F5000400128084101C600400129084101C7009D
:100F600040012A084101C80046084001B60041017D
:100F700047084001B700410148084001B8008E31E0
:100F8000B5268731400136084101C60040013708C7
:100F90004101C700400138084101C8000800400174
:100FA000A300E62F76082307A10021088600013060
:100FB00087000108A2007608203E860001308700E5
:100FC000220881000130A1002108F60720087602DE
:100FD0000318EB2FEC2FF22F20307602031CF12F99
:100FE000F22FD22F7608A10021084101BF00F6019F
:100FF0000800203050018C0007308D000C140800D0
:101898000800080055344101400808004101BD0115
:1018A800BD0A0800603051018D0006309300080021
:1018B800640080010131890B5D2C0034FE001200A8
:1018C8001E00FE0B632C003451018C1300006300D2
:1018D8000000000008007608031D732C752C0130E9
:1018E800762C0030080077340D3452340C34983498
:1018F8000F34FC340E3471340634F5007808F400E3
:101908007508860001308700740881004101C00114
:10191800080040019A130B30F4006230890B922CB6
:10192800F40B922C003240019A1708000310400172
:101938009A1F03140318A12CA42C40019A17A62C53
:1019480040019A1308004E010D104101380839046E
:101958000319AF2CB02CB52C39088A0038080A00B6
:101968008C310800FF304F0196009613FF30970026
:10197800FF309800FF309900FF309A00FF309B003D
:10198800FF309C00FF309D000800F40074084101FE
:101998009F0042019117111311141118D42CD52C42
:1019A800D12C41011E084001A10041011D08400140
:1019B800A000080040012808A0002908A100A201F1
:1019C8008E30F4007408A300A4018631E8268C3117
:1019D80040012008A8002108A9002208AA00080040
:1019E8004001A0002008860001308700092D403002
:1019F8008400013085007708F500750803190A2D61
:101A080012001E00F50B042D0A2DFB2C7708F5009B
:101A180074088600013087007508810008004001BD
:101A2800410840043F0403191A2D1B2D1D2D803039
:101A3800C1064208A8004308A9004408AA003F08B4
:101A4800AB004008AC004108AD008131DD218D318B
:101A580040012808BF002908C0002A08C100080062
:101A6800F5008C31B6248D318C3156248D315001DE
:101A780092147E01B801C301CE01CE144001920137
:101A8800930194019414FF309800FF309900FF30BF
:101A98009A009A1075088D319B258D318B170B177D
:101AA8000800823052018C004F01991241018C01CB
:101AB8008D018E018F019201930198019A019F0176
:101AC80042018C018D018E018F01900192019301D9
:101AD8009401950103309600970198018430910094
:101AE80052018C0108004F01161016138D3155252F
:101AF8008D317E01CE13400194139A177E01431352
:101B0800CE1040011313941019139A107E014E1031
:101B18004E134001141014131A101A1394151416A6
:101B28007E01CE154E1685314F258D310800F40003
:101B38004F011C107E01C312C31340019316931763
:101B48000F307D01C50013307E019F0014309D00C9
:101B58000D307D01C60043018F0126309000013011
:101B6800910092011214FE308E0074358D004E01E2
:101B78000F101914F601F7014101C00108004001D6
:101B8800220821042004031DCA2DCB2DD22D2308A1
:101B9800860087010030C03FC13FFA2D22087F39F7
:101BA800F400F501F435F50D230886008701740863
:101BB800C03F7508C13F210D210D0139F400F50121
:101BC800230886008701740881044131750881045F
:101BD800230886008701823081074131FF30813D2B
:101BE8007F31220880393F38A200A1130800400144
:101BF800A21FFF2D002E0D2E2008003CA00021085A
:101C0800031C210F003CA1002208031C220F803C6A
:101C1800A200A51F102E112E1E2E2308003CA30083
:101C28002408031C240F003CA4002508031C250FCE
:101C3800803CA5008030A2068030A5062508220237
:101C4800031D2C2E24082102031D2C2E23082002FC
:101C580003182F2E302E322E0310332E03140800B3
:101C68004E0119100F1043010C08F2007208F3001E
:101C78000F1D3F2E402E542E8F1E432E442E4D2EC8
:101C8800111F472E482E4D2E03308F3145278E3198
:101C98006C2E01308F3145278E31430110166C2E82
:101CA8008F1A572E582E5D2E00308F3145278E31D2
:101CB8006C2E7308F2007208F90002308F31452744
:101CC8008E31430110164E010F1C6B2E6C2E672EA1
:101CD8004E010F10430110164E011914080040015F
:101CE800B5018E30B2003208B400B11F7C2E7D2EB3
:101CF800962EAE09AF09B009B109AE0A0319AF0AA9
:101D08000319B00A0319B10AB501B50A962E0130B4
:101D1800B136B00CAF0CAE0C890B8C2E0130B20072
:101D28003208B407FF303105031D9B2E9C2E8B2EE5
:101D38002E08A0002F08A1003008A2003408B20025
:101D48003208A3003508B3003308A4008631E8261A
:101D58008E3140012008AE002108AF002208B000F3
:101D6800080040013608A0003708A1003808A20082
:101D78003D30B9003908A3008D31C3258E314001AB
:101D8800BE1FC72EC82ECF2E0030B6000030B700B9
:101D98000030B800FB2E00303E02153003193D021A
:101DA800031CD72ED82ED92EFB2E3608A0003708B4
:101DB800A1003808A2008531EC258E3140012308A6
:101DC800B1002208B0002108AF002008AE008E3113
:101DD80073268E3140012E08BA002F08BB00300848
:101DE800BC003A08B6003B08B7003C08B800080039
:101DF80006304001A0007508860087012008810090
:101E0800410120084001A0007408860001308700C5
:101E180020088100410121084001A000740A8600C1
:101E28000130870020088100410122084001A000FC
:101E38007408023E860001308700200881004101B5
:101E480023084001A0007408033E86000130870083
:101E580020088100410124084001A0007408043EC4
:101E680086000130870020088100410125084001D3
:101E7800A0007408053E8600013087002008810014
:101E88000800F100892F4101BE01BE0A972F790889
:101E9800F0007008F800F701C001C00A702F213067
:101EA80077020318582F592F702F7908F0007708F8
:101EB800403E860001308700700881000130F00044
:101EC8007008F707702F41013E08003A0319532F95
:101ED800013A03194B2F532FBE01972F41013F0899
:101EE80076020318782F792F862F7608203E8600F1
:101EF80001308700010843018C000130F0007008B0
:101F0800F607972F43018C01972F7108003A0319A0
:101F1800472F013A0319722F033A0319672F013A21
:101F28000319972F972F080041013D0803199D2F8A
:101F38009E2FD52F3C08031DA22FA32FD52FBD01FF
:101F480050010C18A82FA92FBA2F4001191780315A
:101F58005D208F318C318D248F314101A4010230F5
:101F6800D4005408A50040011913FF2F0C1CBD2FE5
:101F7800BE2FFF2F0C10400119179A1480315D20D5
:101F88008F318C318D248F314101A4010430D4006C
:101F98005408A500400119139A10640050010C144C
:101FA800FF2F4001031AD92FDA2FFC2F50010C10F4
:101FB80040019A1441013B080319E32FE42FF02F45
:101FC8003A080319E82FE92FF02FBA0180315D2074
:101FD8008F318C318D248F314101A4010630D4001A
:101FE8005408A50040019A10640050010C14FF2FFA
:081FF8008C3168248F310800D0
:020000040001F9
:0A000E00EC1F3F27BF3FFF3FFF3FFD
:00000001FF
