:020000040000FA
:1000000080313128080055347E1480314E01161E8F
:100010000A280B2813280C1E0E280F2813288D31B0
:10002000AF2580312F280B1F162817282F28191CC1
:100030001A281B2823280F1C1E281F2823288E312E
:10004000E82680312F28171C262827282F280D1C4A
:100050002A282B282F288C31F62480312F287E1037
:100060000900803133284101803103208031D900DB
:10007000C73084008C3085004A308600013087000C
:100080000A308731FA278031F601F701F801F901CA
:10009000A03084000030850028308C31A6248031C7
:1000A00020308400013085002A308C31A624803134
:1000B000A03084000130850040308C31A62480318E
:1000C0007E10400183313E2B823052018C00410171
:1000D000420803196C286D281B2A4108031D71284A
:1000E00072281B2AC201C101C10A40011A141A1741
:1000F0009A14191703304101CF000830CE00773031
:10010000890B8028CE0B8028CF0B802813308D31AF
:100110005225803113308D31522580314001210824
:100120004101C600400120084101C5005230410193
:10013000CF002B30CE000030890B9C28CE0B9C28A2
:10014000CF0B9C28000013308D31522580314001A7
:1001500021084101B900400120084101B8004608CA
:100160003902031DB528450838020318B828B928F4
:10017000BD283908C6003808C50012304001BB0050
:100180008330BC004030BD000030AB008030AC009C
:100190004530AD00410146084001A9004101450834
:1001A0004001A8008D317C25803140012808AE0037
:1001B0002908AF002A08B0008431EC2480314001C6
:1001C0002B08BE002C08BF002D08C00084312B2452
:1001D000803140013B084101A90040013C08410138
:1001E000AA0040013D084101AB0014308D31522579
:1001F000803114308D315225803140012108410178
:10020000C400400120084101C30012304001BB007E
:100210008330BC004030BD000030AB008030AC000B
:100220004530AD00410144084001A90041014308A7
:100230004001A8008D317C25803140012808AE00A6
:100240002908AF002A08B0008431EC248031400135
:100250002B08BE002C08BF002D08C00084312B24C1
:10026000803140013B084101A60040013C084101AA
:10027000A70040013D084101A80040011A101A13CF
:1002800019139A10410126084001A00041012708D6
:100290004001A100410128084001A2003330A30021
:1002A0005330A4004030A5008E31752680310318EC
:1002B0005A295B295E294101C001C00A410140035E
:1002C000031D63296429802900304001A0006030AB
:1002D000A1004030A200410126084001A3004101D5
:1002E00027084001A400410128084001A5008E31E3
:1002F0007526803103187D297E2980294101C0019E
:10030000410126084001BE00410127084001BF000D
:10031000410128084001C0000030BB001630BC007D
:100320004430BD0084312B24803140013B08410121
:10033000C80040013C084101C90040013D0841019D
:10034000CA0087313527803141014808D400490867
:10035000D5004A08D60054084001CB004101550899
:100360004001CC00410156084001CD0086313B26BA
:10037000803140014C084101D10040014B0841014E
:10038000D00029084001BE0041012A084001BF00F9
:1003900041012B084001C0000030BB001630BC00FA
:1003A0004430BD0084312B24803140013B084101A1
:1003B000C80040013C084101C90040013D0841011D
:1003C000CA0087313527803141014808D4004908E7
:1003D000D5004A08D60054084001CB004101550819
:1003E0004001CC00410156084001CD0086313B263A
:1003F000803140014C084101D30040014B084101CC
:10040000D2005108CE004E08A0005008CE004E0881
:10041000A1005308CE004E08A2005208CE004E089C
:10042000A3004008CE004E08A400A5018C31DD24B5
:1004300080314101C10152018C01080040012808AE
:10044000AE002908AF002A08B00003102F0D300DB0
:10045000B1003108B4002B08AE002C08AF002D0805
:10046000B00003102F0D300DB1003108B300340877
:1004700003193B2A3C2A4C2A330834020318412A28
:10048000422A532A3308AE003408AE0219302E0235
:10049000031C4B2A4C2A532A2B08A8002C08A9001D
:1004A0002D08AA003D2B33080319572A582A682A19
:1004B0003408330203185D2A5E2A692A3408AE0024
:1004C0003308AE0219302E02031C672A682A692AF3
:1004D0003D2B0630AE002E08B200AA1F702A712AEA
:1004E000722AB217AD1F752A762A772A3217A917F2
:1004F000FF30A805FF30A9050030AA05AC17FF3072
:10050000AB05FF30AC050030AD05330834020318ED
:100510008A2A8B2AB32A0130AB35AC0DAD0D890B7D
:100520008C2A0130B302330834060319982A992A19
:10053000AC2A0130B20232080739031DA02AA12AD1
:100540008B2AAC2A0130AA36A90CA80C890BA32A45
:100550000130AE002E08B40734083306031DB12A5B
:10056000B22AA22AE02A340833020318B82AB92A88
:10057000E02A0130A835A90DAA0D890BBA2A01304D
:10058000B402330834060319C62AC72ADA2A01300E
:10059000B20232080739031DCE2ACF2AB92ADA2A35
:1005A0000130AD36AC0CAB0C890BD12A0130AE005A
:1005B0002E08B30734083306031DDF2AE02AD02AA9
:1005C000B21FE32AE42AF42AFF30A806FF30A90666
:1005D000FF30AA060130A807003003180130A90730
:1005E000003003180130AA07321FF72AF82A082B17
:1005F000FF30AB06FF30AC06FF30AD060130AB0775
:10060000003003180130AC07003003180130AD078B
:10061000B2012808AB072908AC3D2A08AD3DAD1F43
:10062000122B132B252BFF30AB06FF30AC06FF300F
:10063000AD060130AB07003003180130AC070030C5
:1006400003180130AD07B201B20A2B08A0002C0834
:10065000A1002D08A2003408AE002E08A300320825
:10066000AF002F08A4008631C02682314001200847
:10067000A8002108A9002208AA00080090308D31A6
:100680004125833142014B088A004A080A00833120
:1006900004304A3E860001308700413F8A00403FD7
:1006A0000A00833144304101D7005708F400C730B5
:1006B000D8005808F50006304A3E86000130870011
:1006C000413F8A00403F0A00833144304001A0008E
:1006D0000130A10041014708D70057084001A2009E
:1006E0008E31122683318C3187248331003A0319ED
:1006F0007A2B7B2B482B38308C31D1248331102C32
:10070000AA304101D70057084401B50035304001F7
:10071000A0000230A100A201A20A8E31122683316C
:10072000482B04304101D70057084401B600363049
:100730004001A0000230A100A201A20A8E311226BF
:100740008331482B03304101D70057084401B700DB
:1007500037304001A0000230A100A201A20A8E3170
:1007600012268331482B02304A3E86000130870032
:10077000413F8A00403F0A008331482B1430410139
:10078000D70057084401B400CE2B0B304101D700ED
:100790006230890BC92BD70BC92B00008C31AC24DC
:1007A0008331003A031DD52BD62B282C0130440170
:1007B000B402340A031DDD2BDE2BC52B482B8C31F4
:1007C000E9248331482B15304101D700C630890B0D
:1007D000E72BD70BE72B000039304101D700570832
:1007E000F40020308D31D0258331063044013906A4
:1007F000031DFB2BFC2B282C20084101D700570898
:10080000F4002130D8005808F50008304A3E860030
:1008100001308700413F8A00403F0A008431482B65
:1008200044013808103A0319802B013A0319912B1F
:10083000023A0319B32B073A0319BE2B013A0319E5
:10084000DF2B363A0319A22B073A0319E32B282C86
:10085000482B8031312840013B08C1003C08C200D0
:100860003D08C3000310420D430DC4004408C500F9
:100870004508031D3C2C3D2C442C0030BB000030AF
:10088000BC000030BD00EB2C3E08C1003F08C20098
:100890004008C3000310420D430DC4004408CA00C1
:1008A0004A08031D542C552C5C2C0030BB00003032
:1008B000BC000030BD00EB2C4A087B3EC100410863
:1008C000C5073B08C1003C08C2003D08C30010300A
:1008D000C336C20CC10C890B682C4108C400440803
:1008E000CA003E08C1003F08C2004008C3001030E3
:1008F000C336C20CC10C890B782C4108C4004408D3
:10090000CA068030C1004108CA05BC17BF17FF30B6
:10091000BE05FF30BF050030C0050030C600003006
:10092000C7000030C8000730C1004108C9003B1CA7
:100930009A2C9B2CA12C3E08C6073F08C73D4008B7
:10094000C83D0130BD36BC0CBB0C890BA22C01305C
:10095000BE35BF0DC00D890BA82C0130C902031D87
:10096000B22CB32C972C0930C1004108C9003B1CA4
:10097000BA2CBB2CC12C3E08C6073F08C73D400817
:10098000C83D0130BD36BC0CBB0C890BC22C0130FC
:10099000C836C70CC60C890BC82C0130C902031D10
:1009A000D22CD32CB72C4608A0004708A100480839
:1009B000A2004508C1004108A3004A08C20042083D
:1009C000A4008631C026843140012008BB002108E4
:1009D000BC002208BD00080040012E08B1002F080D
:1009E000B2003008B3000310320D330DB4003408E8
:1009F000B9003908031DFD2CFE2C052D0030AB007D
:100A00000030AC000030AD009D2D2B08B1002C084B
:100A1000B2002D08B3000310320D330DB4003408BA
:100A2000BA003A08031D152D162D1D2D0030AB0000
:100A30000030AC000030AD009D2D0030B60000301D
:100A4000B7000030B80089303A07B1003108B90268
:100A50002E08B1002F08B2003008B3001030B336B2
:100A6000B20CB10C890B2F2D3108B4003408BA0038
:100A70002B08B1002C08B2002D08B3001030B3369B
:100A8000B20CB10C890B3F2D3108B4003408BA0602
:100A90008030B1003108BA05AF17FF30AE05FF3026
:100AA000AF050030B005AC17FF30AB05FF30AC052B
:100AB0000030AD051830B1003108B5000130B63551
:100AC000B70DB80D890B5F2D2D083002031D6E2D5B
:100AD0002C082F02031D6E2D2B082E02031C712DD6
:100AE000722D792D2B08AE022C08AF3B2D08B03BA0
:100AF00036140130AE35AF0DB00D890B7A2D0130B3
:100B0000B502031D842D852D5E2D3608A000370803
:100B1000A1003808A2003908B1003108A3003A0842
:100B2000B2003208A4008631C0268431400120087A
:100B3000AB002108AC002208AD00080040011917E5
:100B40000530F5000F30F400F130890BA52DF40BC2
:100B5000A52DF50BA52D0000400119130530F5005A
:100B60000F30F400F130890BB32DF40BB32DF50BDE
:100B7000B32D0000400119170530F5000F30F400C7
:100B8000F130890BC12DF40BC12DF50BC12D0000E7
:100B9000400119130530F5000F30F400F130890BD6
:100BA000CF2DF40BCF2DF50BCF2D000040011917E1
:100BB0000530F5000F30F400F130890BDD2DF40B1A
:100BC000DD2DF50BDD2D0000400119131530F5006A
:100BD0004B30F400BE30890BEB2DF40BEB2DF50BF5
:100BE000EB2D003240019A140530F5000F30F4006F
:100BF000F130890BF92DF40BF92DF50BF92D0000CF
:100C000040019A100530F5000F30F400F130890BE7
:100C1000072EF40B072EF50B072E000040019A1447
:100C20000530F5000F30F400F130890B152EF40B70
:100C3000152EF50B152E000040019A100530F50019
:100C40000F30F400F130890B232EF40B232EF50B1B
:100C5000232E000040019A140530F5000F30F400F7
:100C6000F130890B312EF40B312EF50B312E0000B3
:100C700040019A10080040014B08CF004C08D000FA
:100C80004D08D1000310500D510DD2005208D8006C
:100C90005808031D4C2E4D2E562E0030CE0000302D
:100CA000CD000030CC000030CB00BF2E4B08CF0071
:100CB0004C08D0004D08D1001730D136D00CCF0CE5
:100CC000890B5D2E4F08D2005208D300CC17FF309D
:100CD000CB05FF30CC050030CD054B08D4004C08C7
:100CE000D5004D08D600D7018E30D802D81F792EF6
:100CF0007A2E922E5808803A8F3E0318802E812E2D
:100D0000822E4D2E0130D736D60CD50CD40C890B43
:100D1000832E0130CF004F08D807031D902E912E4F
:100D2000822EA72E18305802031C972E982EA22E22
:100D30004D2E0130D435D50DD60DD70D890B9A2EF9
:100D40000130D8025808031DA62EA72E992E53084D
:100D50000319AB2EAC2EB72ED409D509D609D70965
:100D6000D40A0319D50A0319D60A0319D70A570852
:100D7000CE005608CD005508CC005408CB00080022
:100D8000400123080319C52EC62ECD2E22082104AA
:100D90002004031DCC2ECD2EDE2E0030A00000300E
:100DA000A1000030A200342F0130A5002508A307C0
:100DB0000130A236A10CA00C890BD92EFE302205E1
:100DC000031DE32EE42ED42EF92E0130A5002508B4
:100DD000A3070130A007003003180130A10700303D
:100DE00003180130A2070130A236A10CA00C890B18
:100DF000F42EFF302205031DFE2EFF2EE52E082FB8
:100E00000130A3020130A035A10DA20D890B032FE3
:100E1000A11B0B2F0C2F122F023023020318112FAE
:100E2000122F002F2318152F162F1C2FFF30A0056F
:100E30007F30A105FF30A2050310A30C2308A500F5
:100E4000A601A7011030A535A60DA70D890B232FEC
:100E50002508A0042608A1042708A20424080319D1
:100E6000322F332F342FA2170800410148084001C8
:100E7000E100410149084001E20041014A08400106
:100E8000E3008F316A27873140016108EA00620878
:100E9000EB006308EC00410148084001ED0041010E
:100EA00049084001EE0041014A084001EF008D3140
:100EB000F125873140016A084101CB0040016B08F0
:100EC0004101CC0040016C084101CD004B084001BC
:100ED000A80041014C084001A90041014D08400112
:100EE000AA00410148084001AB0041014908400106
:100EF000AC0041014A084001AD0082311E22873119
:100F0000400128084101C800400129084101C900E9
:100F100040012A084101CA0048084001E10041019E
:100F200049084001E20041014A084001E3008F31D5
:100F30006A278731400161084101C8004001620809
:100F40004101C900400163084101CA000800F100E5
:100F5000EB2F4101BA01BA0AF92F5908F0007008C5
:100F6000BE00BC01BD01BD0AD22F21303C020318D6
:100F7000BA2FBB2FD22F5908F0003C08C03E860084
:100F800001308700700881000130F0007008BC0754
:100F9000D22F41013A08003A0319B52F013A03193B
:100FA000AD2FB52FBA01F92F41013B087602031886
:100FB000DA2FDB2FE82F7608A03E8600013087006D
:100FC000010843018C000130F0007008F607F92F8A
:100FD00043018C01F92F7108003A0319A92F013A36
:100FE0000319D42F033A0319C92F013A0319F92F12
:100FF000F92F0800FE0012001E00FE0BFB2F00342C
:101904000800080008000800080041013D0808001C
:101914004101C201C20A080075084201DB007408D3
:10192400DA00080075084201D9007408D8000800DC
:1019340075084201D7007408D600080075084201F2
:10194400D5007408D4000800640080010131890BBB
:10195400A72C00347608031DB02CB22C0130B32C14
:1019640000300800603051018D008F019101063074
:101974009300920108004F01960197019801990183
:101984009A019B019C019D010800AE340E348A34F7
:101994000C346434003492340D3402340034F500D1
:1019A40041013E08F400750886000230870074087F
:1019B4008100BD01080040019A133430F400F23074
:1019C400890BE22CF40BE22C40019A170800031057
:1019D40040019A1F03140318F02CF32C40019A17AA
:1019E400F52C40019A1308004E010D1041013608F0
:1019F40037040319FE2CFF2C042D37088A003608FF
:101A04000A008D31080042015A085B0403190B2DAA
:101A14000C2D112D5B088A005A080A008D317E01B5
:101A24005510080042015808590403191A2D1B2D9A
:101A3400202D59088A0058080A008D317E0155115D
:101A440008004201560857040319292D2A2D2F2D69
:101A540057088A0056080A008D317E015512080085
:101A64004201540855040319382D392D3E2D5508CB
:101A74008A0054080A008D317E0155130800400184
:101A8400A0008C31BD248D318F31B1278D318C3143
:101A9400B4248D31400120088D3167258D31080033
:101AA400F400740841019F004201911711131114AD
:101AB40011185D2D5E2D5A2D41011E084001A10013
:101AC40041011D084001A0000800F40043018F01FA
:101AD400263090000130910092011214FE308E00E5
:101AE40074358D004E010F101914F6014101BC012B
:101AF400BD01080040012808A0002908A100A20196
:101B04008E30F4007408A300A4018631C0268D3100
:101B140040012008A8002108A9002208AA00080002
:101B240002304001A000750886008701200881006A
:101B3400410120084001A00074088600013087009C
:101B440020088100410121084001A000740A860098
:101B5400013087002008810008007E01551CB32D48
:101B6400B42DB72D8D3105258D317E01551DBB2D2D
:101B7400BC2DBF2D8D3114258D317E01551EC32DF5
:101B8400C42DC72D8D3123258D317E01551FCB2DBD
:101B9400CC2DCF2D8D3132258D3108004001A00090
:101BA4002008860002308700E62DC0308400013012
:101BB400850041013C08F50075080319E72D120062
:101BC4001E00F50BE12DE72DD72D41013C08F50052
:101BD40074088600023087007508810008004001FF
:101BE4006C086B046A040319F82DF92DFB2D803061
:101BF400EC066D08A8006E08A9006F08AA006A0820
:101C0400AB006B08AC006C08AD0082311E228D3134
:101C140040012808EA002908EB002A08EC00080023
:101C2400292E7608A300A40123082007860024088F
:101C3400213D87000108A5007608A03E86000130FA
:101C44008700250881000130A3002308F60740011E
:101C54002208760203182F2E302E362E20307602DC
:101C6400031C352E362E132E7608A30023084101BB
:101C7400BB00F60108004001220821042004031DD2
:101C8400442E452E4C2E2308860087010030C03F89
:101C9400C13F742E22087F39F400F501F435F50DA7
:101CA4002308860087017408C03F7508C13F210DD1
:101CB400210D0139F400F501230886008701740819
:101CC400810441317508810423088600870182302C
:101CD40081074131FF30813D7F31220880393F380F
:101CE400A200A11308004001A21F792E7A2E872E8C
:101CF4002008003CA0002108031C210F003CA10087
:101D04002208031C220F803CA200A51F8A2E8B2EC2
:101D1400982E2308003CA3002408031C240F003C35
:101D2400A4002508031C250F803CA5008030A206D2
:101D34008030A50625082202031DA62E24082102B0
:101D4400031DA62E230820020318A92EAA2EAC2EAA
:101D54000310AD2E03140800823052018C0041019F
:101D64008C018D018E018F019201930198019A01DA
:101D74009F0142018C018D018E018F01900192011E
:101D840093019401950103309600970198018430E2
:101D9400910052018C014001141014137E0143136D
:101DA40040011313941019139A1085319E258E3116
:101DB40040011A101A1394157E01CE154001141611
:101DC4007E014E164101C201C20A08004E011910DB
:101DD4000F1043010C08F2007208F3000F1DF32EDC
:101DE400F42E082F8F1EF72EF82E012F111FFB2E15
:101DF400FC2E012F03308731A7278E31212F01308C
:101E04008731A7278E3143011016212F8F1A0B2FEC
:101E14000C2F112F00308731A7278E31212F730803
:101E2400F20072084101D90002308731A7278E31B0
:101E3400430110164E010F1C202F212F1C2F4E0181
:101E44000F10430110164E01191408004001E0015F
:101E54008E30DD005D08DF00DC1F312F322F4B2F69
:101E6400D909DA09DB09DC09D90A0319DA0A0319E1
:101E7400DB0A0319DC0AE001E00A4B2F0130DC36EF
:101E8400DB0CDA0CD90C890B412F0130DD005D0825
:101E9400DF07FF305C05031D502F512F402F5908D9
:101EA400A0005A08A1005B08A2005F08DD005D08DD
:101EB400A3006008DE005E08A4008631C0268F31CE
:101EC40040012008D9002108DA002208DB000800BC
:101ED40040016108A0006208A1006308A200683004
:101EE400E4006408A3008E313D268F314001E91FD0
:101EF4007C2F7D2F842F0030E1000030E200003081
:101F0400E300B02F00306902153003196802031C86
:101F14008C2F8D2F8E2FB02F6108CB006208CC0040
:101F24006308CD0086313B268F3140014E08DC002A
:101F34004D08DB004C08DA004B08D9008F31282704
:101F44008F3140015908E5005A08E6005B08E700B4
:101F54006508E1006608E2006708E3000800143041
:101F640040019800990180309A002B309200F030A3
:101F740093007E309400AA307E01CE005030C3001E
:101F84003330B800C4010130B9000430CF00BA01C5
:101F9400C501D0013730BB00F030C600FF30D1009E
:101FA4003F30BC00F030C700FF30D2008330F40073
:101FB4000C30F5008C318E248F318430F4000C30D9
:101FC400F5008C3194248F318530F4000C30F50009
:101FD4008C319A248F318630F4000C30F5008C312A
:101FE400A0248F310F307D01C50013307E019F0086
:0C1FF40014309D000D307D01C600080077
:020000040001F9
:0A000E00EC3FFF3FBF3FFF3FFF3F05
:00000001FF
