:020000040000FA
:0400000080314C28D7
:100008007E1480314E01161E0A280B2813280C1E58
:100018000E280F28132884310F2480314A280B1FFB
:10002800162817284A28191C1A281B2823280F1CA9
:100038001E281F2823288231002280314A289A1D31
:10004800262827282F28901D2A282B282F28843156
:100058007D2480314A28191E322833283E280F1E55
:10006800362837283E2841016B088A006A080A00AA
:1000780080314A28171C412842284A280D1C452847
:1000880046284A288431F42480314A287E10090001
:1000980080314E288531FD258031F90044308400B7
:1000A8008530850051308600003087000A30853160
:1000B800B2258031F501F601F701F80120308400FE
:1000C8000030850016308531B8258031A030840095
:1000D8000030850040308531B825803120308400DB
:1000E8000130850020308531B82580317E104001EF
:1000F80080317E2865308431942480318B170B172A
:1001080040019A1752088A0051080A0080310430C9
:10011800513E86008701413F8A00403F0A008031F6
:100128008531FA258031003A03199B289C288B28B1
:1001380057308531382580312729AA30C300430834
:100148004201D40054304001B6000130B700B80174
:10015800B80A8231D62280318B282130C300430867
:100168004201D50055304001B6000130B700B80152
:10017800B80A8231D62280318B284201D601D60AAC
:1001880056304001B6000130B700B801B80A8231D4
:10019800D62280318B280230513E86008701413FAC
:1001A8008A00403F0A0080318B283330C30043085F
:1001B800B6003530C4004408B7000630513E86000A
:1001C8008701413F8A00403F0A00803133304001B7
:1001D800B6000030B7003508C3004308B8008231C4
:1001E800D62280318B288531112580318B28153016
:1001F8004001C300C630890BFF28C30BFF2800004D
:1002080058304001C3004308BE00403084314B24BD
:100218008031063042015806031D13291429482944
:1002280040084001C3004308B6004130C4004408F8
:10023800B7000830513E86008701413F8A00403FA1
:100248000A0081318B28420157084001C300C401CC
:100258004408003A0319312948294308103A031978
:10026800A128013A0319B128023A0319CF28073AFD
:100278000319D928013A0319F728363A0319C1286E
:10028800073A0319FB2848298B2880314C28F200AB
:1002980096294001AD01AD0AAC297908F000700833
:1002A800B100AF01B001B00A7D2921302F02031837
:1002B8005E295F297D297908F0002F08C03E860055
:1002C8008701700881000130F0007008AF077D29B0
:1002D80040012D08F000F1017108003A0319752951
:1002E80059297008003A03195929013A0319512963
:1002F8005929AD01AC2940012E0876020318852939
:10030800862993297608203E860001308700010857
:1003180043018C000130F0007008F607AC29430156
:100328008C01AC297208F000F1017108003A031938
:100338009E29AC297008003A03194D29013A03197E
:100348007F29033A03196C29013A0319AC29AC290E
:100358000800143040019800990180309A002B3031
:100368009200F03093007E309400AA307E01CE00D7
:100378005030C3003330B800C4010130B900043034
:10038800CF00BA01C501D0013730BB00F030C6003C
:10039800FF30D1003F30BC00F030C700FF30D20042
:1003A80002304001B6000630B7008531DC258131C6
:1003B80001304001B6000630B7008531D6258131BD
:1003C80000304001B6000630B7008531D0258131B4
:1003D800FF304001B6000530B7008531CA258131AC
:1003E8000F307D01C50013307E019F0014309D0041
:1003F8000D307D01C60008004E0119100F10430191
:100408000C08F3007308F4000F1D0B2A0C2A202A8D
:100418008F1E0F2A102A192A111F132A142A192A83
:10042800033081314B218231382A013081314B210F
:10043800823143011016382A8F1A232A242A292A9E
:10044800003081314B218231382A7408F300730857
:10045800F900023081314B218231430110164E01DF
:100468000F1C372A382A332A4E010F104301101661
:100478004E01191408004E011912ED304001B60062
:100488000330B70085316A258231083042019F0068
:1004980080309D0024309E008A309B009C010030F3
:1004A8004001B6000030B70085317C25823100302C
:1004B8004001B6000030B700853173258231003025
:1004C8004001B6000030B7008531852582314001F2
:1004D800B201F801F7012030B8003808D000080050
:1004E80040013608031D792A7A2AA62A3708860089
:1004F800013087000108B8003808CF003708043EEB
:100508008600013087000108B800B9013708033EAA
:100518008600013087000108BA00BB013A08BB0019
:10052800BA0138083A044101E000400139083B04A7
:100538004101E10040014F080319A32AA42AA62A71
:1005480050010C1408004001BB003608B9003908F6
:10055800BD003B08B9003908BC00C92A3D0886001F
:1005680087010108B9003908BA000130B900390813
:10057800BD073A08B9003C088600013087003908F1
:1005880081000130B9003908BC070130B7020030DA
:10059800B83B370A031DD42A380A031DD42AD52AA2
:1005A800B22A0800F601EE2A7608B900BA0139081D
:1005B800360786003A08373D87000108BB007608F1
:1005C800203E8600013087003B0881000130B900D9
:1005D8003908F6074001380876020318F42AF52A84
:1005E800FB2A20307602031CFA2AFB2AD82A76082E
:1005F800B9003908AE00F601080064008531F72516
:1006080083314001AC01AC0AA001A101C501C601BA
:100618001A1405304001B9000F30B800F130890BC9
:10062800132BB80B132BB90B132B85318E25833164
:1006380040012C08031D212B222B1C2B85319625CC
:10064800833140011A1083317B23833108007508F8
:1006580003192F2B302B322B41016C1440012A082F
:100668000319372B382B3A2B4101EC144001290888
:1006780003193F2B402B422B41016C1540012808E0
:100688000319472B482B4A2B4101EC1541016C08F3
:1006980003194F2B502B532B85312B258331080001
:1006A800BF304001BA003A0893058331A223833151
:1006B800C8304001B6000330B7008531C425833106
:1006C800143050018C0007308D004001031A6D2B47
:1006D8006E2B772B50010C144001AB01AB0A833110
:1006E800012383317A2BCF0150010C1008004001FF
:1006F8004608B70037084101E20040014508B70045
:1007080037084101E30040012B0803198C2B8D2B7E
:100718009B2BAB01460841016102031D972B400149
:1007280045084101600203189A2B9B2B9E2B8531AB
:10073800032583318531BE258331080041018C01B1
:100748008D018E018F019201930198019A019F01F9
:1007580042018C018D018E018F019001920193015C
:1007680094019501960197013F30980084309100DB
:100778004E010D10171403304001B6000630B700C3
:100788008531C425833108008531E8258331710816
:10079800F3007008F200730840014602031DD62BCF
:1007A800720845020318D92BDA2BDE2B7308C60012
:1007B8007208C5000130A0070030A13D01302102B8
:1007C800903003192002031CEA2BEB2BEC2BAC0115
:1007D80008002030400150020318F32BF42B0C2C96
:1007E8007708A03E86008701010842019A0001307F
:1007F800F0007008F70720307702031C042C052C42
:10080800062CF7010130F00070084001D0070E2CCB
:100818004E01191208007E01551C132C142C172C9C
:100828008431E52484317E01551D1B2C1C2C1F2C82
:100838008431D62484317E01551E232C242C272C68
:100848008431C72484317E01551F2B2C2C2C2F2C4E
:100858008431B8248431080002304001B8003708D8
:100868008600870138088100410162084001B8000C
:100878003608860087013808810041016308400175
:10088800B800360A86008701380881000800400150
:10089800C200C030BF003F08B6002F08C000C10129
:1008A8004008B7004108B80042088231A7228431C5
:1008B80040012F08BF003E088600013087003F082E
:1008C800810008004001B60043018F0126309000E6
:1008D8000130910092011214FE308E00400136352D
:1008E80043018D004E010F1019144001AF01B001F2
:1008F80008004E01901101304001A2070030A33DCD
:1009080000302302643003192202031C8C2C8D2C26
:10091800932C85311E2584314001A201A3010800D2
:100928004001B90085314E2584318131AD218431B2
:100938008531612584314001390884316624843148
:1009480082313F2284310800630000004001031A0D
:10095800AE2CAF2CB72C50010C144001AB01AB0AE4
:1009680083310123843108004001470848040319F2
:10097800BE2CBF2CC42C48088A0047080A008431C2
:100988007E0155130800400149084A040319CD2C7B
:10099800CE2CD32C4A088A0049080A0084317E01EB
:1009A8005512080040014B084C040319DC2CDD2CBF
:1009B800E22C4C088A004B080A0084317E0155114C
:1009C800080040014D084E040319EB2CEC2CF12CC7
:1009D8004E088A004D080A0084317E01551008002F
:1009E8004E010D104001260827040319FC2CFD2C8C
:1009F800022D27088A0026080A00853108004001D0
:100A08009A130B304001B6006230890B092DB60BE2
:100A1800092D000040019A170800031040019A1F91
:100A280003140318182D1B2D40019A171D2D400182
:100A38009A1308004001240825040319242D252DA4
:100A48002A2D25088A0024080A008531080040015B
:100A58009A130B30F0006230890B302DF00B302DDB
:100A6800003240019A1708004001B7003108B6006B
:100A7800370886000130870036088100B001080079
:100A88005434033401340334A83404343034043483
:100A9800743402344F0196019701980199019A0123
:100AA8009B019C019D0108004001B60036084101E8
:100AB8009F004201911711140800603051018D0008
:100AC8008F01910106309300920108004001370818
:100AD8004101EB00400136084101EA0008004001ED
:100AE80037084101E700400136084101E6000800E7
:100AF800400137084101E900400136084101E8009A
:100B08000800400137084101E5004001360841016D
:100B1800E40008008531F4258531113085315825E8
:100B2800853108008531EE2585318531F1258531FE
:100B380008004001A801A80A83312B238531080049
:100B48004001A901A90A83312B23853108004001FE
:100B5800AA01AA0A83312B2385310800FE0012005E
:100B68001E00FE0BB32D0034640080010131890B97
:100B7800B92D0034BF304001B60036089905080089
:100B880040013708A7003608A600080040013708CA
:100B9800C8003608C700080040013708CA003608F0
:100BA800C900080040013708CC003608CB0008000F
:100BB80040013708CE003608CD000800F501F50AD7
:100BC80083312B238531080041011E08F1001D08DF
:100BD800F00008004201111008004201111308003A
:100BE8004201111708004001191708004001300898
:100BF800080055340800080008000800080008002C
:020000040001F9
:0A000E00EC3FFF3FAA3FFF3FFF3F1A
:00000001FF
