:020000040000FA
:0400000080314C28D7
:100008007E1480314E01161E0A280B2813280C1E58
:100018000E280F2813288331F32380314A280B1F19
:10002800162817284A28191C1A281B2823280F1CA9
:100038001E281F2823288231BA2280314A289A1D77
:10004800262827282F28901D2A282B282F28843156
:10005800462480314A28191E322833283E280F1E8C
:10006800362837283E2841016B088A006A080A00AA
:1000780080314A28171C412842284A280D1C452847
:1000880046284A288431C22480314A287E10090033
:1000980080314E288531A0258031F9001230840046
:1000A8008530850051308600003087000A30853160
:1000B8006F258031F501F601F701F8012030840041
:1000C800003085001630853175258031A0308400D8
:1000D800003085004030853175258031203084001E
:1000E8000130850020308531752580317E10400132
:1000F80080317E2862308431722480318B170B174F
:100108004001181652088A0051080A00803104304C
:10011800513E86008701413F8A00403F0A008031F6
:1001280085319D258031003A03199B289C288B280E
:1001380057308531062580312729AA30C300430866
:100148004201D40054304001B6000130B700B80174
:10015800B80A83315D2380318B281030C3004308EF
:100168004201D50055304001B6000130B700B80152
:10017800B80A83315D2380318B284201D601D60A23
:1001880056304001B6000130B700B801B80A8331D3
:100198005D2380318B280230513E86008701413F24
:1001A8008A00403F0A0080318B283330C30043085F
:1001B800B6003530C4004408B7000630513E86000A
:1001C8008701413F8A00403F0A00803133304001B7
:1001D800B6000030B7003508C3004308B8008331C3
:1001E8005D2380318B288431DF2480318B281530C2
:1001F8004001C300C630890BFF28C30BFF2800004D
:1002080058304001C3004308BE00403084311424F4
:100218008031063042015806031D13291429482944
:1002280040084001C3004308B6004130C4004408F8
:10023800B7000830513E86008701413F8A00403FA1
:100248000A0081318B28420157084001C300C401CC
:100258004408003A0319312948294308103A031978
:10026800A128013A0319B128023A0319CF28073AFD
:100278000319D928013A0319F728363A0319C1286E
:10028800073A0319FB2848298B2880314C2840015C
:100298002B082A0429042804031953295429BE29A0
:1002A80018119A129A119A1315304001B7004B3061
:1002B800B600BE30890B5E29B60B5E29B70B5E29E6
:1002C8000000400118159A169A159A17BC013C09A6
:1002D800B6003608B8003C08B6003608B9002B0846
:1002E800031977297829792918112A0803197D29EA
:1002F8007E297F299A1229080319832984298529A7
:100308009A112808031989298A298B299A13BA016D
:1003180096293530890B8E29000001304001B6003E
:100328003608BA0738083A02031C9B299C298D29EC
:1003380018159A169A159A17BB01AB293530890BEF
:10034800A329000001304001B6003608BB07390870
:100358003B02031CB029B129A2290130B600360896
:10036800BC073C0A031DB929BA296B29AB01AA01AC
:10037800A901A8017E01D5014E01161663000000EF
:100388000800F200102A4001AE01AE0A262A7908B8
:10039800F0007008F600B001B101B10AF729213068
:1003A80030020318D829D929F7297908F00030082C
:1003B800C03E86008701700881000130F000700897
:1003C800B007F72940012E08F000F1017108003A42
:1003D8000319EF29D3297008003A0319D329013AE0
:1003E8000319CB29D329AE01262A40012F0875020B
:1003F8000318FF29002A0D2A7508203E86000130BF
:100408008700010843018C000130F0007008F507EF
:10041800262A43018C01262A7208F000F10171088E
:10042800003A0319182A262A7008003A0319C7291E
:10043800013A0319F929033A0319E629013A03197C
:10044800262A262A08001430400198009901803095
:100458009A002B309200F03093007E309400AA303E
:100468007E01CE005030C3003330B800C4010130E3
:10047800B9000430CF00BA01C501D0013730BB0044
:10048800F030C600FF30D1003F30BC00F030C7006C
:10049800FF30D200A6304001B6000530B7008531E4
:1004A8008D258231A5304001B6000530B700853171
:1004B80087258231A4304001B6000530B700853168
:1004C80081258231A3304001B6000530B70085315F
:1004D8007B2582310F307D01C50013307E019F00DE
:1004E80014309D000D307D01C60008004001CF0189
:1004F80094109A14121194129411941318159A16B0
:100508009A159A1714151414141614177E015510F9
:100518005511551255135414541554165417531095
:1005280053115312531361304001B6000530B70020
:1005380085318725823168304001B6000530B70023
:1005480085318D2582315A304001B6000530B7001B
:1005580085318125823153304001B6000530B7001E
:1005680085317B2582314E01161608004E0119107F
:100578000F1043010C08F3007308F4000F1DC52A7F
:10058800C62ADA2A8F1EC92ACA2AD32A111FCD2AB7
:10059800CE2AD32A03308131C5218231F22A013093
:1005A8008131C521823143011016F22A8F1ADD2AC2
:1005B800DE2AE32A00308131C5218231F22A74080B
:1005C800F3007308F90002308131C52182314301FB
:1005D80010164E010F1CF12AF22AED2A4E010F10B7
:1005E800430110164E01191408004E011912D1309A
:1005F8004001B6000330B70085312F25823108301D
:1006080042019F0080309D0024309E008A309B006C
:100618009C0100304001B6000030B700853141250B
:10062800823100304001B6000030B70085313825EE
:10063800823100304001B6000030B70085314A25CC
:1006480082314001B201F801F7012030B8003808C2
:10065800D00008004001BB003608B9003908BD00C9
:100668003B08B9003908BC00502B3D0886008701BB
:100678000108B9003908BA000130B9003908BD07C6
:100688003A08B9003C088600013087003908810023
:100698000130B9003908BC070130B7020030B83B57
:1006A800370A031D5B2B380A031D5B2B5C2B392B88
:1006B8000800F501752B7508B900BA013908360725
:1006C80086003A08373D87000108BB007508203EC0
:1006D8008600013087003B0881000130B9003908E5
:1006E800F50740013808750203187B2B7C2B822BF9
:1006F80020307502031C812B822B5F2B7508B900F3
:100708003908AF00F5010800853193258331710858
:10071800F3007008F200730840014602031D962B8F
:10072800720845020318992B9A2B9E2B7308C60052
:100738007208C5000130A0070030A13D0130210238
:10074800903003192002031CAA2BAB2BAC2BAD0154
:1007580008004E01161240012B080319B42BB52BC3
:10076800B62B4F142A080319BA2BBB2BBC2BCF145A
:1007780029080319C02BC12BC22B4F1528080319B0
:10078800C62BC72BC82BCF154F080319CC2BCD2B45
:10079800D02B8431F92483310800203040015002E5
:1007A8000318D72BD82BF02B7708A03E860087019B
:1007B800010842019A000130F0007008F707203064
:1007C8007702031CE82BE92BEA2BF7010130F00034
:1007D80070084001D007F22B4E01191208007E0163
:1007E800551CF72BF82BFB2B8431B32483317E0166
:1007F800551DFF2B002C032C8431A42483317E014A
:10080800551E072C082C0B2C8431952483317E012E
:10081800551F0F2C102C132C84318624833108008B
:100828004001C200C030BF003F08B6003008C00019
:10083800C1014008B7004108B800420883312E239F
:10084800843140013008BF003E088600013087002F
:100858003F08810008004001B60043018F0126309F
:1008680090000130910092011214FE308E00400178
:10087800363543018D004E010F1019144001B001A7
:10088800B10108004E01901101304001A20700306B
:10089800A33D00302302643003192202031C552CA7
:1008A800562C5C2C8431EC2484314001A201A30134
:1008B800080002304001B800370886008701380870
:1008C800810036088600870181014F08B800360A82
:1008D8008600870138088100CF0108004001B9006F
:1008E80085311C25843182312722843185312625A2
:1008F80084314001390884312F2484318231F9222E
:100908008431080040014708480403198C2C8D2CB9
:10091800922C48088A0047080A0084317E01551342
:100928000800400149084A0403199B2C9C2CA12C5F
:100938004A088A0049080A0084317E0155120800D5
:1009480040014B084C040319AA2CAB2CB02C4C08C2
:100958008A004B080A0084317E01551108004001C5
:100968004D084E040319B92CBA2CBF2C4E088A0026
:100978004D080A0084317E01551008004E010D1003
:100988004001260827040319CA2CCB2CD02C270891
:100998008A0026080A0084310800400118120B302A
:1009A8004001B6006230890BD72CB60BD72C00005B
:1009B80040011816080003104001181E03140318FC
:1009C800E62CE92C40011816EB2C400118120800FF
:1009D8004001240825040319F22CF32CF82C2508CF
:1009E8008A0024080A0084310800400118120B30DC
:1009F800F0006230890BFE2CF00BFE2C0032400117
:100A0800181608004001B7007608B60037088600B7
:100A18000130870036088100B10108007A340234B9
:100A2800993405344B3401345D340434A13405342D
:100A38004F0196019701980199019A019B019C0128
:100A48009D010800603051018D008F019101063031
:100A5800930092010800400137084101EB00400172
:100A680036084101EA000800400137084101E70063
:100A7800400136084101E6000800400137084101FD
:100A8800E900400136084101E80008004001370844
:100A98004101E500400136084101E4000800400139
:100AA800A801A80A8331AD23853108004001A901B6
:100AB800A90A8331AD23853108004001AB01AB0A97
:100AC8008331AD23853108004001AA01AA0A833188
:100AD800AD2385310800FE0012001E00FE0B702DAC
:100AE8000034640080010131890B762D0034400107
:100AF8003708C8003608C700080040013708CA0090
:100B08003608C900080040013708CC003608CB0079
:100B1800080040013708CE003608CD000800410122
:100B28001E08F1001D08F00008008431D124853129
:100B38000800400131080800553408000800080082
:080B4800080008000800080085
:020000040001F9
:0A000E00EC3FFF3FAA3FFF3FFF3F1A
:00000001FF
