:020000040000FA
:0400000080312528FE
:100008007E1480314E01161E0A280B2813280C1E58
:100018000E280F28132882316722803123280B1FCE
:10002800162817282328191C1A281B2823280F1CD0
:100038001E281F2823288131ED21803123287E1096
:100048000900803127288331A5238031F9007E30CB
:100058008400833085001200D9001200DA001200F3
:10006800DB001200DC001200DD001200DE00F501EA
:10007800F601F701F80148308400003085000930A6
:10008800833184238031A0308400003085004030E3
:100098008331842380317E104001803153286530BC
:1000A8008331022380318B170B1740015A088A00CD
:1000B80059080A0080318331A2238031003A03199C
:1000C800662867285F282C304001A9002908A0006D
:1000D8004130AA002A08A10047308231F02280313D
:1000E800D528AA30A9002908C200A001A00A4230D8
:1000F80082311E22803163005F282130A90029083F
:10010800C300A001A00A433082311E22803163005F
:100118005F28C401C40AA001A00A443082311E220B
:10012800803163005F282C08A9002908C000AA3084
:10013800A9002908C500A001A00A453082311E2265
:10014800803140014008A9002908A1004E30AA00CA
:100158002A08A2005030AB002B08A3000230593EF9
:1001680086008701413F8A00403F0A0080315F28AE
:100178005008A9002908A0004E3082311E22803183
:1001880063005F28AA30A9002908C600A001A00AB8
:10019800463082311E22803183314F238031630003
:1001A8005F2840014708A900AA012A08003A031954
:1001B800DE28F2282908103A03197528013A03198C
:1001C8008128023A03199728073A0319BC28013AEB
:1001D8000319C628363A03198D28F2285F2880317A
:1001E8002528F2003F294001CA01CA0A5529790881
:1001F800F0007008CD00F801CC01CC0A2729213085
:10020800780203180829092927297908F0007808AD
:10021800C03E86008701700881000130F000700838
:10022800F807272940014A08F000F1017108003A4F
:1002380003191F2903297008003A03190329013AF1
:100248000319FB280329CA01552940014B087702E5
:1002580003182F2930293C297708A03E86008701FA
:10026800010843018C000130F0007008F707552998
:1002780043018C0155297208F000F1017108003A18
:100288000319472955297008003A0319F728013A34
:1002980003192929033A03191629013A031955297B
:1002A800552908001430400198009901AA309A0095
:1002B8002B309200F030930055309400AA307E0124
:1002C800CE005030C3002730B800C401B901553002
:1002D800CF00BA01C501D0013730BB00F030C600ED
:1002E800FF30D1003F30BC00F030C700FF30D200F3
:1002F80055105511551255135410541154125413C6
:100308005314531553165317A9304001A000033056
:10031800A10083319C238131A8304001A000033023
:10032800A100833196238131A7304001A00003301A
:10033800A100833190238131A6304001A000033011
:10034800A10083318A2381314E0116160F307D01B9
:10035800C50013307E019F0014309D000D307D01D3
:10036800C600080040012308860087018101810A30
:100378000310181D03140030093DA40003109A1E31
:1003880003140030093DA5000130A535890BC929A2
:1003980003109A1D03140030093DA6000230A6354B
:1003A800890BD32903109A1F03140030093DA700B5
:1003B8000230A735FF3E031DDD2927352604250415
:1003C8002404A8002808CE0083315D23813163000E
:1003D80008004E010F1043010C08F3007308F400E5
:1003E8000F1DF729F8290A2A8F1EFB29FC29052A3F
:1003F800111FFF29002A052A03308031F520813199
:100408001B2A01308031F52081311B2A8F1A0D2AD1
:100418000E2A132A00308031F52081311B2A7408F6
:10042800F3007308F90002308031F520813143016F
:10043800101608004001A300F701342A77082307A3
:10044800A1002108860087010108A2007708A03EC4
:1004580086008701220881000130A1002108F707E2
:10046800200877020318392A3A2A402A20307702CE
:10047800031C3F2A402A222A7708A1002108CB0022
:10048800F70108009E304001A0000230A10083312E
:1004980096238231B3304001A0000230A10083319D
:1004A8009C238231DC304001A0000230A10083315E
:1004B80090238231C8304001A0000230A10083316E
:1004C8008A23823108007E01551C6B2A6C2A6F2A08
:1004D8008331402382317E01551D732A742A772A7D
:1004E8008331312382317E01551E7B2A7C2A7F2A63
:1004F8008331222382317E01551F832A842A872A49
:1005080083311323823108004001A00043018F0189
:1005180026309000013091009201FE308E0040019B
:10052800203543018D004E010F101914F8014001C8
:10053800CC01080076080319A22AA32AA62A40019A
:100548001815A82A4001181176080319AC2AAE2AF2
:100558000130AF2A0030F0007008F6000800750876
:100568000319B72AB82ABB2A40019A16BD2A4001A6
:100578009A1275080319C12AC32A0130C42A003007
:10058800F0007008F5000800400148080319CD2A5A
:10059800CE2AD02A9A17D12A9A1348080319D52A9D
:1005A800D72A0130D82A0030F0007008C8000800A7
:1005B800400149080319E12AE22AE42A9A15E52AA2
:1005C8009A1149080319E92AEB2A0130EC2A00306C
:1005D800F0007008C90008004001A3004D08A200FF
:1005E800230886008701220881007808A2002108D4
:1005F8008600870122088100CC0108004001A20082
:1006080083316B23833181315621833183317523C3
:100618008331400122088231882283310800400159
:10062800510852040319192B1A2B1F2B52088A0040
:1006380051080A0083317E01551308004001530810
:1006480054040319282B292B2E2B54088A005308ED
:100658000A0083317E0155120800400155085604EE
:100668000319372B382B3D2B56088A0055080A00EA
:1006780083317E01551108004001570858040319B9
:10068800462B472B4C2B58088A0057080A00833101
:100698007E0155100800400118120B304001A000DF
:1006A8006230890B552BA00B552B00004001181602
:1006B8000800400118120B304001A0006230890B7D
:1006C800632BA00B632B00004001181608004F0194
:1006D80096019701980199019A019B019C019D013E
:1006E8000800603051018D008F01910106309300A0
:1006F8009201080046340234B63401340034003420
:10070800640080010131890B852B003440012108E8
:10071800D2002008D100080040012108D400200898
:10072800D300080040012108D6002008D5000800A1
:1007380040012108D8002008D700080040014C08D3
:0C074800080055340800080008000800F4
:020000040001F9
:0A000E00EC3FFF3F9F3FFF3FFF3F25
:00000001FF
